:100000000C94361B0C945E1B0C945E1B0C945E1BB4
:100010000C945E1B0C945E1B0C945E1B0C945E1B7C
:100020000C945E1B0C945E1B0C94D21E0C946B24DF
:100030000C945E1B0C945E1B0C945E1B0C945E1B5C
:100040000C945E1B0C945E1B0C945E1B0C945E1B4C
:100050000C945E1B0C945E1B0C945E1B0C94452050
:100060000C945E1B0C945E1B0C945E1B0C945E1B2C
:100070000C945E1B0C945E1B0C945E1B0C945E1B1C
:100080000C945E1B0C945E1B0C945E1B0C945E1B0C
:100090000C945E1B0C945E1B0C945E1B0C945E1BFC
:1000A0000C945E1B0C945E1B0C945E1BD5F08D149F
:1000B000A1C881CFD9F1AF2000454550524F4D2006
:1000C00077726974696E67206572726F7200696E0B
:1000D000697469616C697A6520746865204545506A
:1000E000524F4D00536F6B6F62616E0A4259204C44
:1000F00048570000000000000000000000000882D7
:10010000800000AAAAAAAAAAAAAAAAAAAAAAB2145B
:100110004AAAAA040404040404040404040420A253
:10012000208444AAAAAAAAAAAAAAAAAAAAAACA9A35
:100130008A0AAA0000000000000000000000800001
:1001400028A810AAAAAAAAABEAA0AAAAAAAB222205
:1001500024204A404040400000000060004200006F
:10016000000224AAAAA000A880A8080000ACA8A8A1
:10017000A8A90A00000000000000000000380000EC
:100180000000A0AAA8022222222222222232222217
:1001900022260A06010000000000000000200000E6
:1001A000000224AAA08888888888888888CA8A8AC1
:1001B0008A880B00000000000000000000800000A2
:1001C0000000A2AA822222222222222223222222EA
:1001D0002222466000000000000000000200000033
:1001E00000001CAA08A8A8A8A8A8A8A8AFFFFFFFFD
:1001F000FFFFFA0000000000000000000400000003
:10020000000010AA222222222222222226E22222D8
:100210003B66BA06000000000000000005299000BF
:100220001A4D94A888888888888888888FEFAA8A39
:100230008BAE9A00000000000000000004000000E7
:10024000000010A82222222222222222263222224A
:1002500022223A60000000000000000004000000BC
:10026000000014A0A8A8A8A8A8A8A8A8ACA8A8A8F6
:10027000A8A8BA0000000000000000000400000070
:10028000000010A222222222222222222622222220
:1002900022223A00000000000000000004000000DC
:1002A000000014A488888838888880888E8A8A8A82
:1002B0008A8A9A00000000EE000030E0040000008E
:1002C0000000108222222381A22200002622222264
:1002D00022223A0000000600600000000400000036
:1002E00000001480A8A83800700088880CA8A8A86E
:1002F000A8A8BA000000E003900000000C00000075
:100300000000108222218006100000000EFFFFFF77
:10031000FFFFFB0000016038D00000000700000371
:1003200000001680888930C3508888888E88888A23
:10033000AAAABE0000010B845000000004000004C3
:1003400000001882222304395000000004202027D6
:10035000FFFFFA40000104C150000000080000083F
:1003600000001488A8A90581580808081888889AE8
:10037000AAAABA0000010521500000003FFFFFE0DB
:100380000000108222233520500000006AAAAAEA49
:100390002A2A3A000001252050000000C44669E0E6
:1003A000000014888889650058808081A928E5AA02
:1003B000AAAABA0000014507500000031286CF60C8
:1003C000000010822221453C50000006A86B56AA6E
:1003D000AAAABA60000145205000000C55063C60F6
:1003E00000001480A8014500D808FFFFFFBD72AAD5
:1003F000AAAABB0000014507100020000042A92066
:10040000000012A22201453810001AAAAABFE6AACB
:100410002A2A3E000000C5C030000C4444558960C3
:1004200000001C808808E400C8888EAAAAAB6AAFC6
:10043000FFFFFA0000005C0F800003FFFFFF516028
:100440000000108222004C39000002AAAAACAAAA1D
:10045000AAAABA0000804EE1000002000005556023
:1004600000001488A8084B8988080AAAAAAEAAAA7C
:10047000AAAABA000000A80180000200000511200D
:1004800000001082220008038000022A2A2EAAAA55
:100490002A2A3A0000000C00000002000005556006
:1004A0000000148888081C8080808AAAAAAEAAAAA4
:1004B000AAAABA0000000000000002000005516076
:1004C0000000108222000000000002AAAAAEAAAA20
:1004D000AAAABA4000000000000002000005556012
:1004E00000001488A880888888088AAAAAAEAAAAC8
:1004F000AAAABA53746570007E004C6576656C00DC
:100500004E4557205245434F524400486973746F1B
:100510007279200053746570200057494E00000026
:1005200000000000000000000000000000000000CB
:1005300000000000000000000000000000000000BB
:1005400001010100000000000000000000000000A8
:100550000104010000000000000000000000000095
:100560000100010101010000000000000000010184
:10057000010300030401000000000000000001046A
:100580000003020101010000000000000000010161
:100590000101030100000000000000000000000055
:1005A0000001040100000000000000000000000045
:1005B0000001010100000000000000000000000038
:1005C000000000000000000000000000000000002B
:1005D000000000000000000000000000000000001B
:1005E000000000000000000000000000000000000B
:1005F00000000000000000000000000000000000FB
:1006000000000000000000000000000000000000EA
:1006100000000000000000000000000000000101D8
:1006200001010100000000000000000000000100C6
:1006300000000100000000000000000000000100B8
:1006400003000100010101000000000000000100A2
:10065000030201000104010000000000000001018C
:10066000010301010104010000000000000000017D
:100670000100000000040100000000000000000173
:100680000000000100000100000000000000000167
:100690000000000101010100000000000000000155
:1006A0000101010100000000000000000000000046
:1006B000000000000000000000000000000000003A
:1006C000000000000000000000000000000000002A
:1006D000000000000000000000000000000000001A
:1006E000000000000000000000000000000000000A
:1006F00000000000000000000000000000000000FA
:1007000000000000000000000000000000000000E9
:1007100000000000000000000000000000000001D8
:1007200001010101010100000000000000000001C2
:1007300000000000000101010000000000000101B4
:1007400003010101000000010000000000000100A1
:10075000000203000003000100000000000001008F
:100760000404010003000101000000000000010179
:10077000040401000000010000000000000000016E
:100780000101010101010100000000000000000062
:100790000000000000000000000000000000000059
:1007A0000000000000000000000000000000000049
:1007B0000000000000000000000000000000000039
:1007C0000000000000000000000000000000000029
:1007D0000000000000000000000000000000000019
:1007E0000000000000000000000000000000000009
:1007F00000000000000000000000000000000000F9
:1008000000000000000000000000000000000000E8
:1008100000000000000000000000000000000001D7
:1008200001010100000000000000000000000101C3
:1008300000000100000000000000000000000100B6
:1008400000030100000000000000000000000101A2
:100850000000010100000000000000000000010194
:10086000030200010000000000000000000001047D
:10087000030300010000000000000000000001046C
:100880000405040100000000000000000000010158
:100890000101010100000000000000000000000054
:1008A0000000000000000000000000000000000048
:1008B0000000000000000000000000000000000038
:1008C0000000000000000000000000000000000028
:1008D0000000000000000000000000000000000018
:1008E0000000000000000000000000000000000008
:1008F00000000000000000000000000000000000F8
:1009000000000000000000000000000000000000E7
:1009100000000000000000000000000000000001D6
:1009200001010101000000000000000000000001C2
:1009300000020101010000000000000000000001B1
:1009400000030000010000000000000000000101A1
:10095000010001000101000000000000000001048E
:10096000010001000001000000000000000001047F
:10097000030000010001000000000000000001046D
:100980000000000300010000000000000000010161
:100990000101010101010000000000000000000051
:1009A0000000000000000000000000000000000047
:1009B0000000000000000000000000000000000037
:1009C0000000000000000000000000000000000027
:1009D0000000000000000000000000000000000017
:1009E0000000000000000000000000000000000007
:1009F00000000000000000000000000000000000F7
:100A000000000000000000000000000000000000E6
:100A100000000000000000000000000000000000D6
:100A200000010101010101010000000000000101BD
:100A300001010000000000010000000000000100B2
:100A4000000004010101000100000000000001009D
:100A50000100010000000001010000000000010091
:100A60000100030003010400010000000000010078
:100A7000010000050000010001000000000001006D
:100A80000401030003000100010000000000010157
:100A90000000000001000100010101000000000150
:100AA000000101010400000000020100000000013B
:100AB0000000000000010100000001000000000132
:100AC000010101010101010101010100000000001B
:100AD0000000000000000000000000000000000016
:100AE0000000000000000000000000000000000006
:100AF00000000000000000000000000000000000F6
:100B000000000000000000000000000000000000E5
:100B100000000000000000000000000000000000D5
:100B200000000000000000000000000000000000C5
:100B300000000000000000000000000000000000B5
:100B400000000000000000000000000000000000A5
:100B50000000000000000000000000000000000095
:100B60000000000000000000000000000000000085
:100B70000000000000000000000000000000000075
:100B80000000000000000000000000000000000065
:100B90000000000000000000000000000000000055
:100BA000000101010101010100000000000000003E
:100BB000010100000100020100000000000000002F
:100BC000010000000103000100000000000000001F
:100BD000010300000300000100000000000000000D
:100BE00001000301010000010000000000000101FC
:100BF00001000300010001010000000000000104E9
:100C000004040404000001000000000000000101D1
:100C100001010101010101000000000000000000CD
:100C200000010101010101000000000000000001BD
:100C300001010000000001000000000000000101AF
:100C40000400030101000101000000000000010494
:100C50000403000300000201000000000000010482
:100C60000400030003000101000000000000010176
:100C7000010101010000010000000000000000006F
:100C80000000000101010100000000000000000060
:100C90000000000000000000000000000000000054
:100CA0000000000000000000000000000000000044
:100CB0000000000000000000000000000000000034
:100CC0000000000000000000000000000000000024
:100CD0000000000000000000000000000000000014
:100CE0000000000000000000000000000000000004
:100CF00000000000000000000000000000000000F4
:100D000000000000000000000000000000000000E3
:100D100000000000000000000000000000000001D2
:100D200001010101010101010000000000000001BA
:100D300000000101000000010000000000000001AF
:100D4000000000030000000100000000000000019E
:100D50000300010101000301000000000000000188
:100D60000001040404010001000000000000010172
:100D70000001040404010001010000000000010062
:100D80000300000300000300010000000000010058
:100D9000000000000100000201000000000001014D
:100DA000010101010101010101000000000000003A
:100DB0000000000000000000000000000000000033
:100DC0000000000000000000000000000000000023
:100DD0000000000000000000000000000000000013
:100DE0000000000000000000000000000000000003
:100DF00000000000000000000000000000000000F3
:100E000000000000000000000000000000000000E2
:100E100000000000000000000000000000000000D2
:100E200001010101010100000000000000000000BC
:100E300001000000000100000000000000000101AE
:100E40000103030300010000000000000000010294
:100E50000003040400010000000000000000010085
:100E6000030404040101000000000000000001016F
:100E7000010100000100000000000000000000006F
:100E8000000101010100000000000000000000005E
:100E90000000000000000000000000000000000052
:100EA0000000000000000000000000000000000042
:100EB0000000000000000000000000000000000032
:100EC0000000000000000000000000000000000022
:100ED0000000000000000000000000000000000012
:100EE0000000000000000000000000000000000002
:100EF00000000000000000000000000000000000F2
:100F000000000000000000000000000000000000E1
:100F100000000000000000000000000000000001D0
:100F200001010100000101010101000000000101B7
:100F300000000100000100000001000000000100AD
:100F40000300010101010300000100000000010095
:100F50000003040404040003000100000000010178
:100F6000000000000100020001010000000000017B
:100F70000101010101010101010000000000000068
:100F80000000000000000000000000000000000061
:100F90000000000000000000000000000000000051
:100FA0000000000000000000000000000000000041
:100FB0000000000000000000000000000000000031
:100FC0000000000000000000000000000000000021
:100FD0000000000000000000000000000000000011
:100FE0000000000000000000000000000000000001
:100FF00000000000000000000000000000000000F1
:1010000000000000000000000000000000000000E0
:1010100000000000000000000000000000000000D0
:1010200001010101010000000000000000000101B9
:1010300001000002010000000000000000000100AB
:101040000003040001010000000000000000010096
:101050000004030400010000000000000000010182
:101060000100050300010000000000000000000076
:10107000010000000101000000000000000000006D
:10108000010101010100000000000000000000005B
:101090000000000000000000000000000000000050
:1010A0000000000000000000000000000000000040
:1010B0000000000000000000000000000000000030
:1010C0000000000000000000000000000000000020
:1010D0000000000000000000000000000000000010
:1010E0000000000000000000000000000000000000
:1010F00000000000000000000000000000000000F0
:1011000000000000000000000000000000000000DF
:1011100000000000000000000000000000000000CF
:1011200001010101000000000000000000000000BB
:1011300001040401000000000000000000000001A4
:101140000100040101000000000000000000000197
:101150000000030401000000000000000000010185
:101160000003000001010000000000000000010079
:101170000001030300010000000000000000010066
:10118000000200000001000000000000000001015A
:101190000101010101010000000000000000000049
:1011A000000000000000000000000000000000003F
:1011B000000000000000000000000000000000002F
:1011C000000000000000000000000000000000001F
:1011D000000000000000000000000000000000000F
:1011E00000000000000000000000000000000000FF
:1011F00000000000000000000000000000000000EF
:1012000000000000000000000000000000000000DE
:1012100000000000000000000000000000000101CC
:1012200001010101010100000000000000000100B7
:1012300000010000000100000000000000000100AB
:10124000030404030001000000000000000001028C
:10125000030405000101000000000000000001007F
:10126000030404030001000000000000000001006E
:10127000000100000001000000000000000001016A
:101280000101010101010000000000000000000058
:10129000000000000000000000000000000000004E
:1012A000000000000000000000000000000000003E
:1012B000000000000000000000000000000000002E
:1012C000000000000000000000000000000000001E
:1012D000000000000000000000000000000000000E
:1012E00000000000000000000000000000000000FE
:1012F00000000000000000000000000000000000EE
:1013000000000000000000000000000000000000DD
:1013100000000000000000000000000000000001CC
:1013200001010101010000000000000000000101B6
:1013300000000000010100000000000000000100AA
:10134000030003030001000000000000000001048E
:101350000404040404010000000000000000010077
:101360000303000300010000000000000000010171
:101370000100020101010000000000000000000067
:101380000101010100000000000000000000000059
:10139000000000000000000000000000000000004D
:1013A000000000000000000000000000000000003D
:1013B000000000000000000000000000000000002D
:1013C000000000000000000000000000000000001D
:1013D000000000000000000000000000000000000D
:1013E00000000000000000000000000000000000FD
:1013F00000000000000000000000000000000000ED
:1014000000000000000000000000000000000000DC
:1014100000000000000000000000000000000000CC
:1014200001010101010101010000000000000000B4
:1014300001000000000101010000000000000000A8
:101440000100030000000001000000000000010195
:101450000100030001010001000000000000010480
:10146000040400030000000100000000000001046B
:101470000404030103000101000000000000010159
:101480000101000100030001000000000000000055
:101490000001000000020001000000000000000048
:1014A0000001010101010101000000000000000035
:1014B000000000000000000000000000000000002C
:1014C000000000000000000000000000000000001C
:1014D000000000000000000000000000000000000C
:1014E00000000000000000000000000000000000FC
:1014F00000000000000000000000000000000000EC
:1015000000000000000000000000000000000000DB
:1015100000000000000000000000000000000101C9
:1015200001010101000000000000000000000100B6
:1015300000000001000000000000000000000100A9
:10154000030303010100000000000000000001008F
:10155000000104040101010000000000000001017D
:10156000000004040300010000000000000000016E
:101570000000020000000100000000000000000167
:101580000101010101010100000000000000000054
:10159000000000000000000000000000000000004B
:1015A000000000000000000000000000000000003B
:1015B000000000000000000000000000000000002B
:1015C000000000000000000000000000000000001B
:1015D000000000000000000000000000000000000B
:1015E00000000000000000000000000000000000FB
:1015F00000000000000000000000000000000000EB
:1016000000000000000000000000000000000000DA
:1016100000000000000000000000000000000000CA
:1016200001010101010101010000000000000000B2
:1016300001000000010400010000000000000001A2
:101640000100000304040401000000000000000188
:10165000000003000105040100000000000001017A
:101660000001010301000101000000000000010071
:101670000000030000030001000000000000010062
:101680000000010000000001000000000000010156
:101690000101010101020001000000000000000042
:1016A0000000000001010101000000000000000036
:1016B000000000000000000000000000000000002A
:1016C000000000000000000000000000000000001A
:1016D000000000000000000000000000000000000A
:1016E00000000000000000000000000000000000FA
:1016F00000000000000000000000000000000000EA
:1017000000000000000000000000000000000000D9
:1017100000000000000000000000000000000001C8
:1017200001010101010100000000000000000001B2
:101730000502040400010000000000000000010197
:101740000104040403010101000000000000010085
:10175000030001030003000100000000000001007D
:101760000300000001030001000000000000010070
:101770000000000100000001000000000000010165
:101780000101000000010101000000000000000054
:101790000001010101010000000000000000000044
:1017A0000000000000000000000000000000000039
:1017B0000000000000000000000000000000000029
:1017C0000000000000000000000000000000000019
:1017D0000000000000000000000000000000000009
:1017E00000000000000000000000000000000000F9
:1017F00000000000000000000000000000000000E9
:1018000000000000000000000000000000000000D8
:1018100000000000000000000000000000000101C6
:1018200001010101010000000000000000000104AE
:101830000403040401000000000000000000010493
:101840000401040401000000000000000000010089
:10185000030303000100000000000000000001007D
:101860000003000001000000000000000000010073
:10187000030303000100000000000000000001005D
:101880000001020001000000000000000000010152
:101890000101010101000000000000000000000043
:1018A0000000000000000000000000000000000038
:1018B0000000000000000000000000000000000028
:1018C0000000000000000000000000000000000018
:1018D0000000000000000000000000000000000008
:1018E00000000000000000000000000000000000F8
:1018F00000000000000000000000000000000000E8
:1019000000000000000000000000000000000000D7
:1019100000000000000000000000000000000000C7
:1019200000010101010101000000000000000000B1
:101930000001000404040100000000000000010197
:101940000101040404040100000000000000010083
:10195000000101010300010101000000000001007D
:101960000300030000030300010000000000010267
:10197000000300030000000001000000000001005F
:101980000000010101000000010000000000010151
:10199000010101000101010101000000000000003F
:1019A0000000000000000000000000000000000037
:1019B0000000000000000000000000000000000027
:1019C0000000000000000000000000000000000017
:1019D0000000000000000000000000000000000007
:1019E00000000000000000000000000000000000F7
:1019F00000000000000000000000000000000000E7
:101A000000000000000000000000000000000000D6
:101A100000000000000000000000000000000101C4
:101A200001010101010100000000000000000100AF
:101A300000000000000100000000000000000100A4
:101A4000010303000001000000000000000001008D
:101A50000404040100010000000000000000010176
:101A60000404040300010100000000000000000164
:101A7000000101000300010000000000000000015F
:101A8000030000030000010000000000000000014E
:101A90000000010000020100000000000000000141
:101AA000010101010101010000000000000000002F
:101AB0000000000000000000000000000000000026
:101AC0000000000000000000000000000000000016
:101AD0000000000000000000000000000000000006
:101AE00000000000000000000000000000000000F6
:101AF00000000000000000000000000000000000E6
:101B000000000000000000000000000000000000D5
:101B100000000000000000000000000000000000C5
:101B200001010101010000000000000000000101AE
:101B3000010000000101010100000000000001009F
:101B4000000003000003000100000000000001008D
:101B5000030002030000000100000000000001017A
:101B60000103030101010101000000000000000069
:101B7000010000040401000000000000000000005B
:101B80000104040404010000000000000000000043
:101B9000010101010101000000000000000000003F
:101BA0000000000000000000000000000000000035
:101BB0000000000000000000000000000000000025
:101BC0000000000000000000000000000000000015
:101BD0000000000000000000000000000000000005
:101BE00000000000000000000000000000000000F5
:101BF00000000000000000000000000000000000E5
:101C000000000000000000000000000000000000D4
:101C100000000000000000000000000000000101C2
:101C200001010101000000010101010100000100AA
:101C3000000000010101000100000401000001009A
:101C4000000300030001000104040401000001007E
:101C50000100000300010101000004010000010077
:101C6000000303030000000300020401000001015F
:101C70000100000300000301000004010000000057
:101C8000010000030103000104040401000000003E
:101C9000010100000000000100000401000000003C
:101CA0000001010101010101010101010000000029
:101CB0000000000000000000000000000000000024
:101CC0000000000000000000000000000000000014
:101CD0000000000000000000000000000000000004
:101CE00000000000000000000000000000000000F4
:101CF00000000000000000000000000000000000E4
:101D000000000000000000000000000000000000D3
:101D100000000000000000000000000000000001C2
:101D200001010101010101010000000000000001AA
:101D3000000000010100000101010100000000019C
:101D4000000300000000000000000100000000018E
:101D50000103010101000101000001000000000178
:101D60000000010100050001000101000000000168
:101D70000003040404040404000100000000010145
:101D80000001010100040001000100000000010049
:101D90000000000003010101030100000000010038
:101DA000000001000000000302010000000001012A
:101DB0000101010301000101010100000000000018
:101DC0000000010000000100000000000000000011
:101DD00000000101010101000000000000000000FE
:101DE00000000000000000000000000000000000F3
:101DF00000000000000000000000000000000000E3
:101E000000000000000000000000000000000000D2
:101E100000000000000000000000000000000100C1
:101E200000000001000100010000000100000100AD
:101E3000000000010001000100000001000001009D
:101E4000000000010101000100010001000001008B
:101E5000000000010001000100010001000001017B
:101E6000010100010001000001000100000100006B
:101E70000000000000000000000000000000000062
:101E80000000000101010101010001010100000148
:101E9000010101000000000001000000010000013C
:101EA000000001000001010001000001000000012C
:101EB000000003000000000001000100000000011C
:101EC000000001000001000101000000000001010C
:101ED00001000101030100000101000101010100F5
:101EE00003000000000303000101000100010100E4
:101EF00001030100000100000101000100010102D5
:101F000000000101010101010101000100010101C5
:101F100001010100000000000001000101010000BA
:101F200000000000000000000000000000000000B1
:101F300000000000000000000000000000000000A1
:101F40000000000000000000000000000000000091
:101F50000000000000000000000000000000000081
:101F60000000000001010101010101010100000068
:101F7000000000000100000000000000010000005F
:101F8000000000000100010001000100010000004C
:101F90000000000001000003000301000100010136
:101FA0000101010101000000030000000100010423
:101FB000040100000101000300030100010001040D
:101FC00004000000010100030003000001000104FF
:101FD00004010000010100010101010101000104EF
:101FE00004010001000300030001000000000104DF
:101FF00004000000000003000001000000000100D8
:1020000000010101020000010101000000000101C6
:1020100001010001010101010000000000000000B9
:1020200000000101010100000000000000000101AA
:10203000010101000001000000000000000001009B
:102040000003000300010001010101010101010081
:102050000000030000010001050405040501010161
:10206000000300030001010104050405040100014F
:102070000300030000010000050405040501000140
:102080000203000300000000040504050101000133
:10209000030003000001000005040504050101011F
:1020A000000300030001010104050405040101000F
:1020B0000000030000010001050405040501010002
:1020C0000003000300010001010101010101010100
:1020D00001010100000100000000000000000000FC
:1020E00000000101010100000000000000000000EC
:1020F00000000000000000000000000000000000E0
:1021000000000000000000000000000000000000CF
:1021100000000000000000000000000000000101BD
:1021200001010101010100000000000000000104A4
:102130000404040404010000000000000000010089
:102140000003000100010100000000000000010088
:102150000300010003000100000000000000010175
:102160000300030003000100000000000000000164
:10217000000002000000010000000000000000015B
:102180000101010101010100000000000000000048
:10219000000000000000000000000000000000003F
:1021A000000000000000000000000000000000002F
:1021B000000000000000000000000000000000001F
:1021C000000000000000000000000000000000000F
:1021D00000000000000000000000000000000000FF
:1021E00000000000000000000000000000000000EF
:1021F00000000000000000000000000000000000DF
:1022000000000000000000000000000000000000CE
:1022100000000000000000000000000000000000BE
:1022200001010101010101010101000000000101A2
:102230000100000004030200000100000000010092
:102240000000010103010100000100000000010085
:10225000000005000400040001010000000001016D
:102260000003010103010100010000000000000162
:102270000000000004000000010000000000000158
:102280000101010101010101010000000000000045
:10229000000000000000000000000000000000003E
:1022A000000000000000000000000000000000002E
:1022B000000000000000000000000000000000001E
:1022C000000000000000000000000000000000000E
:1022D00000000000000000000000000000000000FE
:1022E00000000000000000000000000000000000EE
:1022F00000000000000000000000000000000000DE
:1023000000000000000000000000000000000000CD
:1023100000000000000000000000000000000000BD
:1023200000010101010101000000000000000101A5
:102330000101040000000100000000000000010095
:10234000000303030000010000000000000001047E
:10235000010104010104010000000000000001006F
:102360000000030000000100000000000000010068
:102370000003000100010100000000000000010155
:10238000010100000001000000000000000000004A
:102390000001010101010000000000000000000038
:1023A000000000000000000000000000000000002D
:1023B000000000000000000000000000000000001D
:1023C000000000000000000000000000000000000D
:1023D00000000000000000000000000000000000FD
:1023E00000000000000000000000000000000000ED
:1023F00000000000000000000000000000000000DD
:1024000000000000000000000000000000000000CC
:1024100000000000000000000000000000000001BB
:1024200001010101010000000000000000000001A6
:10243000040004040100000000000000000000018E
:10244000040003040100000000000000000001017E
:102450000100000301010000000000000000010075
:102460000300000300010000000000000000010064
:102470000103010100010000000000000000010054
:102480000000020000010000000000000000010147
:102490000101010101010000000000000000000036
:1024A000000000000000000000000000000000002C
:1024B000000000000000000000000000000000001C
:1024C000000000000000000000000000000000000C
:1024D00000000000000000000000000000000000FC
:1024E00000000000000000000000000000000000EC
:1024F00000000000000000000000000000000000DC
:1025000000000000000000000000000000000000CB
:1025100000000000000000000000000000000000BB
:1025200000000000000000000000000000000000AB
:10253000000000000000000000000000000000009B
:10254000000000000000000000000000000000008B
:10255000000000000000000000000000000000007B
:102560000000010101010101000000000000000065
:102570000101010000000001010100000000000055
:102580000100000001030000000101010000000043
:102590000100000003000000030300010000000030
:1025A000010003030001030000000001000000001F
:1025B0000101000000030000000300010000010110
:1025C00001010101000103010101010100000104F9
:1025D00004020001030000010000000000000104EB
:1025E00001040400000301010000000000000104D8
:1025F00004040403010001000000000000000104C5
:1026000004040400000001000000000000000101BB
:1026100001010101010101000000000000000101B1
:10262000010101010101010101010101010001009C
:102630000000000000010000000000000100010097
:102640000300010300010003010103000100010078
:102650000100000300010000000000000100010073
:102660000000010103010301010303000100010057
:102670000100010004040400010000000100010049
:102680000300000400010004030000000100010039
:102690000301020304040401000100000100010021
:1026A000000000040001000400000300010001001C
:1026B0000101040301010103040001000100010004
:1026C00001000304040404040001010001000100EE
:1026D00000000000000000000000000001000101F7
:1026E00001010101010101010101010101000000DD
:1026F00000000000000000000000000000000000DA
:1027000000000000000000000000000000000000C9
:1027100000000000000000000000000000000101B7
:1027200001010101010101000000000000000100A1
:102730000000010100000100000000000000010095
:102740000100030003000100000000000000010080
:10275000000504010000010000000000000001016C
:10276000000104020401010000000000000001015A
:10277000030101010501010100000000000001004A
:102780000000000000000001000000000000010047
:102790000000010100010001000000000000010133
:1027A0000101010100000001000000000000000024
:1027B0000000000101010101000000000000000014
:1027C0000000000000000000000000000000000009
:1027D00000000000000000000000000000000000F9
:1027E00000000000000000000000000000000000E9
:1027F00000000000000000000000000000000000D9
:1028000000000000000000000000000000000000C8
:1028100000000000000000000000000000000101B6
:1028200001010101010100000000000000000100A1
:102830000000000000010000000000000000010096
:10284000030300000001010100000000000001007E
:102850000003000303030001010101010000010165
:102860000001010004040400000000010100000157
:102870000001020104040401010103000100000140
:102880000001000304040400000000000100010135
:102890000001000304040403000100010100010021
:1028A000000001010101000101010001000001001F
:1028B000000000000003000000030001000001010F
:1028C00001010101010101010100000100000000FE
:1028D00000000000000000000101010100000000F4
:1028E00000000000000000000000000000000000E8
:1028F00000000000000000000000000000000000D8
:1029000000000000000000000000000000000000C7
:1029100000000000000000000000000000000000B7
:1029200000000101010101000000000000000000A2
:102930000000010002000100000000000000000093
:10294000000001030303010000000000000000017B
:102950000101010000000100000000000000000172
:10296000000000040003010101000000000000015C
:102970000003040304000401010000000000000142
:10298000000001040104010100000000000000013A
:102990000101010101010100000000000000000030
:1029A0000000000000000000000000000000000027
:1029B0000000000000000000000000000000000017
:1029C0000000000000000000000000000000000007
:1029D00000000000000000000000000000000000F7
:1029E00000000000000000000000000000000000E7
:1029F00000000000000000000000000000000000D7
:102A000000000000000000000000000000000000C6
:102A100000000000000000000000000000000000B6
:102A2000010101010101010101010101000000009A
:102A30000104040400010000000000010000000087
:102A40000104040000010001010000010000000079
:102A5000010404000000000001000001000000006B
:102A60000104040000010003010100010000000056
:102A70000104040400010300030000010000000041
:102A80000101010101010000030300010000000039
:102A9000000101000003000303000001000000002A
:102AA0000001020003030300000100010000000018
:102AB000000101000300010000000001000000000F
:102AC0000000010000000000000000010000000004
:102AD00000000101010101010101010100000000EC
:102AE00000000000000000000000000000000000E6
:102AF00000000000000000000000000000000000D6
:102B000000000000000000000000000000000000C5
:102B100000000000000000000000000000000101B3
:102B2000010101010101010000000000000001009D
:102B30000000000000000100000000000000010093
:102B40000003000300030100000000000000010179
:102B5000000103010100010000000000000000016D
:102B60000004040004040101000000000000000152
:102B70000104040004040001000000000000000043
:102B8000010001010301000101000000000000003C
:102B9000010300030003000001000000000000002A
:102BA0000100000000000002010000000000000021
:102BB000010101010101010101000000000000000C
:102BC0000000000000000000000000000000000005
:102BD00000000000000000000000000000000000F5
:102BE00000000000000000000000000000000000E5
:102BF00000000000000000000000000000000000D5
:102C000000000000000000000000000000000000C4
:102C100000000000000000000000000000000101B2
:102C20000101010101010101010101010101010194
:102C3000010401000400010100000104040101017C
:102C40000000000000000400000301000001010179
:102C50000000000100000400000003000001010169
:102C6000010000010001010100000100000101005C
:102C70000300000100030001000000000101010049
:102C8000000000010000000100000000010101003F
:102C9000010000010001000100010100010101002B
:102CA000010000000000000100010100010101001D
:102CB000010101000001010100000000010101000B
:102CC00001000000000100010000000000010100FF
:102CD00001000300000000010101010000010100EA
:102CE00000010101000100010000000000010102DB
:102CF00003000000000300010000000000010100CB
:102D000000000000000000010401010000010101B9
:102D100001010101010101010101010101010000A5
:102D200000000000000000000000000000000000A3
:102D3000000000000101010101000000000000008E
:102D4000010101010100000001000000000000007D
:102D50000100000400030100010000000000000069
:102D60000100010405000000010000000000000156
:102D70000100050401030001010000000000000142
:102D8000000300000300000100000000000000013B
:102D9000000000010100020100000000000000012D
:102DA000010101010101010100000000000000001B
:102DB0000000000000000000000000000000000013
:102DC0000000000000000000000000000000000003
:102DD00000000000000000000000000000000000F3
:102DE00000000000000000000000000000000000E3
:102DF00000000000000000000000000000000000D3
:102E000000000000000000000000000000000000C2
:102E100000000000000000000000000000000000B2
:102E200000000000000000000000000000000001A1
:102E30000101010100010101010101010000000186
:102E4000000000010101000001000001000000017C
:102E50000000030000000003000200010000000168
:102E60000100010301010401010000010000000054
:102E70000100000404040504000300010000000038
:102E80000100030100010401000100010000000035
:102E9000010100000000030000000001000000002C
:102EA0000001000001010101010101010000000019
:102EB000000101010100000000000000000000000E
:102EC0000000000000000000000000000000000002
:102ED00000000000000000000000000000000000F2
:102EE00000000000000000000000000000000000E2
:102EF00000000000000000000000000000000000D2
:102F000000000000000000000000000000000000C1
:102F100000000000000000000000000000000000B1
:102F2000000000003FFE00208300208280208240BD
:102F300020822020822020822020822020822020A7
:102F400082202082202082203FFE201001200800C5
:102F5000A004006003FFE00000000000000000008B
:102F60000000000000000000001FFC001FFD001F0B
:102F7000FD801FFDC01FFDC01FFDC01FFDC01FFD48
:102F8000C01FFDC01FFDC01FFDC00001C00FFEC05F
:102F900007FF4003FF800000000000000000000069
:102FA0000000FFFF0080018080014080012080013F
:102FB0001080010880010480010480010480010464
:102FC000800104800104800104800104800104FF69
:102FD000FF04400084200044100024080014040072
:102FE0000C03FFFC000000000000000000000000D7
:102FF00001FFC0018020014010012008011FF801DD
:103000001008011008011088011088011088009034
:1030100088005048003008001FF8000880000CC0ED
:1030200000000000000000000000000000000000A0
:10303000000001FF80018040014020012010011F9D
:10304000F801900801300801110801B10801510888
:10305000009108005208003008001FF800064000E8
:1030600000C00000000000000000000000000000A0
:103070000000000001FF800180400140200120107D
:10308000011FF80190080190080192480190080181
:10309000500800D248005188007008001FF8000452
:1030A00040000CC000000000000000000000000014
:1030B00000000000000001FF80018040014020016D
:1030C0002010011FF801100801500801500801509C
:1030D0000801500801500800D00800B008001FF88F
:1030E0000008400018C000000000000001020408B1
:1030F0001020408000000000003E5B4F5B3E3E6BB6
:103100004F6B3E1C3E7C3E1C183C7E3C181C577D81
:10311000571C1C5E7F5E1C00183C1800FFE7C3E7CD
:10312000FF0018241800FFE7DBE7FF30483A060EDF
:103130002629792926407F050507407F05253F5A26
:103140003CE73C5A7F3E1C1C08081C1C3E7F142296
:103150007F22145F5F005F5F06097F017F00668941
:10316000956A606060606094A2FFA29408047E0487
:103170000810207E201008082A1C08081C2A0808AD
:103180001E101010100C1E0C1E0C30383E3830066D
:103190000E3E0E06000000000000005F0000000769
:1031A000000700147F147F14242A7F2A1223130897
:1031B000646236495620500008070300001C224173
:1031C000000041221C002A1C7F1C2A08083E080817
:1031D00000807030000808080808000060600020C7
:1031E000100804023E5149453E00427F40007249AA
:1031F0004949462141494D331814127F102745454E
:1032000045393C4A49493141211109073649494963
:1032100036464949291E00001400000040340000D1
:10322000000814224114141414140041221408023A
:10323000015909063E415D594E7C1211127C7F49AD
:103240004949363E414141227F4141413E7F494902
:1032500049417F090909013E414151737F0808082E
:103260007F00417F41002040413F017F08142241FF
:103270007F404040407F021C027F7F0408107F3E59
:103280004141413E7F090909063E4151215E7F09C6
:10329000192946264949493203017F01033F40402D
:1032A000403F1F2040201F3F4038403F6314081418
:1032B0006303047804036159494D43007F41414150
:1032C0000204081020004141417F04020102044031
:1032D00040404040000307080020545478407F28B5
:1032E0004444383844444428384444287F385454AB
:1032F000541800087E090218A4A49C787F080404CE
:103300007800447D40002040403D007F102844006C
:1033100000417F40007C047804787C0804047838FD
:1033200044444438FC1824241818242418FC7C082D
:10333000040408485454542404043F44243C4040AA
:10334000207C1C2040201C3C4030403C442810285D
:10335000444C9090907C4464544C440008364100A6
:103360000000770000004136080002010204023C20
:103370002623263C1EA1A161123A4040207A3854EF
:10338000545559215555794121545478412155546A
:10339000784020545579400C1E52721239555555BB
:1033A00059395454545939555454580000457C41A6
:1033B0000002457D420001457C40F0292429F0F0BF
:1033C000282528F07C545545002054547C547C0A10
:1033D000097F4932494949323248484832324A48DD
:1033E00048303A4141217A3A42402078009DA0A0DD
:1033F0007D39444444393D4040403D3C24FF242431
:10340000487E4943662B2FFC2F2BFF0929F620C04D
:10341000887E090320545479410000447D4130489E
:10342000484A32384040227A007A0A0A727D0D19E1
:10343000317D2629292F28262929292630484D4043
:1034400020380808080808080808382F10C8ACBA3F
:103450002F102834FA00007B000008142A142222BE
:10346000142A14089500220095AA005500AAAA550E
:10347000AA55AA000000FF00101010FF0014141439
:10348000FF001010FF00FF1010F010F0141414FCD7
:10349000001414F700FF0000FF00FF1414F404FCF4
:1034A000141417101F10101F101F1414141F0010D5
:1034B0001010F0000000001F101010101F1010104E
:1034C00010F010000000FF1010101010101010105D
:1034D000FF10000000FF140000FF00FF00001F109D
:1034E000170000FC04F414141710171414F404F457
:1034F0000000FF00F714141414141414F700F71448
:103500001414171410101F101F141414F414101096
:10351000F010F000001F101F0000001F140000003A
:10352000FC140000F010F01010FF10FF141414FF32
:10353000141010101F00000000F010FFFFFFFFFF2D
:10354000F0F0F0F0F0FFFFFF0000000000FFFF0FC1
:103550000F0F0F0F38444438447C2A2A3E147E0251
:10356000020606027E027E026355494163384444E6
:103570003C04407E201E2006027E020299A5E7A59B
:10358000991C2A492A1C4C7201724C304A4D4D300C
:103590003048784830BC625A463D3E494949007E31
:1035A0000101017E2A2A2A2A2A44445F44444051C8
:1035B0004A444040444A51400000FF0103E080FF7C
:1035C000000008086B6B083612362436060F090F08
:1035D00006000018180000001010003040FF010124
:1035E000001F01011E00191D1712003C3C3C3C004D
:1035F00000000000080B00020202010009040000A4
:10360000010202000005240010010524010101044B
:103610002402060524060001070581031000400965
:10362000040100020A000000070502024000000732
:103630000583024000000403090412010002EF02A6
:10364000014041233680000101020301417264758B
:10365000696E6F204C4C430041726475696E6F2037
:103660004C656F6E6172646F0000262B11241FBEC3
:10367000CFEFDAE0DEBFCDBF11E0A0E0B1E0E2ECD9
:10368000F7E502C005900D92A234B107D9F727E003
:10369000A2E4B1E001C01D92AD3DB207E1F71BE12C
:1036A000C6E3DBE104C02197FE010E94D42BC533A1
:1036B000D107C9F70E949B260C94DF2B0C940000C5
:1036C000FC0180914E03811103C08FEF9FEF08959D
:1036D0009FB7F89482E08093E9002091F20030E0F7
:1036E0001216130614F421E030E02115310559F0CB
:1036F000289884E680934D038091F1008083809127
:10370000F200882319F09FBFC90108958BE68093CA
:10371000E800F9CF2FB7F89483E08093E900909107
:10372000E800892F807295FF04C09091F20080E438
:10373000891B2FBF0895CF93DF931F92CDB7DEB7BC
:103740006983DC01ED91FC910280F381E02D41E081
:1037500050E0BE016F5F7F4F09950F90DF91CF91D1
:10376000089583E08093E9008091F200882319F0A6
:103770008AE38093E80008950E948A1B90E00895F0
:10378000CF93DF931F92CDB7DEB7FC01848595857B
:1037900097FD05C02FEF3FEF358724870BC0CE0183
:1037A00001960E94601B019719F4898190E002C084
:1037B0008FEF9FEF0F90DF91CF9108950F931F939D
:1037C000CF93DF931F92CDB7DEB78C01FC018485C8
:1037D000958597FF0EC0CE0101960E94601B019750
:1037E00019F4298130E002C02FEF3FEFF80135874F
:1037F0002487F801848595850F90DF91CF911F91E3
:103800000F910895FC018485958597FD0BC09FB7A6
:10381000F89482E08093E9008091F2009FBF90E0ED
:10382000019608959FB7F89482E08093E900809113
:10383000F2009FBF90E008958F929F92AF92BF9247
:10384000CF92DF92EF92FF920F931F93CF93DF936C
:103850005C016B017A0180910A01882309F45BC045
:1038600080914E03882309F456C080914C0380FF59
:1038700005C08091E00082608093E000E70110E0E5
:103880000AEF83E0882E9AE3992E2097D9F10E94BF
:103890008A1B81110AC0015009F43DC061E070E04B
:1038A00080E090E00E940B20F0CF282F30E0C2177C
:1038B000D3070CF48C2F4FB7F8948092E9009091C5
:1038C000E80095FF1DC0282F30E0C21BD30BF60186
:1038D000982F915020F081918093F100FACFC20E81
:1038E000D31E112319F09092E80009C08091E800DE
:1038F00085FD06C09092E80011E0209709F010E0E5
:103900004FBFC3CF1111C3CF5D9884E680936D077D
:103910001E141F0444F081E090E0F501938382833C
:1039200080E090E001C0C701DF91CF911F910F911E
:10393000FF90EF90DF90CF90BF90AF909F908F90CF
:1039400008952F923F924F925F926F927F928F9243
:103950009F92AF92BF92CF92DF92EF92FF920F931E
:103960001F93CF93DF9300D000D01F92CDB7DEB767
:10397000C22ED12C9C012C0D3D1D37FD64C080381A
:1039800091050CF060C010E09B01200F311F37FD46
:103990005AC0603471050CF056C03E2D3A012B011F
:1039A0001C01C6010796AC0193E0559547959A9581
:1039B000E1F75A834983A12CB12CE12CF12CE016BC
:1039C000F1060CF040C01D821C824701840C951C3E
:1039D0004C815D814C155D0574F5EC81FD8183E0C2
:1039E000F595E7958A95E1F7EA0DFB1DE60DF71DC4
:1039F000E491F0E08C819D818770992740E850E048
:103A000002C0559547958A95E2F7E423F523EF2BFD
:103A100061F0232FA4016C817D81620D731D83E50C
:103A200097E03B830E94D0203B818C819D81019651
:103A30009D838C83CDCF5FEFE51AF50A89819A814A
:103A4000A80EB91EBCCF0F900F900F900F900F9043
:103A5000DF91CF911F910F91FF90EF90DF90CF906A
:103A6000BF90AF909F908F907F906F905F904F909E
:103A70003F902F9008958F929F92AF92BF92CF92D6
:103A8000DF92EF92FF920F93CF93DF936B01EC01E4
:103A90004C01840E911C5B01A20EB11CC815D90506
:103AA000ECF47601D7FE10C0E12CF12C0DC0E81625
:103AB000F90694F4202FA701BE0183E597E00E9448
:103AC000D0202FEFE21AF20AC50121E4A216B104B8
:103AD00074F380E490E0EBCF2196E0CFDF91CF91BB
:103AE0000F91FF90EF90DF90CF90BF90AF909F909D
:103AF0008F9008954F925F926F927F928F929F92D4
:103B0000AF92BF92CF92DF92EF92FF920F931F93EB
:103B1000CF93DF93EC017B016A01C901A901461B28
:103B2000570B57FF03C051954195510996012C1B26
:103B30003D0B37FF03C031952195310911E0241762
:103B4000350714F010E00AC03C2D2D2D6C01832F99
:103B5000922F3C2F2D2FE701E32EF22ECC16DD06FF
:103B600054F43E2D2F2D7C01832F922F3C2F2D2F8F
:103B7000E601C32ED22E26014C1A5D0A4C018E1886
:103B80009F0897FE03C0919481949108520157FEBB
:103B900003C02FEFA21AB20AB594A794E816F9064B
:103BA00014F08FEF01C081E0682E880F7708CC16E3
:103BB000DD06B4F0202F112319F0AE01B70102C0C9
:103BC000A701BE0183E597E00E94D020A818B9089C
:103BD000B7FE04C0E60CF71CA40CB51C2196E7CF79
:103BE000DF91CF911F910F91FF90EF90DF90CF90D9
:103BF000BF90AF909F908F907F906F905F904F900D
:103C0000089580E0EFE4F3E081118FEF00248193C9
:103C10008193819381930394D1F7EFE4F7E0118EC0
:103C2000108E178A168A0895009769F0FC0101909A
:103C30000020E9F73197AF01481B590BBC018FE415
:103C400097E00C94441F80E090E008950F931F9339
:103C5000CF93DF938C01C0E0D0E0F801EC0FFD1FA3
:103C60006491662371F0E0914F07F0915007019045
:103C7000F081E02D8FE497E00995892B11F02196D2
:103C8000ECCFCE01DF91CF911F910F9108958F92CC
:103C90009F92AF92BF920F931F93CF93DF93CDB7B5
:103CA000DEB7A1970FB6F894DEBF0FBECDBF19A245
:103CB000423008F44AE08E010F5D1F4F842E912C94
:103CC000A12CB12CA50194010E94B22BE62FB901C1
:103CD000CA0101501109EA3014F4E05D01C0E95C49
:103CE000D801EC93232B242B252B61F7C8010E94CC
:103CF000141EA1960FB6F894DEBF0FBECDBFDF91A4
:103D0000CF911F910F91BF90AF909F908F9008958A
:103D1000CF92DF92EF92FF92CF93DF936C01990FD6
:103D2000EE08FF08F7FE1FC0E0914F07F091500723
:103D30000190F081E02D6DE28FE497E00995EC01B0
:103D400066277727CB016C197D098E099F094AE008
:103D50000E94471E8C0F9D1FDF91CF91FF90EF9027
:103D6000DF90CF9008954AE0C701B601DF91CF916F
:103D7000FF90EF90DF90CF900C94471E80917207D8
:103D800081110DC082E080936E0784E080936F07FD
:103D9000109271071092700781E0809372078EE68F
:103DA00097E008951F920F920FB60F9211248F93F0
:103DB0009F938091E1009091E100937F9093E100C7
:103DC00083FF0FC01092E90091E09093EB001092F6
:103DD000EC0092E39093ED0010924E0398E09093E4
:103DE000F00082FF20C093E09093E9009091F200F0
:103DF000992319F09AE39093E80090916D07992325
:103E000039F090916D07915090936D07992389F146
:103E100090914D03992339F090914D0391509093D7
:103E20004D03992341F184FF10C08091E2008E7E02
:103E300081608093E2008091E1008F7E8093E100B9
:103E400080914C038E7E806111C080FF16C08091EE
:103E5000E2008E7E80618093E2008091E1008E7EA0
:103E60008093E10080914C038E7E816080934C03AF
:103E700004C05D9ACDCF289AD6CF9F918F910F9095
:103E80000FBE0F901F901895CF92DF92EF92FF9286
:103E90000F931F93CF93DF936C017A018B01C0E0E6
:103EA000D0E0CE15DF0589F0D8016D918D01D601E6
:103EB000ED91FC910190F081E02DC6010995892BCF
:103EC00011F47E0102C02196ECCFC701DF91CF91A2
:103ED0001F910F91FF90EF90DF90CF9008953FB723
:103EE000F8948091D3079091D407A091D507B09111
:103EF000D60726B5A89B05C02F3F19F00196A11D36
:103F0000B11D3FBFBA2FA92F982F8827820F911D6F
:103F1000A11DB11DBC01CD0142E0660F771F881FB6
:103F2000991F4A95D1F708950895089580E090E08B
:103F300008950E94DA2BAF92BF92CF92DF92EF9258
:103F4000FF920F93CF93DF93C091CD07D0E06E0126
:103F500080E1C80ED11CE090CC07F12C570180E124
:103F6000A80EB11C259685E0E80EF11C01E0960133
:103F7000A501BE01C7010E947A1D9601A701BE01DD
:103F8000C5010E947A1DDF91CF910F91FF90EF90B4
:103F9000DF90CF90BF90AF900895EF92FF920F9374
:103FA000CF93DF936091CD07E62EF12C8091CC0763
:103FB000C82FD0E0B7016250710900E021E140E173
:103FC000CE0101970E943B1D20910201B70166506E
:103FD0007109CE010697EE24E39406E1211104C095
:103FE00026E14AEA50E30FC0213021F426E148E6F9
:103FF00050E309C0223021F426E146E250E303C039
:1040000026E144EE5FE20E94A11CDF91CF910F9167
:10401000FF90EF9008958F929F92AF92BF92CF92B0
:10402000DF92EF92FF926B017C010E946F1F4B01A8
:104030005C01C114D104E104F104F1F00E946F1F8E
:10404000DC01CB0188199909AA09BB09883E934074
:10405000A105B10570F321E0C21AD108E108F10809
:1040600088EE880E83E0981EA11CB11CC114D104F7
:10407000E104F10419F7DDCFFF90EF90DF90CF90CE
:10408000BF90AF909F908F9008951F920F920FB6A0
:104090000F9211242F933F938F939F93AF93BF93CE
:1040A0008091CF079091D007A091D107B091D2070E
:1040B0003091CE0723E0230F2D3720F40196A11D68
:1040C000B11D05C026E8230F0296A11DB11D209346
:1040D000CE078093CF079093D007A093D107B093DA
:1040E000D2078091D3079091D407A091D507B091C2
:1040F000D6070196A11DB11D8093D3079093D407D5
:10410000A093D507B093D607BF91AF919F918F91A0
:104110003F912F910F900FBE0F901F901895BC01EB
:1041200080E090E00C940B208FB12CB193B130E083
:104130002095309520743327A90123E055954795A4
:104140002A95E1F7292F30E020953095207133270B
:104150003595279535952795242B8095807F822B43
:104160000895811102C086EA01C087EA5C988EBD7D
:1041700000000DB407FEFDCF5C9A089580914F03B7
:104180008EBDE0E5F3E081910DB407FEFDCF8EBD5D
:1041900087E0EF34F807B9F70DB407FEFDCF0895B7
:1041A00060387105D0F440345105B8F4ECEEF0E31A
:1041B00080E1849FD001A0781124A60F4770E40FFE
:1041C000F11D8491A15BBC4F222319F06C91862BC9
:1041D00003C080956C9186238C9308952F923F9213
:1041E0004F925F926F927F928F929F92AF92BF9207
:1041F000CF92DF92EF92FF920F931F93CF93DF93B3
:10420000CDB7DEB729970FB6F894DEBF0FBECDBF8E
:10421000FC016A3069F4248D808D918D38E0239FF4
:10422000800D911D1124918F808F178A168AAAC044
:104230006D3009F4A7C099878887F48C338C228C61
:10424000608C718C0689178900381105C4F0A88527
:10425000B9855C962C915C97422F50E056968D91D3
:104260009C915797B6E02B9F800D911D1124E885F6
:10427000F985978B868B258D21116EC083C0F0E464
:104280006F16710424F7C80125E0F29E800D911D80
:10429000112418161906DCF68F2D90E09C838B8371
:1042A000C301A8E0FA9E800D911D1124181619066D
:1042B00074F6B5E06B9FB0011124FB01EC50FF4C8C
:1042C000FA83E98330E08885998504969E838D83FF
:1042D000E981FA81E490353009F4E12C430188E06A
:1042E000482EE0FC02C0532C01C0522C51100BC0D0
:1042F000321009C0E6944A948B819C81880E991EE5
:104300004110EFCF1BC068018C2D801B8F1590F7DB
:1043100054018A2D88198F1568F4252DA501B60141
:104320008D819E813F830E94D0209FEFA91AB90AF8
:104330003F81EFCFAFEFCA1ADA0AE6CF3F5FEB81DA
:10434000FC810E0F1F1F89819A8101969A838983B0
:10435000363009F0BDCF7BCF6AEF64039001659FD3
:10436000300D112420583F4F281739075CF4A885D9
:10437000B985ED91FC9111970190F081E02D6AE0F3
:10438000CD01099581E090E029960FB6F894DEBF43
:104390000FBECDBFDF91CF911F910F91FF90EF9096
:1043A000DF90CF90BF90AF909F908F907F906F9055
:1043B0005F904F903F902F9008950C94A42B4F92B4
:1043C0005F926F927F928F929F92AF92BF92CF92A5
:1043D000DF92EF92FF920F931F93CF93DF93CDB7AE
:1043E000DEB728970FB6F894DEBF0FBECDBF209181
:1043F00046038091450365E471E0A1E030E040E0D0
:1044000050E090E0FB01E40FF51F0190F081E02DFA
:10441000E330F10531F0E630F10529F0329729F467
:1044200002C0A0E002C0832F292F9F5F405E5F4F34
:10443000903141F73F5F6E5F7F4F303101F720933E
:10444000460380934503A093420130E0A901445004
:1044500051095A8349832B5F3F4F3C832B8390E064
:104460009C01225031093E832D83039698878F83C8
:1044700057FF07C081EF489F402D11244093CB0781
:1044800002C01092CB0737FF07C081EF289F202D75
:1044900011242093CA0702C01092CA074090CB078C
:1044A0004092CC078091CA078093CD07FE013196D8
:1044B0009E01275F3F4F4FE050E08081918197FF41
:1044C00003C01182108204C0409714F051834083CE
:1044D0003296E217F30789F71D81A12EB12C8F8147
:1044E00098858A159B050CF4A3C05980852D90E012
:1044F0002B813C81281739070CF491C0FC0184E022
:10450000EE0FFF1F8A95E1F7EA0DFB1DEE0FFF1F6F
:10451000EB5BFE4F808191818330910509F445C0AA
:104520003CF48130910581F0029709F46FC070C0AE
:104530008530910509F45BC00CF456C0069709F06C
:1045400067C00E949B1F62C0C090CD07D12C36016E
:1045500086E0681A7108E090CC07F12C470186E0EC
:10456000881A910800E020E140E1B301C4010E94F3
:104570003B1D9601225F3F4FB601665F7F4FA7014B
:10458000C7010E947A1DA701425F5F4F9601B601E5
:10459000C7010A960E947A1DEE24E39406E126E103
:1045A00042EA5FE2B301C4011CC0C090CD07D12C28
:1045B00086E0C81AD1088091CC0790E0E12C06E192
:1045C00026E140E65FE2B60106970E94A11C8091B9
:1045D000CC0790E0EE24E39426E14EE15FE2B601E1
:1045E00006970E94A11C14C00E949B1F11C06091DD
:1045F000CD0770E0665071098091CC0790E0EE2401
:10460000E39406E126E140E65FE2EACF0E94CD1F97
:104610008091CC07815F8093CC07539467CF409201
:10462000CC078091CD07815F8093CD071F5F55CF69
:1046300028960FB6F894DEBF0FBECDBFDF91CF91A5
:104640001F910F91FF90EF90DF90CF90BF90AF90B0
:104650009F908F907F906F905F904F900895EF9212
:10466000FF920F931F93CF93DF9310924401109208
:104670004301C5E4D1E02091010130E0322F22272F
:1046800060E070E0A0E0B0E040E050E0CB01820FDD
:10469000931F9A95FC01E40FF51FE25EFA4FE49137
:1046A0008E010A0F1B1FEE2EF12CF801F182E08221
:1046B0004F5F5F4F90964031510561F7605F7F4FCC
:1046C00022966115F1E07F07E9F6DF91CF911F9106
:1046D0000F91FF90EF9008950E94011E0E94DF212C
:1046E00083E597E00C94BE2081E080934B0380919A
:1046F000450390914603E0914903F0914A03E90F85
:10470000F11D94E0EE0FFF1F9A95E1F7E80FF11D00
:104710008091470390914803E80FF91FEE0FFF1FA8
:10472000EB5BFE4F808191810197029710F410920C
:104730004B0308954091DB075091DC072091D90786
:104740003091DA0742175307B4F49091E80095705E
:10475000E1F39091E80092FD19C08093F1008091FF
:10476000DB079091DC0701968F739927892B19F449
:104770008EEF8093E8008091DB079091DC07019633
:104780009093DC078093DB0781E0089580E0089533
:10479000CF92DF92EF92FF920F931F93CF93DF930D
:1047A0001F92CDB7DEB7182F062FE42E862F880F65
:1047B0008E5F99830E949A2383E00E949A23F12EB0
:1047C000C12E9981D92E8C2D8F19801798F4F6015E
:1047D000E7FE02C0849101C080810E949A23182FB5
:1047E00080E00E949A238123FFEFCF1ADF0A811114
:1047F000EACF01C081E00F90DF91CF911F910F911F
:10480000FF90EF90DF90CF900895DF92EF92FF92AC
:104810000F931F93CF93DF93D82E8A017B01E40E71
:10482000F51EEB01CE15DF0571F0D7FE03C0FE01CA
:10483000849101C088810E949A2321968111F2CF30
:104840008FEF9FEF01C0C801DF91CF911F910F91B2
:10485000FF90EF90DF900895615030F02091F100CB
:10486000FC0120830196F8CF289884E680934D03BD
:1048700008950F931F93CF93DF931F92CDB7DEB7A9
:1048800082E0898342E450E064EF75E380E80E94AF
:1048900005240E94BE1EDC0112960D911C911397F7
:1048A0000115110569F0D801ED91FC910280F381A9
:1048B000E02DBE016F5F7F4FC801099597FF07C0CC
:1048C00089810F90DF91CF911F910F910895F80189
:1048D00000851185E5CF1F920F920FB60F9211241C
:1048E000CF92DF92EF92FF920F931F932F933F93FC
:1048F0004F935F936F937F938F939F93AF93BF93E8
:10490000EF93FF93CF93DF93CDB7DEB76C97DEBF06
:10491000CDBF1092E9008091E80083FFEDC168E00F
:10492000CE0145960E942C2482EF8093E8008D8969
:1049300087FF05C09091E80090FFFCCF03C09EEF79
:104940009093E800982F907609F0C6C09E892F8931
:10495000188D91110CC0803829F48091D80780936C
:10496000F10002C01092F1001092F10048C1422FF4
:1049700050E0512B913051F4811141C1413051052A
:1049800009F03DC18091D8078D7F0BC0933061F451
:10499000811135C14130510509F031C18091D807ED
:1049A00082608093D8072BC1953041F48091E80054
:1049B00080FFFCCF20682093E30021C1963009F0EE
:1049C0005FC0EB8CFC8C1092E9001092DC07109217
:1049D000DB07123091F51092DA071092D9070E9486
:1049E000392499E0BE016F5F7F4FDB01E92F1D92F3
:1049F000EA95E9F799831A8391E09E8390EA988774
:104A00009AEF99872091DB073091DC07275F3F4FB2
:104A10003C832B838D831092E9001092DC07109267
:104A2000DB07F092DA07E092D90749E050E080E036
:104A30000E9405240E943924E2C0F092DA07E09235
:104A4000D9070E94BE1EDC011296ED90FC901397D0
:104A5000E114F10409F4C0C0D701ED91FC91048088
:104A6000F581E02DBE016B5E7F4FC7010995009770
:104A700019F00CF0C4C0C7C0F701E084F184E8CF9E
:104A8000973009F4C0C0983021F481E08093F100A0
:104A9000B6C0993009F0B3C0837009F0B4C0E6E342
:104AA000F1E081E021E036E39081992361F0809389
:104AB000E9002093EB0091919093EC003093ED008E
:104AC0008F5F873089F78EE78093EA001092EA00C3
:104AD0008F8980934E0393C08B8D9C8D1092E9003B
:104AE0001092DC071092DB079093DA078093D907C6
:104AF000898D811156C08E899D89913A59F48132F0
:104B000009F081C047E050E063E071E080E00E947E
:104B1000052475C0913209F076C0833289F4888DFE
:104B200090E0982F88272F89822BA0E0B0E0809317
:104B30000B0190930C01A0930D01B0930E015FC087
:104B4000803269F48091E80082FFFCCF67E083E067
:104B500091E00E942C248BEF8093E80006C0823203
:104B600009F04DC08F8980930A018091D70788236F
:104B700019F0EEEFFAE002C0E0E0F8E08091030106
:104B800090910401A0910501B0910601803B9440F1
:104B9000A105B10509F07BC080910A0180FF93C097
:104BA00076C00E94BE1EDC0112960D911C911397D7
:104BB0000115110541F1D801ED91FC910190F081B1
:104BC000E02DBE016B5E7F4FC8010995811117C0B2
:104BD000F80100851185ECCF113009F44EC0133077
:104BE00091F48F89882309F445C0823081F440E82C
:104BF00060E188E596E30E94C823882321F08EEFC8
:104C00008093E80079C081E28093EB0075C0813029
:104C100029F440E86BE08CE496E3EDCF833099F71C
:104C20000E94BE1EDC011296ED90FC9013978E013F
:104C30000F5F1F4F6801E114F10479F0D701ED9186
:104C4000FC910680F781E02DB801C7010995080F96
:104C5000111DF701E084F184EECFD8011C92F6011A
:104C600001900020E9F73197BF016C197D0940E000
:104C7000C601C1CF66E376E302C06AE376E361155D
:104C8000710509F2FB01449150E080E840CF0FB676
:104C9000F894A895809160008861809360001092DC
:104CA00060000FBEA895EE3F2AE0F20739F0809130
:104CB000FE0A9091FF0A91838083A1CF1092FF0A90
:104CC0001092FE0A9CCFEE3F8AE0F80731F0808117
:104CD00091819093FF0A8093FE0A87E797E791837B
:104CE00080839BE088E10FB6F894A89580936000DC
:104CF0000FBE9093600083CF6C960FB6F894DEBF22
:104D00000FBECDBFDF91CF91FF91EF91BF91AF91DA
:104D10009F918F917F916F915F914F913F912F91D3
:104D20001F910F91FF90EF90DF90CF900F900FBEEB
:104D30000F901F901895789484B5826084BD84B5D7
:104D4000816084BD85B5826085BD85B5816085BD86
:104D500080916E00816080936E001092810080913E
:104D600081008260809381008091810081608093C6
:104D7000810080918000816080938000809191000B
:104D80008260809391008091910081608093910076
:104D9000809190008160809390008091C100846038
:104DA0008093C1008091C10082608093C100809196
:104DB000C10081608093C1008091C30081608093B5
:104DC000C3008091C00082608093C0008091C200C7
:104DD00081608093C20080917A00846080937A0021
:104DE00080917A00826080937A0080917A0081605D
:104DF00080937A0080917A00806880937A00109284
:104E00004E031092D80710924C038091D700816016
:104E10008093D70080EA8093D80089B5806189BDEE
:104E200089B5826089BD09B400FEFDCF61E070E004
:104E300080E090E00E940B208091D8008F7C806100
:104E40008093D8008091E000807F8093E000809183
:104E5000E1008E7E8093E1008DE08093E200559A20
:104E6000209AEEEFFFE7859194918B3F9C4D19F4CA
:104E700081E08093D70781EC80937C0085B1806FBF
:104E800085B9249884B1866E84B95E9A5F988AB198
:104E9000806D8AB9769A6E9881B3806F81BB89984C
:104EA00080B38D7080BB80E58CBD81E08DBD85E0D9
:104EB00090E00E948F205F9A85E090E00E948F2012
:104EC0005E985C98ECEAF0E08DE08E0F94919EBDC8
:104ED00000000DB407FEFDCF31968E13F7CF5C9A1C
:104EE00081E88093640081E08093650080910001F7
:104EF0000E94B120EE24E39400E420E843EF50E068
:104F000060E070E080E090E00E94A11C82E090E010
:104F1000909366078093650790936807809367076F
:104F200084EE90E00E94261E83E597E00E94BE205A
:104F3000C0E000E010E0C8010E949C2BC80F0F5F8A
:104F40001F4F07301105B9F7CD3E09F46FC00E941D
:104F5000011E8EEC90E00E94261E8CE391E00E94E0
:104F6000141E6C2F70E080E090E04AE00E94471E23
:104F70008FE391E00E94141E4AE06DEE70E080E045
:104F800090E00E94471E8CE391E00E94141E83E58E
:104F900097E00E94BE20C0E0D0E060E0CE010E9419
:104FA000DD212196C11544E0D407B9F763E780E01D
:104FB00090E00E94DD216FE681E090E00E94DD211B
:104FC0006BE682E090E00E94DD216FE683E090E0F6
:104FD0000E94DD2162E684E090E00E94DD2161E62E
:104FE00085E090E00E94DD216EE686E090E00E9480
:104FF000DD2110E0C0E0D0E0CE010E949C2B180F14
:105000002196C730D105C1F7112321F0E0E0F0E08F
:10501000099508C089EB90E00E94261E8CE391E080
:105020000E94141E83E597E00E94BE206CED75E09F
:1050300080E090E00E940B200E942F230E946C23AE
:1050400078E2A72EB12C83E593E0E8E77E2E780E78
:10505000F0E64F2E512CA8E08A2E912CB0E1EB2ED9
:10506000F12C83ED96E068E7662E680E10924B03F4
:105070000E94942082FF04C00E942F230E946C2370
:105080000E94942083FF97C050E3C52ED12C0E942C
:10509000942083FF88C00E94011E0E94DF2101E04E
:1050A00020E848E260E070E088E590E00E943B1D67
:1050B0001092690711E010936A07509266074092B8
:1050C000650790926807809267078AEF94E00E94D4
:1050D000261E5092660740926507F0926807E0929C
:1050E00067076091010170E080E090E04AE00E9473
:1050F000471E88EF94E00E94261E4AE06AE270E0B4
:1051000080E090E00E94471E50926607409265073B
:10511000B0926807A092670783EF94E00E94261E72
:105120005092660740926507D0926807C092670761
:1051300080914301909144010E94881E1093690759
:1051400010926A070E94942087FF09C08091010194
:105150008A3218F48F5F809301010E942F230E94EE
:10516000942084FF09C080910101823018F08150A1
:10517000809301010E942F230E94942085FF0EC07E
:105180009091000181E08927809300010E94B12065
:1051900062E370E080E090E00E940B2083E597E0FE
:1051A0000E94BE2074CF0E94011E0E94DF2183E571
:1051B00097E00E94BE200E94942087FF09C01092B1
:1051C000020110924A03109249038FEF9FEF0DC026
:1051D0000E94942084FF0EC081E08093020110920F
:1051E0004A031092490381E090E090934803809332
:1051F00047031BC00E94942085FF06C082E0809375
:1052000002018FEF9FEF09C00E94942086FF0FC01C
:1052100083E08093020181E090E090934A038093C1
:10522000490310924803109247030E94742380910F
:105230004B03882309F438C140914603809145030C
:1052400090E0242F30E0FC0150E1459FE00DF11D7E
:105250001124EE0FFF1FEB5BFE4F40815181423066
:10526000510509F07CC06091490370914A03260FF3
:10527000371F0091470310914803EC01C00FD11F65
:10528000D90184E0AA0FBB1F8A95E1F7AC0FBD1FBF
:10529000AA0FBB1FAB5BBE4FCD90DC901197C11422
:1052A000D10409F44FC084E0C816D10439F486E073
:1052B00090E08D939C9311821082E5C085E0C81622
:1052C000D10419F5260F371FCE01800F911F44E03E
:1052D000220F331F4A95E1F7820F931F880F991F02
:1052E0008B5B9E4FEC01288139812115310529F412
:1052F00023E030E039832883DACF2430310509F008
:10530000CBC0EC01D982C882D2CF83E0C816D104C9
:1053100009F0C2C0260F371FCE01800F911F14E085
:10532000220F331F1A95E1F7820F931F880F991FE1
:105330008B5B9E4FEC01288139812115310529F4C1
:10534000D982C8824D935C93B6CF2430310509F0E1
:10535000A3C025E030E0EC0139832883F3CF463049
:10536000510509F099C06091490370914A03260FD5
:10537000371F0091470310914803800F911FD901F7
:10538000C4E0AA0FBB1FCA95E1F7A80FB91FAA0F67
:10539000BB1FAB5BBE4FCD90DC901197C114D10405
:1053A00009F45CC0D4E0CD16D10429F44D935C938C
:1053B000D182C08268C0C5E0CC16D104A9F5260F01
:1053C000371F800F911F64E0220F331F6A95E1F7AA
:1053D000820F931F880F991F8B5B9E4FEC01688192
:1053E000798120914301309144016115710559F48F
:1053F00063E070E0798368834D935C9384E090E090
:10540000918380830AC064307105E9F5EC01D9828B
:10541000C8824D935C93718360832F5F3F4F3093BD
:105420004401209343012FC0D3E0CD16D104A1F550
:10543000260F371F800F911F44E0220F331F4A951C
:10544000E1F7280F391F220F331F2B5B3E4FE90175
:1054500088819981009749F4D982C88282E090E0DE
:105460008D939C9384E090E00CC084309105A1F46E
:1054700045E050E0E9015983488322E030E02D9374
:105480003C939183808380914301909144010196E4
:1054900090934401809343010E946C2362E370E087
:1054A00080E090E00E940B2080914201882309F463
:1054B000BFC00091010110E00A5F1F4FC8010E94A8
:1054C0009C2B6091430170914401282F30E06217BA
:1054D00073070CF4B5C0882309F4B2C0D12C0E9424
:1054E000011EE3E5F3E07E1621F080818061819367
:1054F000FACFE3EDF6E06E1621F0808188608193AB
:10550000FACF04E010E021E0A80164E070E083E558
:1055100097E00E94D0200F5F1F4F0C33110599F7C1
:1055200004E010E021E0A8016BE770E083E597E07C
:105530000E94D0200F5F1F4F0C33110599F700E038
:1055400024E030E04CE450E064E070E08CE290E075
:105550000E947A1D84E390E090936607809365072C
:1055600082E090E090936807809367078AE195E076
:105570000E94261E00E210E0109366070093650764
:10558000F0926807E092670784E195E00E94261E8A
:1055900080914301909144010E94881E10936607F8
:1055A0000093650788E190E0909368078093670710
:1055B0008BE095E00E94261E8091010190E0069606
:1055C0000E949C2B682F70E080E090E04AE00E94EF
:1055D000471EDD2061F01093660700936507B092C7
:1055E0006807A092670780E095E00E94261E83E589
:1055F00097E00E94BE200E94942083FFFCCF809100
:1056000001018A3210F48F5F01C081E080930101B3
:105610000E942F230E94011E0E94DF2183E597E054
:105620000E94BE2062E370E080E090E00E940B20C8
:1056300080E090E0892B09F419CD0E94000011CD83
:10564000C8010E94DD21DD24D39449CFEAE7F7E0C9
:105650001382128288EE93E0A0E0B0E08483958309
:10566000A683B78383E191E0918380838FEF9FEFDF
:1056700095878487EFE4F7E0138212821186128601
:1056800020E1238790878783108A118A128A138AE0
:10569000148A85E291E09183808383E391E095838E
:1056A0008483178A168A118E108E81E0828F138E62
:1056B000848F158E08950F931F93CF93DF93EC0182
:1056C00081E090E00E949C2B80FF2EC08AE090E059
:1056D0000E949C2B9FEF980F9E3F30F522E330E015
:1056E0003F8B2E8B28E330E0398F288F0BE010E0C2
:1056F000E881F9810190F081E02D682FCE010995B4
:10570000C8010E949C2B0F5F1F4F0131110581F7CB
:10571000CE0104960E94BE2088EE93E0DF91CF91E7
:105720001F910F910C948F20DF91CF911F910F91BA
:10573000089504970C945B2BF999FECF92BD81BD1F
:10574000F89A992780B50895262FF999FECF1FBAA8
:1057500092BD81BD20BD0FB6F894FA9AF99A0FBE9A
:1057600001960895A1E21A2EAA1BBB1BFD010DC0D4
:10577000AA1FBB1FEE1FFF1FA217B307E407F50701
:1057800020F0A21BB30BE40BF50B661F771F881FDD
:10579000991F1A9469F760957095809590959B0173
:1057A000AC01BD01CF010895EE0FFF1F0590F491EC
:1057B000E02D099481E090E0F8940C94DF2BF894AC
:0257C000FFCF19
:1057C20001010100E1000000000000FFFFFFFF00F7
:1057D2000000009B1B1C1CBC1BB11B021CC01BDE5F
:1057E2001B00000000EE20441F961F951F5B2BFC40
:1057F200FF0000992B00C180810000000D0A0021EA
:025802003D0067
:00000001FF
