:100000000C942E160C9456160C9456160C945616E8
:100010000C9456160C9456160C9456160C945616B0
:100020000C9456160C9456160C94E7200C945921F7
:100030000C9456160C9456160C9456160C94561690
:100040000C9456160C9456160C9456160C94561680
:100050000C9456160C9456160C9456160C94E518DF
:100060000C9456160C9456160C9456160C94561660
:100070000C9456160C9456160C9456160C94561650
:100080000C9456160C9456160C9456160C94561640
:100090000C9456160C9456160C9456160C94561630
:1000A0000C9456160C9456160C9456165374657090
:1000B000007E004C6576656C004E455720524543E6
:1000C0004F524400486973746F727920005374650D
:1000D00070200057494E00000000000000000000A2
:1000E0000000000000000000000000000000000010
:1000F00000000000000000000001010100000000FD
:1001000000000000000000000001040100000000E9
:1001100000000000000000000001000101010100DA
:1001200000000000000000010101030003040100C1
:1001300000000000000000010400030201010100B2
:1001400000000000000000010101010301000000A7
:100150000000000000000000000001040100000099
:10016000000000000000000000000101010000008C
:10017000000000000000000000000000000000007F
:10018000000000000000000000000000000000006F
:10019000000000000000000000000000000000005F
:1001A000000000000000000000000000000000004F
:1001B000000000000000000000000000000000003F
:1001C000000000000000000000000000000000002F
:1001D000000000000000000101010101000000001A
:1001E000000000000000000100000001000000000D
:1001F00000000000000000010003000100010101F7
:1002000000000000000000010003020100010401E1
:1002100000000000000000010101030101010401D0
:1002200000000000000000000101000000000401C7
:1002300000000000000000000100000001000001BB
:1002400000000000000000000100000001010101A9
:100250000000000000000000010101010100000099
:10026000000000000000000000000000000000008E
:10027000000000000000000000000000000000007E
:10028000000000000000000000000000000000006E
:10029000000000000000000000000000000000005E
:1002A000000000000000000000000000000000004E
:1002B000000000000000000000000000000000003E
:1002C000000000000000000000000000000000002E
:1002D0000000000000000000010101010101010017
:1002E000000000000000000001000000000001010B
:1002F00001000000000000010103010101000000F5
:1003000001000000000000010000020300000300E3
:1003100001000000000000010004040100030001CE
:1003200001000000000000010104040100000001C0
:1003300000000000000000000101010101010101B5
:1003400000000000000000000000000000000000AD
:10035000000000000000000000000000000000009D
:10036000000000000000000000000000000000008D
:10037000000000000000000000000000000000007D
:10038000000000000000000000000000000000006D
:10039000000000000000000000000000000000005D
:1003A000000000000000000000000000000000004D
:1003B000000000000000000000000000000000003D
:1003C000000000000000000000000000000000002D
:1003D0000000000000000000010101010000000019
:1003E000000000000000000101000001000000000A
:1003F00000000000000000010000030100000000F8
:1004000000000000000000010100000101000000E8
:1004100000000000000000010103020001000000D4
:1004200000000000000000010403030001000000C0
:1004300000000000000000010404050401000000A9
:1004400000000000000000010101010101000000A6
:10045000000000000000000000000000000000009C
:10046000000000000000000000000000000000008C
:10047000000000000000000000000000000000007C
:10048000000000000000000000000000000000006C
:10049000000000000000000000000000000000005C
:1004A000000000000000000000000000000000004C
:1004B000000000000000000000000000000000003C
:1004C000000000000000000000000000000000002C
:1004D0000000000000000000010101010100000017
:1004E0000000000000000000010002010101000006
:1004F00000000000000000000100030000010000F7
:1005000000000000000000010101000100010100E5
:1005100000000000000000010401000100000100D3
:1005200000000000000000010403000001000100C1
:1005300000000000000000010400000003000100B2
:1005400000000000000000010101010101010100A3
:10055000000000000000000000000000000000009B
:10056000000000000000000000000000000000008B
:10057000000000000000000000000000000000007B
:10058000000000000000000000000000000000006B
:10059000000000000000000000000000000000005B
:1005A000000000000000000000000000000000004B
:1005B000000000000000000000000000000000003B
:1005C000000000000000000000000000000000002B
:1005D0000000000000000000000001010101010115
:1005E0000100000000000001010101000000000006
:1005F00001000000000000010000000401010100F2
:1006000001000000000000010001000100000000E6
:1006100001010000000000010001000300030104CB
:1006200000010000000000010001000005000001C1
:1006300000010000000000010004010300030001AC
:1006400000010000000000010100000000010001A5
:10065000000101010000000001000101010400008F
:100660000000020100000000010000000000010184
:100670000000000100000000010101010101010171
:100680000101010100000000000000000000000066
:10069000000000000000000000000000000000005A
:1006A000000000000000000000000000000000004A
:1006B000000000000000000000000000000000003A
:1006C000000000000000000000000000000000002A
:1006D000000000000000000000000000000000001A
:1006E000000000000000000000000000000000000A
:1006F00000000000000000000000000000000000FA
:1007000000000000000000000000000000000000E9
:1007100000000000000000000000000000000000D9
:1007200000000000000000000000000000000000C9
:1007300000000000000000000000000000000000B9
:1007400000000000000000000000000000000000A9
:100750000000000000000000000001010101010193
:100760000100000000000000000101000001000283
:100770000100000000000000000100000001030073
:100780000100000000000000000103000003000061
:100790000100000000000000000100030101000052
:1007A0000100000000000001010100030001000140
:1007B0000100000000000001040404040400000122
:1007C0000000000000000001010101010101010120
:1007D0000000000000000000000001010101010113
:1007E0000000000000000000010101000000000105
:1007F00000000000000000010104000301010001ED
:1008000001000000000000010404030003000002D6
:1008100001000000000000010404000300030001C7
:1008200001000000000000010101010101000001C0
:1008300000000000000000000000000001010101B4
:1008400000000000000000000000000000000000A8
:100850000000000000000000000000000000000098
:100860000000000000000000000000000000000088
:100870000000000000000000000000000000000078
:100880000000000000000000000000000000000068
:100890000000000000000000000000000000000058
:1008A0000000000000000000000000000000000048
:1008B0000000000000000000000000000000000038
:1008C0000000000000000000000000000000000028
:1008D0000000000000000000010101010101010110
:1008E0000100000000000000010000010100000004
:1008F00001000000000000000100000003000000F3
:1009000001000000000000000103000101010003DC
:1009100001000000000000000100010404040100C7
:1009200001000000000000010100010404040100B6
:1009300001010000000000010003000003000003AB
:1009400000010000000000010000000000010000A4
:10095000020100000000000101010101010101018B
:100960000101000000000000000000000000000085
:100970000000000000000000000000000000000077
:100980000000000000000000000000000000000067
:100990000000000000000000000000000000000057
:1009A0000000000000000000000000000000000047
:1009B0000000000000000000000000000000000037
:1009C0000000000000000000000000000000000027
:1009D0000000000000000000000101010101010011
:1009E0000000000000000000000100000000010005
:1009F00000000000000000010101030303000100EA
:100A000000000000000000010200030404000100D7
:100A100000000000000000010003040404010100C4
:100A200000000000000000010101010000010000C1
:100A300000000000000000000000010101010000B2
:100A400000000000000000000000000000000000A6
:100A50000000000000000000000000000000000096
:100A60000000000000000000000000000000000086
:100A70000000000000000000000000000000000076
:100A80000000000000000000000000000000000066
:100A90000000000000000000000000000000000056
:100AA0000000000000000000000000000000000046
:100AB0000000000000000000000000000000000036
:100AC0000000000000000000000000000000000026
:100AD0000000000000000000010101010000010110
:100AE00001010100000000010100000100000100FF
:100AF00000000100000000010003000101010103EA
:100B000000000100000000010000030404040400D0
:100B100003000100000000010100000000010002CC
:100B200000010100000000000101010101010101BB
:100B300001010000000000000000000000000000B3
:100B400000000000000000000000000000000000A5
:100B50000000000000000000000000000000000095
:100B60000000000000000000000000000000000085
:100B70000000000000000000000000000000000075
:100B80000000000000000000000000000000000065
:100B90000000000000000000000000000000000055
:100BA0000000000000000000000000000000000045
:100BB0000000000000000000000000000000000035
:100BC0000000000000000000000000000000000025
:100BD0000000000000000000000101010101000010
:100BE00000000000000000010101000002010000FF
:100BF00000000000000000010000030400010100EB
:100C000000000000000000010000040304000100D7
:100C100000000000000000010101000503000100C8
:100C200000000000000000000001000000010100C1
:100C300000000000000000000001010101010000AF
:100C400000000000000000000000000000000000A4
:100C50000000000000000000000000000000000094
:100C60000000000000000000000000000000000084
:100C70000000000000000000000000000000000074
:100C80000000000000000000000000000000000064
:100C90000000000000000000000000000000000054
:100CA0000000000000000000000000000000000044
:100CB0000000000000000000000000000000000034
:100CC0000000000000000000000000000000000024
:100CD0000000000000000000000101010100000010
:100CE00000000000000000000001040401000000FA
:100CF00000000000000000000101000401010000EC
:100D000000000000000000000100000304010000DA
:100D100000000000000000010100030000010100CC
:100D200000000000000000010000010303000100BA
:100D300000000000000000010000020000000100AF
:100D4000000000000000000101010101010101009B
:100D50000000000000000000000000000000000093
:100D60000000000000000000000000000000000083
:100D70000000000000000000000000000000000073
:100D80000000000000000000000000000000000063
:100D90000000000000000000000000000000000053
:100DA0000000000000000000000000000000000043
:100DB0000000000000000000000000000000000033
:100DC0000000000000000000000000000000000023
:100DD000000000000000000101010101010101000B
:100DE0000000000000000001000001000000010000
:100DF00000000000000000010003040403000100E3
:100E000000000000000000010203040500010100D1
:100E100000000000000000010003040403000100C2
:100E200000000000000000010000010000000100BF
:100E300000000000000000010101010101010100AA
:100E400000000000000000000000000000000000A2
:100E50000000000000000000000000000000000092
:100E60000000000000000000000000000000000082
:100E70000000000000000000000000000000000072
:100E80000000000000000000000000000000000062
:100E90000000000000000000000000000000000052
:100EA0000000000000000000000000000000000042
:100EB0000000000000000000000000000000000032
:100EC0000000000000000000000000000000000022
:100ED000000000000000000001010101010100000C
:100EE00000000000000000010100000000010100FE
:100EF00000000000000000010003000303000100E7
:100F000000000000000000010404040404040100C7
:100F100000000000000000010003030003000100C6
:100F200000000000000000010101000201010100B9
:100F300000000000000000000001010101000000AD
:100F400000000000000000000000000000000000A1
:100F50000000000000000000000000000000000091
:100F60000000000000000000000000000000000081
:100F70000000000000000000000000000000000071
:100F80000000000000000000000000000000000061
:100F90000000000000000000000000000000000051
:100FA0000000000000000000000000000000000041
:100FB0000000000000000000000000000000000031
:100FC0000000000000000000000000000000000021
:100FD000000000000000000000010101010101010A
:100FE00001000000000000000001000000000101FD
:100FF00001000000000000000001000300000000EC
:1010000001000000000000010101000300010100D7
:1010100001000000000000010404040003000000BF
:1010200001000000000000010404040301030001AA
:1010300001000000000000010101010001000300A7
:10104000010000000000000000000100000002009C
:101050000100000000000000000001010101010189
:10106000010000000000000000000000000000007F
:101070000000000000000000000000000000000070
:101080000000000000000000000000000000000060
:101090000000000000000000000000000000000050
:1010A0000000000000000000000000000000000040
:1010B0000000000000000000000000000000000030
:1010C0000000000000000000000000000000000020
:1010D000000000000000000101010101010000000A
:1010E00000000000000000010000000001000000FE
:1010F00000000000000000010003030301010000E4
:1011000000000000000000010000010404010101D2
:1011100000000000000000010100000404030001C1
:1011200000000000000000000100000200000001BB
:1011300000000000000000000101010101010101A7
:10114000000000000000000000000000000000009F
:10115000000000000000000000000000000000008F
:10116000000000000000000000000000000000007F
:10117000000000000000000000000000000000006F
:10118000000000000000000000000000000000005F
:10119000000000000000000000000000000000004F
:1011A000000000000000000000000000000000003F
:1011B000000000000000000000000000000000002F
:1011C000000000000000000000000000000000001F
:1011D0000000000000000000000101010101010108
:1011E00001000000000000000001000000010400F8
:1011F00001000000000000000101000003040404DD
:1012000001000000000000000100000300010504CF
:1012100001000000000000010100010103010001C4
:1012200001000000000000010000000300000300B6
:1012300001000000000000010000000100000000AB
:101240000100000000000001010101010101020094
:10125000010000000000000000000000000101018A
:10126000010000000000000000000000000000007D
:10127000000000000000000000000000000000006E
:10128000000000000000000000000000000000005E
:10129000000000000000000000000000000000004E
:1012A000000000000000000000000000000000003E
:1012B000000000000000000000000000000000002E
:1012C000000000000000000000000000000000001E
:1012D0000000000000000000010101010101010007
:1012E00000000000000000000105020404000100ED
:1012F00000000000000000010101040404030101DA
:1013000001000000000000010003000103000300D1
:1013100001000000000000010003000000010300C4
:1013200001000000000000010000000001000000BA
:1013300001000000000000010101010000000101A6
:101340000100000000000000000001010101010097
:10135000000000000000000000000000000000008D
:10136000000000000000000000000000000000007D
:10137000000000000000000000000000000000006D
:10138000000000000000000000000000000000005D
:10139000000000000000000000000000000000004D
:1013A000000000000000000000000000000000003D
:1013B000000000000000000000000000000000002D
:1013C000000000000000000000000000000000001D
:1013D0000000000000000001010101010101000006
:1013E00000000000000000010404030404010000E8
:1013F00000000000000000010404010404010000DA
:1014000000000000000000010003030300010000D1
:1014100000000000000000010000030000010000C7
:1014200000000000000000010003030300010000B1
:1014300000000000000000010000010200010000A7
:101440000000000000000001010101010101000095
:10145000000000000000000000000000000000008C
:10146000000000000000000000000000000000007C
:10147000000000000000000000000000000000006C
:10148000000000000000000000000000000000005C
:10149000000000000000000000000000000000004C
:1014A000000000000000000000000000000000003C
:1014B000000000000000000000000000000000002C
:1014C000000000000000000000000000000000001C
:1014D0000000000000000000000001010101010106
:1014E00000000000000000000000010004040401EE
:1014F00000000000000000010101010404040401D7
:1015000000000000000000010000010101030001D3
:1015100001010000000000010003000300000303BC
:1015200000010000000000010200030003000000B1
:1015300000010000000000010000000101010000A6
:101540000001000000000001010101010001010192
:101550000101000000000000000000000000000089
:10156000000000000000000000000000000000007B
:10157000000000000000000000000000000000006B
:10158000000000000000000000000000000000005B
:10159000000000000000000000000000000000004B
:1015A000000000000000000000000000000000003B
:1015B000000000000000000000000000000000002B
:1015C000000000000000000000000000000000001B
:1015D0000000000000000001010101010101010003
:1015E00000000000000000010000000000000100F9
:1015F00000000000000000010001030300000100E2
:1016000000000000000000010004040401000100CB
:1016100000000000000000010104040403000101B7
:1016200000000000000000000100010100030001B3
:1016300000000000000000000103000003000001A2
:101640000000000000000000010000010000020195
:101650000000000000000000010101010101010182
:10166000000000000000000000000000000000007A
:10167000000000000000000000000000000000006A
:10168000000000000000000000000000000000005A
:10169000000000000000000000000000000000004A
:1016A000000000000000000000000000000000003A
:1016B000000000000000000000000000000000002A
:1016C000000000000000000000000000000000001A
:1016D0000000000000000000000101010101000005
:1016E00000000000000000010101000000010101F4
:1016F00001000000000000010000000300000300E2
:1017000001000000000000010003000203000000CF
:1017100001000000000000010101030301010101BB
:1017200001000000000000000001000004040100AE
:101730000000000000000000000104040404010097
:101740000000000000000000000101010101010093
:101750000000000000000000000000000000000089
:101760000000000000000000000000000000000079
:101770000000000000000000000000000000000069
:101780000000000000000000000000000000000059
:101790000000000000000000000000000000000049
:1017A0000000000000000000000000000000000039
:1017B0000000000000000000000000000000000029
:1017C0000000000000000000000000000000000019
:1017D0000000000000000001010101010100000003
:1017E00001010101010000010000000001010100F0
:1017F00001000004010000010000030003000100DB
:1018000001040404010000010001000003000101C3
:1018100001000004010000010000030303000000B8
:1018200003000204010000010101000003000003A5
:10183000010000040100000000010000030103009A
:101840000104040401000000000101000000000088
:10185000010000040100000000000101010101017C
:101860000101010101000000000000000000000073
:101870000000000000000000000000000000000068
:101880000000000000000000000000000000000058
:101890000000000000000000000000000000000048
:1018A0000000000000000000000000000000000038
:1018B0000000000000000000000000000000000028
:1018C0000000000000000000000000000000000018
:1018D0000000000000000000010101010101010100
:1018E00001000000000000000100000001010000F4
:1018F00001010101000000000100030000000000E0
:1019000000000001000000000101030101010001CD
:1019100001000001000000000100000101000500BD
:10192000010001010000000001000304040404049C
:101930000400010000000001010001010100040099
:10194000010001000000000100000000000301018F
:101950000103010000000001000000010000000080
:101960000302010000000001010101010301000167
:101970000101010000000000000000010000000162
:101980000000000000000000000000010101010152
:101990000000000000000000000000000000000047
:1019A0000000000000000000000000000000000037
:1019B0000000000000000000000000000000000027
:1019C0000000000000000000000000000000000017
:1019D0000000000000000001000000000100010004
:1019E00001000000010000010000000001000100F2
:1019F00001000000010000010000000001010100E1
:101A000001000100010000010000000001000100D0
:101A100001000100010000010101010001000100BD
:101A200000010001000001000000000000000000B3
:101A300000000000000000000000000001010101A2
:101A4000010100010101000001010101000000008D
:101A50000001000000010000010000010000010180
:101A60000001000001000000010000030000000070
:101A70000001000100000000010000010000010061
:101A8000010100000000000101010001010301004B
:101A90000001010001010101000300000000030337
:101AA000000101000100010100010301000001002B
:101AB000000101000100010102000001010101011A
:101AC000010101000100010101010101000000000C
:101AD0000000010001010100000000000000000002
:101AE00000000000000000000000000000000000F6
:101AF00000000000000000000000000000000000E6
:101B000000000000000000000000000000000000D5
:101B100000000000000000000000000000010101C2
:101B200001010101010100000000000000010000AE
:101B300000000000000100000000000000010001A2
:101B40000001000100010000000000000001000091
:101B50000300030100010001010101010101000076
:101B60000003000000010001040401000001010065
:101B70000300030100010001040400000001010052
:101B80000300030000010001040401000001010042
:101B90000101010101010001040401000100030031
:101BA0000300010000000001040400000000000325
:101BB000000001000000000100000101010200001E
:101BC000010101000000000101010100010101010A
:101BD0000100000000000000000000010101010000
:101BE00000000000000000010101010100000100EF
:101BF00000000000000000010000030003000100DD
:101C000001010101010101010000000300000100C8
:101C100001050405040501010100030003000101A1
:101C20000104050405040100010300030000010094
:101C30000005040504050100010203000300000083
:101C40000004050405010100010300030000010078
:101C50000005040504050101010003000300010162
:101C60000104050405040101000000030000010057
:101C70000105040504050101000003000300010043
:101C80000101010101010101010101010000010047
:101C90000000000000000000000000010101010040
:101CA0000000000000000000000000000000000034
:101CB0000000000000000000000000000000000024
:101CC0000000000000000000000000000000000014
:101CD00000000000000000010101010101010100FC
:101CE00000000000000000010404040404040100DA
:101CF00000000000000000010000030001000101DD
:101D000000000000000000010003000100030001CA
:101D100000000000000000010103000300030001B7
:101D200000000000000000000100000200000001AF
:101D3000000000000000000001010101010101019B
:101D40000000000000000000000000000000000093
:101D50000000000000000000000000000000000083
:101D60000000000000000000000000000000000073
:101D70000000000000000000000000000000000063
:101D80000000000000000000000000000000000053
:101D90000000000000000000000000000000000043
:101DA0000000000000000000000000000000000033
:101DB0000000000000000000000000000000000023
:101DC0000000000000000000000000000000000013
:101DD00000000000000000000001010101010101FC
:101DE00001010100000000010101000000040302E4
:101DF00000000100000000010000000101030101DA
:101E000000000100000000010000000500040004C3
:101E100000010100000000010100030101030101B4
:101E200000010000000000000100000000040000AC
:101E30000001000000000000010101010101010199
:101E40000101000000000000000000000000000090
:101E50000000000000000000000000000000000082
:101E60000000000000000000000000000000000072
:101E70000000000000000000000000000000000062
:101E80000000000000000000000000000000000052
:101E90000000000000000000000000000000000042
:101EA0000000000000000000000000000000000032
:101EB0000000000000000000000000000000000022
:101EC0000000000000000000000000000000000012
:101ED00000000000000000000000010101010101FC
:101EE00000000000000000010101010400000001E9
:101EF00000000000000000010000030303000001D7
:101F000000000000000000010401010401010401BF
:101F100000000000000000010000000300000001BC
:101F200000000000000000010000030001000101AA
:101F3000000000000000000101010100000001009C
:101F4000000000000000000000000101010101008C
:101F50000000000000000000000000000000000081
:101F60000000000000000000000000000000000071
:101F70000000000000000000000000000000000061
:101F80000000000000000000000000000000000051
:101F90000000000000000000000000000000000041
:101FA0000000000000000000000000000000000031
:101FB0000000000000000000000000000000000021
:101FC0000000000000000000000000000000000011
:101FD00000000000000000010101010101010101F8
:101FE00001010101010101010101040100040001DD
:101FF00001000001040401010100000000000004D0
:1020000000000301000001010100000001000004C4
:1020100000000003000001010101000001000101B6
:1020200001000001000001010003000001000300A5
:10203000010000000001010100000000010000009B
:102040000100000000010101000100000100010089
:102050000100010100010101000100000000000079
:102060000100010100010101000101010000010165
:10207000010000000001010100010000000001005A
:102080000100000000000101000100030000000049
:102090000101010100000101000001010100010036
:1020A0000100000000000101020300000000030025
:1020B000010000000000010100000000000000001D
:1020C00001040101000001010101010101010101FF
:1020D00001010101010101000000000000000000F9
:1020E00000000001FFC00180200140100120080114
:1020F0001FF8011008011008011088011088011054
:1021000088009088005048003008001FF8000880C0
:10211000000CC000000000000000000000000000F3
:10212000000000000001FF800180400140200120EC
:1021300010011FF801900801300801110801B108D1
:10214000015108009108005208003008001FF800F3
:1021500006400000C0000000000000000000000079
:102160000000000000000001FF80018040014020CD
:10217000012010011FF80190080190080192480108
:10218000900801500800D248005188007008001FD4
:10219000F8000440000CC000000000000000000037
:1021A00000000000000000000001FF8001804001ED
:1021B0004020012010011FF80110080150080150B3
:1021C0000801500801500801500800D00800B0086C
:1021D000001FF80008400018C000000000000000C8
:1021E00000000000003FFE0020830020828020824B
:1021F00040208220208220208220208220208220D5
:102200002082202082202082203FFE2010012008F2
:1022100000A004006003FFE00000000000000000D8
:10222000000000000000000000001FFC001FFD0077
:102230001FFD801FFDC01FFDC01FFDC01FFDC01F73
:10224000FDC01FFDC01FFDC01FFDC00001C00FFE6F
:10225000C007FF4003FF80000000000000000000F6
:10226000000000FFFF00800180800140800120808D
:1022700001108001088001048001048001048001B4
:1022800004800104800104800104800104800104B1
:10229000FFFF0440008420004410002408001404C0
:1022A000000C03FFFC010204081020408000000025
:1022B00000003E5B4F5B3E3E6B4F6B3E1C3E7C3EE8
:1022C0001C183C7E3C181C577D571C1C5E7F5E1CF6
:1022D00000183C1800FFE7C3E7FF0018241800FFB0
:1022E000E7DBE7FF30483A060E2629792926407FAA
:1022F000050507407F05253F5A3CE73C5A7F3E1CB9
:102300001C08081C1C3E7F14227F22145F5F005FA4
:102310005F06097F017F006689956A606060606082
:1023200094A2FFA29408047E040810207E201008C6
:10233000082A1C08081C2A08081E101010100C1E61
:102340000C1E0C30383E3830060E3E0E06000000E3
:10235000000000005F00000007000700147F147FEA
:1023600014242A7F2A122313086462364956205007
:102370000008070300001C2241000041221C002A23
:102380001C7F1C2A08083E080800807030000808DE
:10239000080808000060600020100804023E51494F
:1023A000453E00427F400072494949462141494D1E
:1023B000331814127F1027454545393C4A494931A5
:1023C00041211109073649494936464949291E0024
:1023D00000140000004034000000081422411414CE
:1023E000141414004122140802015909063E415DEB
:1023F000594E7C1211127C7F494949363E41414178
:10240000227F4141413E7F494949417F09090901F4
:102410003E414151737F0808087F00417F41002001
:1024200040413F017F081422417F404040407F02ED
:102430001C027F7F0408107F3E4141413E7F090915
:1024400009063E4151215E7F09192946264949491D
:102450003203017F01033F4040403F1F2040201FC7
:102460003F4038403F631408146303047804036159
:1024700059494D43007F4141410204081020004169
:1024800041417F04020102044040404040000307F4
:10249000080020545478407F284444383844444449
:1024A00028384444287F385454541800087E0902C0
:1024B00018A4A49C787F0804047800447D40002080
:1024C00040403D007F1028440000417F40007C04D4
:1024D0007804787C080404783844444438FC182490
:1024E000241818242418FC7C080404084854545464
:1024F0002404043F44243C4040207C1C2040201CF9
:102500003C4030403C44281028444C9090907C44FF
:1025100064544C440008364100000077000000413C
:1025200036080002010204023C2623263C1EA1A11B
:1025300061123A4040207A38545455592155557902
:1025400041215454784121555478402054557940C4
:102550000C1E527212395555555939545454593923
:10256000555454580000457C410002457D4200010D
:10257000457C40F0292429F0F0282528F07C54558A
:1025800045002054547C547C0A097F49324949490A
:10259000323248484832324A4848303A4141217A3A
:1025A0003A42402078009DA0A07D39444444393D02
:1025B0004040403D3C24FF2424487E4943662B2F65
:1025C000FC2F2BFF0929F620C0887E0903205454D4
:1025D00079410000447D413048484A323840402229
:1025E0007A007A0A0A727D0D19317D2629292F2851
:1025F000262929292630484D40203808080808088F
:10260000080808382F10C8ACBA2F102834FA000078
:102610007B000008142A142222142A140895002290
:102620000095AA005500AAAA55AA55AA000000FFC5
:1026300000101010FF00141414FF001010FF00FF12
:102640001010F010F0141414FC001414F700FF0024
:1026500000FF00FF1414F404FC141417101F1010D2
:102660001F101F1414141F00101010F000000000A1
:102670001F101010101F10101010F010000000FF9D
:10268000101010101010101010FF10000000FF1498
:102690000000FF00FF00001F10170000FC04F414EE
:1026A000141710171414F404F40000FF00F71414A6
:1026B0001414141414F700F7141414171410101F22
:1026C000101F141414F4141010F010F000001F1058
:1026D0001F0000001F14000000FC140000F010F0A8
:1026E0001010FF10FF141414FF141010101F00001E
:1026F0000000F010FFFFFFFFFFF0F0F0F0F0FFFF31
:10270000FF0000000000FFFF0F0F0F0F0F384444C1
:1027100038447C2A2A3E147E02020606027E027E8D
:102720000263554941633844443C04407E201E20E6
:1027300006027E020299A5E7A5991C2A492A1C4C8B
:102740007201724C304A4D4D303048784830BC628E
:102750005A463D3E494949007E0101017E2A2A2A06
:102760002A2A44445F444440514A444040444A5128
:10277000400000FF0103E080FF000008086B6B08C9
:102780003612362436060F090F060000181800000E
:10279000001010003040FF0101001F01011E001950
:1027A0001D1712003C3C3C3C0000000000D5F08DA1
:1027B00014A1C881CFD9F1AF2000454550524F4DEB
:1027C0002077726974696E67206572726F72006932
:1027D0006E697469616C697A652074686520454525
:1027E00050524F4D000000000000000000000000AB
:1027F00000000000000000000000000000000000D9
:1028000000000000000000000000000000000000C8
:1028100000000000000000000000000000000000B8
:1028200000000000000000000000000000000000A8
:10283000042000000000000000000000000002244E
:102840000FB03FE0000000000000000000E7822021
:102850000A7800C00000000000000000013647FFB9
:102860001248010000000000000000000036626411
:1028700004FC020000000000000000000026227F8F
:10288000048402000000000000000000006623A491
:102890000CFC7FF000000000000000000036262441
:1028A0000E84020000000000000000000016623FDD
:1028B0000DFC020000000000000000000136C224F0
:1028C0001C840200000000000000000000E7823FBE
:1028D00014FC0200000000000000000000000620C0
:1028E00004840E000006000000000000000000004C
:1028F000000000000019818CCF04A2F822510000D2
:1029000000000000001082524904A2202251000061
:1029100000000000002640924F07A22323D10000B0
:1029200000000000002641124904AA23225500009D
:10293000000000000010821249049420224A000086
:1029400000000000001983CCEF0494203A4A0000F4
:102950000000FFC0000600000000000000000000B2
:10296000000100C0000000000000000000000000A6
:102970000002014000000000000000000007FF808E
:1029800000040240000000000000000000061040AB
:10299000000FFC40000000000000000000050820BF
:1029A0000008044000000000000000000004841043
:1029B00000092540000000FFFFFFFFFFFFFCFFFBB9
:1029C000FFF8057F800000000000060004044408B2
:1029D0001008054040000000000005000206420803
:1029E000080A054020000000000004800104594846
:1029F0000409E480100000000000044000845888AE
:102A0000020805800800000000000420004543E89B
:102A1000010806800400FFFFFFFFFFFFFFFC43EFFC
:102A2000FFFFFFFFFE000000000004180014400834
:102A3000004108800100000000000414000A47E87B
:102A400000230840000000000000041200055F0C95
:102A50000010182000000000000004110002C00A4D
:102A600000080010000000000000041080017FF941
:102A700000040008000FFFFFFFFFFFFFFFFFFFFF45
:102A8000FFFFFFFFFF000000000004106000400097
:102A9000400100020000000000000410500020006F
:102AA0002000800100FFFFFFFFFFFC104800100026
:102AB00010003FF0800000000000021044000800F9
:102AC00008005FF840000000000001104200040010
:102AD00004006FFC207FFFFFFFFFFFFFFFFFFFFFF2
:102AE000FFFFF001FF0000000000005041800100E6
:102AF000030077FE08000000000000304140009E07
:102B00000C8077FE0407FFFFFFFFFFF0412000412C
:102B1000F84077FE0200000000000008411000208D
:102B2000C72077FE010000000000000441080013E8
:102B3000001077FE0001FFFFFFFFFFFFFFFFFFFF19
:102B4000FFFFF7FFFF000000000000014106000446
:102B5000000477FE00000FFFFFFFFFFFC10500022A
:102B6000000237FE00000000000000004104800168
:102B7000000117FE000000000000000021044000DA
:102B8000800087FE0000000000000000110420000B
:102B900040004001000000000000000009041FFF89
:102BA000FFFFFFFFFF000000000000000504100011
:102BB000300020008000000000000000030410002E
:102BC000300020008000000FFFFFFFFFFF04100017
:102BD0003000200080000000000000000084100091
:102BE0003000200080080B000202020100090400EE
:102BF000000102020000052400100105240101016A
:102C00000424020605240600010705810310004084
:102C100009040100020A000000070502024000004A
:102C2000070583024000000403090412010002EFBB
:102C30000201404123368000010102030141726418
:102C400075696E6F204C4C430041726475696E6FFC
:102C5000204C656F6E6172646F00462511241FBEA3
:102C6000CFEFDAE0DEBFCDBF11E0A0E0B1E0E0E8F9
:102C7000FBE402C005900D92A234B107D9F727E01A
:102C8000A2E4B1E001C01D92AC3DB207E1F716E14C
:102C9000CEE2D6E104C02197FE010E94B325CD32D9
:102CA000D107C9F70E94CA230C94BE250C940000DA
:102CB000CF92DF92EF92FF920F931F93CF93DF9308
:102CC0006C017A018B01C0E0D0E0CE15DF0589F000
:102CD000D8016D918D01D601ED91FC910190F081AB
:102CE000E02DC6010995892B11F47E0102C02196C1
:102CF000ECCFC701DF91CF911F910F91FF90EF9023
:102D0000DF90CF9008953FB7F8948091540390914D
:102D10005503A0915603B091570326B5A89B05C053
:102D20002F3F19F00196A11DB11D3FBFBA2FA92F4A
:102D3000982F8827820F911DA11DB11DBC01CD01C7
:102D400042E0660F771F881F991F4A95D1F70895B3
:102D50008FB12CB193B130E020953095207433279A
:102D6000A90123E0559547952A95E1F7292F30E0F1
:102D700020953095207133273595279535952795E2
:102D8000242B8095807F822B0895809161038EBDD6
:102D9000E2E6F3E081910DB407FEFDCF8EBD87E042
:102DA000E136F807B9F70DB407FEFDCF0895089591
:102DB000089580E090E00895CF93DF93109246014C
:102DC000109245018091000190E00197282F30E09A
:102DD0003093430180934401832F922F20E030E011
:102DE000AA27BB27A81BB90BBC0161507F4FAD01BF
:102DF000480F591F6817790774F0FC01E952FF4F1B
:102E0000E491E901C45BDE4FF0E0F983E8830196C9
:102E10002E5F3F4FECCF50934A014093490190936E
:102E2000480180934701DF91CF9108950E94B92511
:102E30000C9483256F927F928F929F92AF92BF9254
:102E4000CF92DF92EF92FF920F931F93CF93DF9376
:102E500010924E0310924D03C0904B01ECE4F1E050
:102E600041E080E090E0219131912230310519F06C
:102E70002630310511F4C82E04C02330310509F481
:102E800040E00196811521E0920769F7C0924B015D
:102E900040934C03D12CC601849790934A018093B0
:102EA0004901909348018093470184E2C80ED11CE8
:102EB0008091470190914801C816D9060CF4F4C0DE
:102EC0002091490130914A01A901485F5F4F48179D
:102ED00059075CF407969093480180934701205F5F
:102EE0003F4F30934A0120934901A0904701B09091
:102EF0004801F501EE0FFF1FE45BFE4F80809180DB
:102F0000C0914E0321E08216910479F5E0904D03C3
:102F1000F12C370186E0681A7108D0E04E0126E0F6
:102F2000821A910820E140E1B301C4010E94671FA9
:102F30009701225F3F4FB701665F7F4F00E0AE0110
:102F4000CE010E94A31FAE01425F5F4F9701B70100
:102F5000CE010A960E94A31FEE24E39406E126E127
:102F600043E652E2B301C40164C0C4018B7F0297FF
:102F700079F560914D03062F10E0D0E0B801625062
:102F8000710921E140E1CE0101970E94671F209164
:102F90000101B80166507109CE010697EE24E39451
:102FA00006E1203F21F426E14DE951E20FC0203136
:102FB00021F426E14BE551E209C02F3F21F426E13F
:102FC00049E151E203C026E147ED50E20E94CD1EE7
:102FD000C0914E0383E088169104C9F480904D039C
:102FE000912C26E0821A9108D0E02697E12C06E188
:102FF00026E141E252E2B401CE010E94CD1EEE2450
:10300000E39426E14FED51E2B401CE0112C085E018
:103010008816910489F460914D0370E0665071093F
:103020008C2F90E0EE24E39406E126E141E252E2A7
:1030300006970E94CD1E21C024E082169104E9F477
:10304000E0904D03F12C370180E1680E711CD0E057
:103050004E0120E1820E911C85E0E80EF11C2596C0
:1030600001E09301A401B701CE010E94A31F9301C7
:10307000AE01B701C4010E94A31F80914E03815F7E
:10308000893718F480934E0307C010924E03809145
:103090004D03815F80934D032FEFA21AB20AB092C5
:1030A0004801A092470104CFDF91CF911F910F916A
:1030B000FF90EF90DF90CF90BF90AF909F908F9058
:1030C0007F906F9008950E942A200E941A1785E62B
:1030D00097E00C94C51640915A0350915B032091E0
:1030E00058033091590342175307B4F49091E80004
:1030F0009570E1F39091E80092FD19C08093F10082
:1031000080915A0390915B0301968F739927892BC5
:1031100019F48EEF8093E80080915A0390915B033D
:10312000019690935B0380935A0381E0089580E0B9
:103130000895615030F02091F100FC012083019648
:10314000F8CF289884E680935F0308958F929F922A
:10315000AF92BF92CF92DF92EF92FF926B017C0110
:103160000E9483164B015C01C114D104E104F104F7
:10317000F1F00E948316DC01CB0188199909AA0994
:10318000BB09883E9340A105B10570F321E0C21A46
:10319000D108E108F10888EE880E83E0981EA11C92
:1031A000B11CC114D104E104F10419F7DDCFFF9083
:1031B000EF90DF90CF90BF90AF909F908F90089549
:1031C000BC0180E090E00C94A6181F920F920FB6FD
:1031D0000F9211242F933F938F939F93AF93BF939D
:1031E0008091500390915103A0915203B0915303E9
:1031F00030914F0323E0230F2D3720F40196A11DBA
:10320000B11D05C026E8230F0296A11DB11D209314
:103210004F038093500390935103A0935203B093B4
:1032200053038091540390915503A0915603B0919C
:1032300057030196A11DB11D80935403909355032C
:10324000A0935603B0935703BF91AF919F918F9175
:103250003F912F910F900FBE0F901F9018956038DF
:103260007105D0F440345105B8F4E5EAF2E280E1AA
:10327000849FD001A0781124A60F4770E40FF11DA0
:103280008491AF59BC4F222319F06C91862B03C057
:1032900080956C9186238C9308952F923F924F9244
:1032A0005F926F927F928F929F92AF92BF92CF92D6
:1032B000DF92EF92FF920F931F93CF93DF93CDB7DF
:1032C000DEB729970FB6F894DEBF0FBECDBFFC0165
:1032D0006A3069F4248D808D918D38E0239F800DB4
:1032E000911D1124918F808F178A168AAAC06D3084
:1032F00009F4A7C099878887F48C338C228C608C62
:10330000718C0689178900381105C4F0A885B98524
:103310005C962C915C97422F50E056968D919C9133
:103320005797B6E02B9F800D911D1124E885F985F4
:10333000978B868B258D21116EC083C0F0E46F16AC
:10334000710424F7C80125E0F29E800D911D11241F
:1033500018161906DCF68F2D90E09C838B83C30131
:10336000A8E0FA9E800D911D11241816190674F616
:10337000B5E06B9FB0011124FB01E355FD4DFA83CD
:10338000E98330E08885998504969E838D83E98161
:10339000FA81E490353009F4E12C430188E0482EAD
:1033A000E0FC02C0532C01C0522C51100BC0321053
:1033B00009C0E6944A948B819C81880E991E411025
:1033C000EFCF1BC068018C2D801B8F1590F7540127
:1033D0008A2D88198F1568F4252DA501B6018D81D8
:1033E0009E813F830E942F199FEFA91AB90A3F813E
:1033F000EFCFAFEFCA1ADA0AE6CF3F5FEB81FC816D
:103400000E0F1F1F89819A8101969A838983363016
:1034100009F0BDCF7BCF6AEF64039001659F300D4B
:10342000112420583F4F281739075CF4A885B98527
:10343000ED91FC9111970190F081E02D6AE0CD01B2
:10344000099581E090E029960FB6F894DEBF0FBE93
:10345000CDBFDF91CF911F910F91FF90EF90DF9043
:10346000CF90BF90AF909F908F907F906F905F9024
:103470004F903F902F900895AF92BF92CF92DF92DE
:10348000EF92FF920F931F93CF93DF93109242011D
:103490000E94A81682FF06C00E94DC160E946318D4
:1034A0000E943C1A0E94A81683FF85C0C0E6D0E0A7
:1034B00008E010E080E1E82EF12C98E2C92ED12C32
:1034C00020E3A22EB12C0E94A81683FF6CC00E949C
:1034D0002A200E941A1720E848E260E070E088E5A0
:1034E00090E00E94671FD0937807C09377071093EE
:1034F0007A070093790783EB90E00E944F20D093E6
:103500007807C0937707F0927A07E0927907609185
:10351000000170E080E090E04AE00E94702081EBC2
:1035200090E00E944F204AE060E270E080E090E08E
:103530000E947020D0937807C0937707D0927A07C3
:10354000C09279078CEA90E00E944F20D0937807D0
:10355000C0937707B0927A07A092790780914501CE
:10356000909146010E94B1200E94A81687FF09C0D1
:1035700080910001803218F48F5F809300010E94D7
:10358000DC160E94A81684FF09C0809100018230D9
:1035900018F08150809300010E94DC1685E697E0C8
:1035A0000E94C51690CF0E942A200E941A1785E615
:1035B00097E00E94C5160E94A81687FF12C080EFF0
:1035C00080930101E0914B01F0E0EE0FFF1FE45DFD
:1035D000FE4F80819181009791F581E080934201B7
:1035E00033C00E94A816982F907184FF0AC0909350
:1035F0000101E0914B01F0E0EE0FFF1FE459FE4F97
:10360000E8CF0E94A81685FF0BC08FEF80930101C1
:10361000E0914B01F0E0EE0FFF1FE65BFE4FD9CFCC
:103620000E94A81686FF10C081E080930101E091FE
:103630004B01F0E0EE0FFF1FE25BFE4FCACF039796
:10364000049758F20E94631880914201882309F47C
:10365000D8C0E0914B01F0E0DF01AA0FBB1FA45BD3
:10366000BE4F4D915C9111974230510509F04EC00B
:1036700020910101022E000C330BE20FF31FEF012A
:10368000CC0FDD1FC45BDE4F688179816115710548
:1036900091F16430710539F486E090E09983888374
:1036A0001D921C929DC065307105A9F4E20FF31FB5
:1036B000EE0FFF1FE45BFE4F80819181009729F49C
:1036C00083E090E091838083E7CF049709F091C075
:1036D00071836083E1CF6330710509F08AC0E20F26
:1036E000F31FEE0FFF1FE45BFE4F80819181009777
:1036F00029F47183608359834883D2CF049709F0FA
:1037000078C085E090E091838083F5CF4630510505
:1037100009F06FC080910101082E000C990BE80F91
:10372000F91FEF01CC0FDD1FC45BDE4F288139810B
:103730002115310509F440C02430310529F459839D
:1037400048832D933C934CC02530310531F5E80F6B
:10375000F91FEE0FFF1FE45BFE4F80819181009700
:10376000A1F483E090E0918380835983488384E0CF
:1037700090E08D939C938091450190914601019634
:1037800090934601809345012BC08430910541F50B
:10379000318320835983488321C02330310549F583
:1037A000E80FF91FEE0FFF1FE45BFE4F8081918150
:1037B000009749F43183208382E090E099838883E5
:1037C00084E090E00BC08430910599F425E030E06E
:1037D0003183208322E030E0398328838D939C93CA
:1037E0008091450190914601019690934601809306
:1037F00045010E94631862E370E080E090E00E945F
:10380000A61880914C03882309F4D1C0C09100010F
:10381000D0E02696CE010E947B25609145017091F3
:103820004601282F30E0621773070CF4BBC08823D1
:1038300009F4B8C010E00E942A20E5E6F3E09CE716
:103840009E0F9E1721F0808180618193FACFE5EE73
:10385000F6E09CE79E0F9E1721F08081806881939F
:10386000FACFC4E0D0E021E0AE0164E070E085E68C
:1038700097E00E942F192196C034D105A1F7C4E02A
:10388000D0E021E0AE016FE770E085E697E00E94AE
:103890002F192196C034D105A1F700E024E030E0D3
:1038A0004CE450E064E070E08CE290E00E94A31FE2
:1038B00084E390E0909378078093770710927A07DB
:1038C0001092790783ED90E00E944F20C0E2D0E093
:1038D000D0937807C093770780E190E090937A07C0
:1038E000809379078DEC90E00E944F2080914501F4
:1038F000909146010E94B120D0937807C09377073A
:1039000088E190E090937A078093790784EC90E0C7
:103910000E944F208091000190E006960E947B2536
:10392000682F70E080E090E04AE00E947020112350
:1039300071F0D0937807C093770788E290E0909376
:103940007A078093790789EB90E00E944F2085E603
:1039500097E00E94C5160E94A81683FFFCCF8091B5
:103960000001803210F48F5F01C081E0809300017C
:103970000E94DC160E942A200E941A1785E697E012
:103980000E94C51662E370E080E090E0DF91CF9185
:103990001F910F91FF90EF90DF90CF90BF90AF906D
:1039A0000C94A618CE010E94181711E044CFDF91A5
:1039B000CF911F910F91FF90EF90DF90CF90BF902C
:1039C000AF900895FC0180916003811103C08FEFD7
:1039D0009FEF08959FB7F89482E08093E9002091CB
:1039E000F20030E01216130614F421E030E0211545
:1039F000310559F0289884E680935F038091F100A7
:103A000080838091F200882319F09FBFC901089537
:103A10008BE68093E800F9CF2FB7F89483E080938A
:103A2000E9009091E800892F807295FF04C0909181
:103A3000F20080E4891B2FBF0895809184078111D3
:103A40000DC082E08093800784E08093810710920C
:103A500083071092820781E08093840780E897E0D3
:103A60000895CF93DF931F92CDB7DEB76983DC0152
:103A7000ED91FC910280F381E02D41E050E0BE0128
:103A80006F5F7F4F09950F90DF91CF91089583E08D
:103A90008093E9008091F200882319F08AE38093F3
:103AA000E80008950E940C1D90E00895CF93DF93E5
:103AB0001F92CDB7DEB7FC018485958597FD05C0C3
:103AC0002FEF3FEF358724870BC0CE0101960E9470
:103AD000E21C019719F4898190E002C08FEF9FEFFB
:103AE0000F90DF91CF9108950F931F93CF93DF93A2
:103AF0001F92CDB7DEB78C01FC018485958597FFB9
:103B00000EC0CE0101960E94E21C019719F4298192
:103B100030E002C02FEF3FEFF80135872487F8012E
:103B2000848595850F90DF91CF911F910F91089516
:103B3000FC018485958597FD0BC09FB7F89482E0C2
:103B40008093E9008091F2009FBF90E00196089574
:103B50009FB7F89482E08093E9008091F2009FBFC4
:103B600090E008958F929F92AF92BF92CF92DF9292
:103B7000EF92FF920F931F93CF93DF935C016B0142
:103B80007A0180910D01882309F45BC08091600364
:103B9000882309F456C080915E0380FF05C08091A0
:103BA000E00082608093E000E70110E00AEF83E02C
:103BB000882E9AE3992E2097D9F10E940C1D81112D
:103BC0000AC0015009F43DC061E070E080E090E07F
:103BD0000E94A618F0CF282F30E0C217D3070CF4AC
:103BE0008C2F4FB7F8948092E9009091E80095FFF0
:103BF0001DC0282F30E0C21BD30BF601982F915027
:103C000020F081918093F100FACFC20ED31E1123D0
:103C100019F09092E80009C08091E80085FD06C087
:103C20009092E80011E0209709F010E04FBFC3CF59
:103C30001111C3CF5D9884E680937F071E141F0483
:103C400044F081E090E0F5019383828380E090E08E
:103C500001C0C701DF91CF911F910F91FF90EF90AD
:103C6000DF90CF90BF90AF909F908F900895CF92AC
:103C7000DF92EF92FF920F931F93CF93DF931F92E8
:103C8000CDB7DEB7182F062FE42E862F880F8E5F54
:103C900099830E946B1883E00E946B18F12EC12E4D
:103CA0009981D92E8C2D8F19801798F4F601E7FE93
:103CB00002C0849101C080810E946B18182F80E09F
:103CC0000E946B188123FFEFCF1ADF0A8111EACF20
:103CD00001C081E00F90DF91CF911F910F91FF9074
:103CE000EF90DF90CF900895DF92EF92FF920F93C5
:103CF0001F93CF93DF93D82E8A017B01E40EF51E2C
:103D0000EB01CE15DF0571F0D7FE03C0FE018491F3
:103D100001C088810E946B1821968111F2CF8FEF2C
:103D20009FEF01C0C801DF91CF911F910F91FF90CC
:103D3000EF90DF9008950F931F93CF93DF931F921F
:103D4000CDB7DEB782E0898342E450E065EE7BE2E6
:103D500080E80E94741E0E941D1DDC0112960D91C8
:103D60001C9113970115110569F0D801ED91FC9193
:103D70000280F381E02DBE016F5F7F4FC80109957E
:103D800097FF07C089810F90DF91CF911F910F910D
:103D90000895F80100851185E5CF2F923F924F924B
:103DA0005F926F927F928F929F92AF92BF92CF92CB
:103DB000DF92EF92FF920F931F93CF93DF9300D088
:103DC00000D01F92CDB7DEB7C22ED12C9C012C0D96
:103DD0003D1D37FD64C0803891050CF060C010E0D7
:103DE0009B01200F311F37FD5AC0603471050CF064
:103DF00056C03E2D3A012B011C01C6010796AC01AD
:103E000093E0559547959A95E1F75A834983A12CFC
:103E1000B12CE12CF12CE016F1060CF040C01D8213
:103E20001C824701840C951C4C815D814C155D05FD
:103E300074F5EC81FD8183E0F595E7958A95E1F7CE
:103E4000EA0DFB1DE60DF71DE491F0E08C819D81EC
:103E50008770992740E850E002C0559547958A95AC
:103E6000E2F7E423F523EF2B61F0232FA4016C810B
:103E70007D81620D731D85E697E03B830E942F19BB
:103E80003B818C819D8101969D838C83CDCF5FEF9B
:103E9000E51AF50A89819A81A80EB91EBCCF0F9048
:103EA0000F900F900F900F90DF91CF911F910F9176
:103EB000FF90EF90DF90CF90BF90AF909F908F904A
:103EC0007F906F905F904F903F902F900895AF92AA
:103ED000BF92CF92DF92EF92FF920F931F93CF93F7
:103EE000DF937B01EC015C01A40EB11C6B01C20EDF
:103EF000D11CCA15DB05E4F48701F7FE0FC000E012
:103F000010E00CC0081719078CF420E0A801BE01CE
:103F100085E697E00E942F190F5F1F4FC60121E42D
:103F2000C216D1047CF380E490E0ECCF2196E1CF7F
:103F3000DF91CF911F910F91FF90EF90DF90CF9085
:103F4000BF90AF9008954F925F926F927F928F9241
:103F50009F92AF92BF92CF92DF92EF92FF920F9318
:103F60001F93CF93DF93EC017B016A01C901A90183
:103F7000461B570B57FF03C05195419551099601B8
:103F80002C1B3D0B37FF03C031952195310911E002
:103F90002417350714F010E00AC03C2D2D2D6C01BC
:103FA000832F922F3C2F2D2FE701E32EF22ECC16DC
:103FB000DD0654F43E2D2F2D7C01832F922F3C2FB4
:103FC0002D2FE601C32ED22E26014C1A5D0A4C017C
:103FD0008E189F0897FE03C0919481949108520116
:103FE00057FE03C02FEFA21AB20AB594A794E816A1
:103FF000F90614F08FEF01C081E0682E880F770872
:10400000CC16DD06B4F0202F112319F0AE01B70154
:1040100002C0A701BE0185E697E00E942F19A818EB
:10402000B908B7FE04C0E60CF71CA40CB51C219619
:10403000E7CFDF91CF911F910F91FF90EF90DF902D
:10404000CF90BF90AF909F908F907F906F905F9038
:104050004F90089580E0E1E6F3E081118FEF0024B6
:1040600081938193819381930394D1F7E1E6F7E003
:10407000118E108E178A168A0895009769F0FC0138
:1040800001900020E9F73197AF01481B590BBC01A3
:1040900081E697E00C94581680E090E008950F9325
:1040A0001F93CF93DF938C01C0E0D0E0F801EC0FB9
:1040B000FD1F6491662371F0E0916107F091620742
:1040C0000190F081E02D81E697E00995892B11F0B0
:1040D0002196ECCFCE01DF91CF911F910F910895E2
:1040E0008F929F92AF92BF920F931F93CF93DF93C4
:1040F000CDB7DEB7A1970FB6F894DEBF0FBECDBF28
:1041000019A2423008F44AE08E010F5D1F4F842E41
:10411000912CA12CB12CA50194010E949125E62F90
:10412000B901CA0101501109EA3014F4E05D01C07F
:10413000E95CD801EC93232B242B252B61F7C801D4
:104140000E943D20A1960FB6F894DEBF0FBECDBFF2
:10415000DF91CF911F910F91BF90AF909F908F9063
:104160000895CF92DF92EF92FF92CF93DF936C018D
:10417000990FEE08FF08F7FE1FC0E0916107F0916C
:1041800062070190F081E02D6DE281E697E00995EC
:10419000EC0166277727CB016C197D098E099F09F1
:1041A0004AE00E9470208C0F9D1FDF91CF91FF90FD
:1041B000EF90DF90CF9008954AE0C701B601DF91FC
:1041C000CF91FF90EF90DF90CF900C9470201F92D2
:1041D0000F920FB60F9211248F939F938091E1005D
:1041E0009091E100937F9093E10083FF0FC01092C4
:1041F000E90091E09093EB001092EC0092E3909331
:10420000ED001092600398E09093F00082FF20C0D0
:1042100093E09093E9009091F200992319F09AE3CA
:104220009093E80090917F07992339F090917F0750
:10423000915090937F07992389F190915F0399237F
:1042400039F090915F03915090935F03992341F16E
:1042500084FF10C08091E2008E7E81608093E20036
:104260008091E1008F7E8093E10080915E038E7EDD
:10427000806111C080FF16C08091E2008E7E806157
:104280008093E2008091E1008E7E8093E100809136
:104290005E038E7E816080935E0304C05D9ACDCF05
:1042A000289AD6CF9F918F910F900FBE0F901F909D
:1042B00018951F920F920FB60F921124CF92DF9292
:1042C000EF92FF920F931F932F933F934F935F9320
:1042D0006F937F938F939F93AF93BF93EF93FF93CE
:1042E000CF93DF93CDB7DEB76C97DEBFCDBF109213
:1042F000E9008091E80083FFEDC168E0CE014596BA
:104300000E94991882EF8093E8008D8987FF05C08D
:104310009091E80090FFFCCF03C09EEF9093E800DF
:10432000982F907609F0C6C09E892F89188D91111B
:104330000CC0803829F480915D038093F10002C0A5
:104340001092F1001092F10048C1422F50E0512B21
:10435000913051F4811141C14130510509F03DC105
:1043600080915D038D7F0BC0933061F4811135C165
:104370004130510509F031C180915D038260809325
:104380005D032BC1953041F48091E80080FFFCCFA4
:1043900020682093E30021C1963009F05FC0EB8CC8
:1043A000FC8C1092E90010925B0310925A031230B9
:1043B00091F510925903109258030E949B1E99E0A8
:1043C000BE016F5F7F4FDB01E92F1D92EA95E9F790
:1043D00099831A8391E09E8390EA98879AEF998750
:1043E00020915A0330915B03275F3F4F3C832B831F
:1043F0008D831092E90010925B0310925A03F092A1
:104400005903E092580349E050E080E00E94741E96
:104410000E949B1EE2C0F0925903E09258030E9452
:104420001D1DDC011296ED90FC901397E114F10430
:1044300009F4C0C0D701ED91FC910480F581E02D15
:10444000BE016B5E7F4FC7010995009719F00CF014
:10445000C4C0C7C0F701E084F184E8CF973009F405
:10446000C0C0983021F481E08093F100B6C099304B
:1044700009F0B3C0837009F0B4C0EFE0F1E081E06F
:1044800021E036E39081992361F08093E900209345
:10449000EB0091919093EC003093ED008F5F8730AB
:1044A00089F78EE78093EA001092EA008F89809363
:1044B000600393C08B8D9C8D1092E90010925B037A
:1044C00010925A039093590380935803898D811158
:1044D00056C08E899D89913A59F4813209F081C084
:1044E00047E050E066E071E080E00E94741E75C015
:1044F000913209F076C0833289F4888D90E0982F4C
:1045000088272F89822BA0E0B0E08093020190934E
:104510000301A0930401B09305015FC0803269F4E8
:104520008091E80082FFFCCF67E086E091E00E9486
:1045300099188BEF8093E80006C0823209F04DC0D5
:104540008F8980930D0180915C03882319F0EEEF31
:10455000FAE002C0E0E0F8E08091060190910701E6
:10456000A0910801B0910901803B9440A105B105DB
:1045700009F07BC080910D0180FF93C076C00E943E
:104580001D1DDC0112960D911C911397011511054B
:1045900041F1D801ED91FC910190F081E02DBE0137
:1045A0006B5E7F4FC8010995811117C0F801008526
:1045B0001185ECCF113009F44EC0133091F48F897E
:1045C000882309F445C0823081F440E860E189E441
:1045D0009CE20E94371E882321F08EEF8093E80032
:1045E00079C081E28093EB0075C0813029F440E806
:1045F0006BE08DE39CE2EDCF833099F70E941D1DA7
:10460000DC011296ED90FC9013978E010F5F1F4F07
:104610006801E114F10479F0D701ED91FC91068075
:10462000F781E02DB801C7010995080F111DF701A9
:10463000E084F184EECFD8011C92F60101900020B5
:10464000E9F73197BF016C197D0940E0C601C1CF80
:1046500067E27CE202C06BE27CE26115710509F25F
:10466000FB01449150E080E840CF0FB6F894A89544
:1046700080916000886180936000109260000FBE9E
:10468000A895EE3F2AE0F20739F08091FE0A90915A
:10469000FF0A91838083A1CF1092FF0A1092FE0A35
:1046A0009CCFEE3F8AE0F80731F0808191819093B2
:1046B000FF0A8093FE0A87E797E7918380839BE058
:1046C00088E10FB6F894A895809360000FBE909390
:1046D000600083CF6C960FB6F894DEBF0FBECDBFDF
:1046E000DF91CF91FF91EF91BF91AF919F918F910A
:1046F0007F916F915F914F913F912F911F910F91FA
:10470000FF90EF90DF90CF900F900FBE0F901F9013
:1047100018950F931F93CF93DF93EC0181E090E006
:104720000E947B2580FF2EC08AE090E00E947B25BE
:104730009FEF980F9E3F30F522E330E03F8B2E8BAA
:1047400028E330E0398F288F0BE010E0E881F98111
:104750000190F081E02D682FCE010995C8010E94DB
:104760007B250F5F1F4F0131110581F7CE010496A4
:104770000E94C51688EE93E0DF91CF911F910F91B3
:104780000C94E018DF91CF911F910F910895049739
:104790000C948923789484B5826084BD84B581604B
:1047A00084BD85B5826085BD85B5816085BD8091FC
:1047B0006E00816080936E00109281008091810074
:1047C000826080938100809181008160809381006C
:1047D0008091800081608093800080919100826050
:1047E00080939100809191008160809391008091ED
:1047F00090008160809390008091C10084608093DC
:10480000C1008091C10082608093C1008091C1008D
:1048100081608093C1008091C30081608093C30058
:104820008091C00082608093C0008091C20081604E
:104830008093C20080917A00846080937A00809196
:104840007A00826080937A0080917A008160809300
:104850007A0080917A00806880937A0010926003D9
:1048600010925D0310925E038091D7008160809367
:10487000D70080EA8093D80089B5806189BD89B569
:10488000826089BD09B400FEFDCF61E070E080E088
:1048900090E00E94A6188091D8008F7C8061809360
:1048A000D8008091E000807F8093E0008091E1005B
:1048B0008E7E8093E1008DE08093E200559A209AED
:1048C000EEEFFFE7859194918B3F9C4D19F481E0C9
:1048D00080935C0381EC80937C0085B1806F85B907
:1048E000249884B1866E84B95E9A5F988AB1806D8F
:1048F0008AB9769A6E9881B3806F81BB899880B3AC
:104900008D7080BB80E58CBD81E08DBD85E090E041
:104910000E94E0185F9A85E090E00E94E0185E989F
:104920005C98EDEAF7E28DE08E0F94919EBD000059
:104930000DB407FEFDCF31968E13F7CF5C9A81E858
:104940008093640081E080936500EE24E39400E4AA
:1049500020E845EE57E260E070E080E090E00E94E1
:10496000CD1E85E697E00E94C516C0E000E010E08D
:10497000C8010E947B25C80F0F5F1F4F073011052C
:10498000B9F7CD3E09F46FC00E942A208FEC97E260
:104990000E944F208BE391E00E943D206C2F70E03D
:1049A00080E090E04AE00E9470208EE391E00E9457
:1049B0003D204AE06DEE70E080E090E00E947020C3
:1049C0008BE391E00E943D2085E697E00E94C516AA
:1049D000C0E0D0E060E0CE010E9418172196C1151A
:1049E00084E0D807B9F763E780E090E00E941817E9
:1049F0006FE681E090E00E9418176BE682E090E09D
:104A00000E9418176FE683E090E00E94181762E694
:104A100084E090E00E94181761E685E090E00E9433
:104A200018176EE686E090E00E94181710E0C0E0CC
:104A3000D0E0CE010E947B25180F2196C730D1050A
:104A4000C1F7112321F0E0E0F0E0099508C08AEBFE
:104A500097E20E944F208BE391E00E943D2085E683
:104A600097E00E94C5166CED75E080E090E00E9432
:104A7000A6180E94DC160E946318C0E0D0E00E94D5
:104A80003C1A2097E1F30E940000F9CFECE8F7E030
:104A90001382128288EE93E0A0E0B0E084839583D5
:104AA000A683B78389E191E0918380838FEF9FEFA5
:104AB00095878487E1E6F7E01382128211861286D9
:104AC00020E1238790878783108A118A128A138AAC
:104AD000148A8BE291E09183808389E391E095834E
:104AE0008483178A168A118E108E81E0828F138E2E
:104AF000848F158E0895F999FECF92BD81BDF89AE5
:104B0000992780B50895262FF999FECF1FBA92BD37
:104B100081BD20BD0FB6F894FA9AF99A0FBE01969E
:104B20000895A1E21A2EAA1BBB1BFD010DC0AA1FEE
:104B3000BB1FEE1FFF1FA217B307E407F50720F006
:104B4000A21BB30BE40BF50B661F771F881F991F81
:104B50001A9469F760957095809590959B01AC01CA
:104B6000BD01CF010895EE0FFF1F0590F491E02DD8
:104B7000099481E090E0F8940C94BE25F894FFCF5E
:104B800001F0FFFFFFFF00E100000000000000C196
:104B9000808100000000000000311DB21D521D4741
:104BA0001D981D561D741D000000004D195816D982
:104BB00016D8168923FCFF0000C7230D0A00213DEB
:024BC0000000F3
:00000001FF
