:100000000C94DB150C9403160C9403160C94031635
:100010000C9403160C9403160C9403160C940316FC
:100020000C9403160C9403160C9403160C940316EC
:100030000C9403160C9403160C9403160C940316DC
:100040000C94A31B0C9403160C9403160C94031627
:100050000C9403160C9403160C9403160C940316BC
:100060000C9403160C94031653746570007E004CB8
:100070006576656C004E4557205245434F5244000B
:10008000486973746F72792000537465702000574B
:10009000494E0000000000000000000000000000C9
:1000A0000000000000000000000000000000000050
:1000B000000000000001010100000000000000003D
:1000C000000000000001040100000000000000002A
:1000D000000000000001000101010100000000001B
:1000E0000000000101010300030401000000000002
:1000F00000000001040003020101010000000000F3
:1001000000000001010101030100000000000000E7
:1001100000000000000001040100000000000000D9
:1001200000000000000001010100000000000000CC
:1001300000000000000000000000000000000000BF
:1001400000000000000000000000000000000000AF
:10015000000000000000000000000000000000009F
:10016000000000000000000000000000000000008F
:10017000000000000000000000000000000000007F
:10018000000000000000000000000000000000006F
:10019000000000010101010100000000000000005A
:1001A000000000010000000100000000000000004D
:1001B0000000000100030001000101010000000037
:1001C0000000000100030201000104010000000022
:1001D0000000000101010301010104010000000011
:1001E0000000000001010000000004010000000008
:1001F00000000000010000000100000100000000FC
:1002000000000000010000000101010100000000E9
:1002100000000000010101010100000000000000D9
:1002200000000000000000000000000000000000CE
:1002300000000000000000000000000000000000BE
:1002400000000000000000000000000000000000AE
:10025000000000000000000000000000000000009E
:10026000000000000000000000000000000000008E
:10027000000000000000000000000000000000007E
:10028000000000000000000000000000000000006E
:100290000000000001010101010101000000000057
:1002A000000000000100000000000101010000004A
:1002B0000000000101030101010000000100000035
:1002C0000000000100000203000003000100000024
:1002D000000000010004040100030001010000000F
:1002E0000000000101040401000000010000000002
:1002F00000000000010101010101010100000000F6
:1003000000000000000000000000000000000000ED
:1003100000000000000000000000000000000000DD
:1003200000000000000000000000000000000000CD
:1003300000000000000000000000000000000000BD
:1003400000000000000000000000000000000000AD
:10035000000000000000000000000000000000009D
:10036000000000000000000000000000000000008D
:10037000000000000000000000000000000000007D
:10038000000000000000000000000000000000006D
:100390000000000001010101000000000000000059
:1003A000000000010100000100000000000000004A
:1003B0000000000100000301000000000000000038
:1003C0000000000101000001010000000000000029
:1003D0000000000101030200010000000000000015
:1003E0000000000104030300010000000000000001
:1003F00000000001040405040100000000000000EA
:1004000000000001010101010100000000000000E6
:1004100000000000000000000000000000000000DC
:1004200000000000000000000000000000000000CC
:1004300000000000000000000000000000000000BC
:1004400000000000000000000000000000000000AC
:10045000000000000000000000000000000000009C
:10046000000000000000000000000000000000008C
:10047000000000000000000000000000000000007C
:10048000000000000000000000000000000000006C
:100490000000000001010101010000000000000057
:1004A0000000000001000201010100000000000046
:1004B0000000000001000300000100000000000037
:1004C0000000000101010001000101000000000026
:1004D0000000000104010001000001000000000014
:1004E0000000000104030000010001000000000002
:1004F00000000001040000000300010000000000F3
:1005000000000001010101010101010000000000E3
:1005100000000000000000000000000000000000DB
:1005200000000000000000000000000000000000CB
:1005300000000000000000000000000000000000BB
:1005400000000000000000000000000000000000AB
:10055000000000000000000000000000000000009B
:10056000000000000000000000000000000000008B
:10057000000000000000000000000000000000007B
:10058000000000000000000000000000000000006B
:100590000000000000000101010101010100000054
:1005A0000000000101010100000000000100000046
:1005B0000000000100000004010101000100000032
:1005C0000000000100010001000000000101000026
:1005D000000000010001000300030104000100000D
:1005E0000000000100010000050000010001000002
:1005F00000000001000401030003000100010000ED
:1006000000000001010000000001000100010101E3
:1006100000000000010001010104000000000201CF
:1006200000000000010000000000010100000001C6
:1006300000000000010101010101010101010101AE
:1006400000000000000000000000000000000000AA
:10065000000000000000000000000000000000009A
:10066000000000000000000000000000000000008A
:10067000000000000000000000000000000000007A
:10068000000000000000000000000000000000006A
:10069000000000000000000000000000000000005A
:1006A000000000000000000000000000000000004A
:1006B000000000000000000000000000000000003A
:1006C000000000000000000000000000000000002A
:1006D000000000000000000000000000000000001A
:1006E000000000000000000000000000000000000A
:1006F00000000000000000000000000000000000FA
:1007000000000000000000000000000000000000E9
:1007100000000000000001010101010101000000D2
:1007200000000000000101000001000201000000C3
:1007300000000000000100000001030001000000B3
:1007400000000000000103000003000001000000A1
:100750000000000000010003010100000100000092
:100760000000000101010003000100010100000080
:100770000000000104040404040000010000000063
:100780000000000101010101010101010000000060
:100790000000000000000101010101010000000053
:1007A0000000000001010100000000010000000045
:1007B000000000010104000301010001010000002C
:1007C0000000000104040300030000020100000017
:1007D0000000000104040003000300010100000008
:1007E0000000000101010101010000010000000002
:1007F00000000000000000000101010100000000F5
:1008000000000000000000000000000000000000E8
:1008100000000000000000000000000000000000D8
:1008200000000000000000000000000000000000C8
:1008300000000000000000000000000000000000B8
:1008400000000000000000000000000000000000A8
:100850000000000000000000000000000000000098
:100860000000000000000000000000000000000088
:100870000000000000000000000000000000000078
:100880000000000000000000000000000000000068
:10089000000000000101010101010101010000004F
:1008A0000000000001000001010000000100000044
:1008B0000000000001000000030000000100000033
:1008C000000000000103000101010003010000001D
:1008D0000000000001000104040401000100000008
:1008E00000000001010001040404010001010000F6
:1008F00000000001000300000300000300010000ED
:1009000000000001000000000001000002010000E2
:1009100000000001010101010101010101010000CC
:1009200000000000000000000000000000000000C7
:1009300000000000000000000000000000000000B7
:1009400000000000000000000000000000000000A7
:100950000000000000000000000000000000000097
:100960000000000000000000000000000000000087
:100970000000000000000000000000000000000077
:100980000000000000000000000000000000000067
:100990000000000000010101010101000000000051
:1009A0000000000000010000000001000000000045
:1009B000000000010101030303000100000000002A
:1009C0000000000102000304040001000000000018
:1009D0000000000100030404040101000000000005
:1009E0000000000101010100000100000000000002
:1009F00000000000000001010101000000000000F3
:100A000000000000000000000000000000000000E6
:100A100000000000000000000000000000000000D6
:100A200000000000000000000000000000000000C6
:100A300000000000000000000000000000000000B6
:100A400000000000000000000000000000000000A6
:100A50000000000000000000000000000000000096
:100A60000000000000000000000000000000000086
:100A70000000000000000000000000000000000076
:100A80000000000000000000000000000000000066
:100A9000000000000101010100000101010101004D
:100AA0000000000101000001000001000000010041
:100AB000000000010003000101010103000001002A
:100AC000000000010000030404040400030001000E
:100AD000000000010100000000010002000101000F
:100AE00000000000010101010101010101010000FC
:100AF00000000000000000000000000000000000F6
:100B000000000000000000000000000000000000E5
:100B100000000000000000000000000000000000D5
:100B200000000000000000000000000000000000C5
:100B300000000000000000000000000000000000B5
:100B400000000000000000000000000000000000A5
:100B50000000000000000000000000000000000095
:100B60000000000000000000000000000000000085
:100B70000000000000000000000000000000000075
:100B80000000000000000000000000000000000065
:100B90000000000000010101010100000000000050
:100BA000000000010101000002010000000000003F
:100BB000000000010000030400010100000000002B
:100BC0000000000100000403040001000000000018
:100BD0000000000101010005030001000000000009
:100BE0000000000000010000000101000000000002
:100BF00000000000000101010101000000000000F0
:100C000000000000000000000000000000000000E4
:100C100000000000000000000000000000000000D4
:100C200000000000000000000000000000000000C4
:100C300000000000000000000000000000000000B4
:100C400000000000000000000000000000000000A4
:100C50000000000000000000000000000000000094
:100C60000000000000000000000000000000000084
:100C70000000000000000000000000000000000074
:100C80000000000000000000000000000000000064
:100C90000000000000010101010000000000000050
:100CA000000000000001040401000000000000003A
:100CB000000000000101000401010000000000002C
:100CC000000000000100000304010000000000001B
:100CD000000000010100030000010100000000000D
:100CE00000000001000001030300010000000000FB
:100CF00000000001000002000000010000000000F0
:100D000000000001010101010101010000000000DB
:100D100000000000000000000000000000000000D3
:100D200000000000000000000000000000000000C3
:100D300000000000000000000000000000000000B3
:100D400000000000000000000000000000000000A3
:100D50000000000000000000000000000000000093
:100D60000000000000000000000000000000000083
:100D70000000000000000000000000000000000073
:100D80000000000000000000000000000000000063
:100D9000000000010101010101010100000000004B
:100DA0000000000100000100000001000000000040
:100DB0000000000100030404030001000000000023
:100DC0000000000102030405000101000000000012
:100DD0000000000100030404030001000000000003
:100DE0000000000100000100000001000000000000
:100DF00000000001010101010101010000000000EB
:100E000000000000000000000000000000000000E2
:100E100000000000000000000000000000000000D2
:100E200000000000000000000000000000000000C2
:100E300000000000000000000000000000000000B2
:100E400000000000000000000000000000000000A2
:100E50000000000000000000000000000000000092
:100E60000000000000000000000000000000000082
:100E70000000000000000000000000000000000072
:100E80000000000000000000000000000000000062
:100E9000000000000101010101010000000000004C
:100EA000000000010100000000010100000000003E
:100EB0000000000100030003030001000000000027
:100EC0000000000104040404040401000000000008
:100ED0000000000100030300030001000000000007
:100EE00000000001010100020101010000000000FA
:100EF00000000000000101010100000000000000EE
:100F000000000000000000000000000000000000E1
:100F100000000000000000000000000000000000D1
:100F200000000000000000000000000000000000C1
:100F300000000000000000000000000000000000B1
:100F400000000000000000000000000000000000A1
:100F50000000000000000000000000000000000091
:100F60000000000000000000000000000000000081
:100F70000000000000000000000000000000000071
:100F80000000000000000000000000000000000061
:100F90000000000000010101010101010100000049
:100FA000000000000001000000000101010000003D
:100FB000000000000001000300000000010000002C
:100FC0000000000101010003000101000100000018
:100FD0000000000104040400030000000100000000
:100FE00000000001040404030103000101000000EB
:100FF00000000001010101000100030001000000E8
:1010000000000000000001000000020001000000DC
:1010100000000000000001010101010101000000C9
:1010200000000000000000000000000000000000C0
:1010300000000000000000000000000000000000B0
:1010400000000000000000000000000000000000A0
:101050000000000000000000000000000000000090
:101060000000000000000000000000000000000080
:101070000000000000000000000000000000000070
:101080000000000000000000000000000000000060
:10109000000000010101010101000000000000004A
:1010A000000000010000000001000000000000003E
:1010B0000000000100030303010100000000000024
:1010C0000000000100000104040101010000000013
:1010D0000000000101000004040300010000000002
:1010E00000000000010000020000000100000000FC
:1010F00000000000010101010101010100000000E8
:1011000000000000000000000000000000000000DF
:1011100000000000000000000000000000000000CF
:1011200000000000000000000000000000000000BF
:1011300000000000000000000000000000000000AF
:10114000000000000000000000000000000000009F
:10115000000000000000000000000000000000008F
:10116000000000000000000000000000000000007F
:10117000000000000000000000000000000000006F
:10118000000000000000000000000000000000005F
:101190000000000000010101010101010100000047
:1011A0000000000000010000000104000100000038
:1011B000000000000101000003040404010000001D
:1011C0000000000001000003000105040100000010
:1011D0000000000101000101030100010100000005
:1011E00000000001000000030000030001000000F7
:1011F00000000001000000010000000001000000EC
:1012000000000001010101010101020001000000D4
:1012100000000000000000000001010101000000CA
:1012200000000000000000000000000000000000BE
:1012300000000000000000000000000000000000AE
:10124000000000000000000000000000000000009E
:10125000000000000000000000000000000000008E
:10126000000000000000000000000000000000007E
:10127000000000000000000000000000000000006E
:10128000000000000000000000000000000000005E
:101290000000000001010101010101000000000047
:1012A000000000000105020404000100000000002D
:1012B0000000000101010404040301010100000019
:1012C0000000000100030001030003000100000012
:1012D0000000000100030000000103000100000005
:1012E00000000001000000000100000001000000FB
:1012F00000000001010101000000010101000000E7
:1013000000000000000001010101010000000000D8
:1013100000000000000000000000000000000000CD
:1013200000000000000000000000000000000000BD
:1013300000000000000000000000000000000000AD
:10134000000000000000000000000000000000009D
:10135000000000000000000000000000000000008D
:10136000000000000000000000000000000000007D
:10137000000000000000000000000000000000006D
:10138000000000000000000000000000000000005D
:101390000000000101010101010100000000000046
:1013A0000000000104040304040100000000000028
:1013B000000000010404010404010000000000001A
:1013C0000000000100030303000100000000000012
:1013D0000000000100000300000100000000000008
:1013E00000000001000303030001000000000000F2
:1013F00000000001000001020001000000000000E8
:1014000000000001010101010101000000000000D5
:1014100000000000000000000000000000000000CC
:1014200000000000000000000000000000000000BC
:1014300000000000000000000000000000000000AC
:10144000000000000000000000000000000000009C
:10145000000000000000000000000000000000008C
:10146000000000000000000000000000000000007C
:10147000000000000000000000000000000000006C
:10148000000000000000000000000000000000005C
:101490000000000000000101010101010000000046
:1014A000000000000000010004040401000000002E
:1014B0000000000101010104040404010000000017
:1014C0000000000100000101010300010101000012
:1014D00000000001000300030000030300010000FE
:1014E00000000001020003000300000000010000F2
:1014F00000000001000000010101000000010000E7
:1015000000000001010101010001010101010000D1
:1015100000000000000000000000000000000000CB
:1015200000000000000000000000000000000000BB
:1015300000000000000000000000000000000000AB
:10154000000000000000000000000000000000009B
:10155000000000000000000000000000000000008B
:10156000000000000000000000000000000000007B
:10157000000000000000000000000000000000006B
:10158000000000000000000000000000000000005B
:101590000000000101010101010101000000000043
:1015A0000000000100000000000001000000000039
:1015B0000000000100010303000001000000000022
:1015C000000000010004040401000100000000000C
:1015D00000000001010404040300010100000000F8
:1015E00000000000010001010003000100000000F4
:1015F00000000000010300000300000100000000E3
:1016000000000000010000010000020100000000D5
:1016100000000000010101010101010100000000C2
:1016200000000000000000000000000000000000BA
:1016300000000000000000000000000000000000AA
:10164000000000000000000000000000000000009A
:10165000000000000000000000000000000000008A
:10166000000000000000000000000000000000007A
:10167000000000000000000000000000000000006A
:10168000000000000000000000000000000000005A
:101690000000000000010101010100000000000045
:1016A0000000000101010000000101010100000033
:1016B0000000000100000003000003000100000022
:1016C0000000000100030002030000000100000010
:1016D00000000001010103030101010101000000FC
:1016E00000000000000100000404010000000000F0
:1016F00000000000000104040404010000000000D8
:1017000000000000000101010101010000000000D3
:1017100000000000000000000000000000000000C9
:1017200000000000000000000000000000000000B9
:1017300000000000000000000000000000000000A9
:101740000000000000000000000000000000000099
:101750000000000000000000000000000000000089
:101760000000000000000000000000000000000079
:101770000000000000000000000000000000000069
:101780000000000000000000000000000000000059
:10179000000000010101010101000000010101013F
:1017A000010000010000000001010100010000042F
:1017B0000100000100000300030001000104040413
:1017C000010000010001000003000101010000040C
:1017D00001000001000003030300000003000204F5
:1017E00001000001010100000300000301000004EA
:1017F00001000000000100000301030001040404D3
:1018000001000000000101000000000001000004D0
:1018100001000000000001010101010101010101BD
:1018200001000000000000000000000000000000B7
:1018300000000000000000000000000000000000A8
:101840000000000000000000000000000000000098
:101850000000000000000000000000000000000088
:101860000000000000000000000000000000000078
:101870000000000000000000000000000000000068
:101880000000000000000000000000000000000058
:10189000000000000101010101010101010000003F
:1018A0000000000001000000010100000101010131
:1018B0000000000001000300000000000000000123
:1018C000000000000101030101010001010000010D
:1018D00000000000010000010100050001000101FD
:1018E00000000000010003040404040404000100DB
:1018F00000000001010001010100040001000100DD
:1019000000000001000000000003010101030100CC
:1019100000000001000000010000000003020100BF
:1019200000000001010101010301000101010100AA
:1019300000000000000000010000000100000000A5
:101940000000000000000001010101010000000092
:101950000000000000000000000000000000000087
:101960000000000000000000000000000000000077
:101970000000000000000000000000000000000067
:101980000000000000000000000000000000000057
:101990000000000100000000010001000100000043
:1019A0000100000100000000010001000100000032
:1019B0000100000100000000010101000100010020
:1019C0000100000100000000010001000100010011
:1019D00001000001010101000100010000010001FE
:1019E00000000100000000000000000000000000F6
:1019F00000000000000000000101010101010001E0
:101A000001010000010101010000000000010000CF
:101A100000010000010000010000010100010000C0
:101A200001000000010000030000000000010001AF
:101A300000000000010000010000010001010000A1
:101A4000000000010101000101030100000101008B
:101A50000101010100030000000003030001010077
:101A6000010001010001030100000100000101006B
:101A70000100010102000001010101010101010059
:101A8000010001010101010100000000000001004E
:101A90000101010000000000000000000000000043
:101AA0000000000000000000000000000000000036
:101AB0000000000000000000000000000000000026
:101AC0000000000000000000000000000000000016
:101AD00000000000000000000001010101010101FF
:101AE00001010000000000000001000000000000F3
:101AF00000010000000000000001000100010001E1
:101B000000010000000000000001000003000301CC
:101B100000010001010101010101000000030000BA
:101B200000010001040401000001010003000301A1
:101B30000001000104040000000101000300030093
:101B40000001000104040100000101000101010184
:101B50000101000104040100010003000300010071
:101B60000000000104040000000000030000010068
:101B7000000000010000010101020000010101005C
:101B8000000000010101010001010101010000004C
:101B90000000000000000001010101000000000041
:101BA000000000010101010100000100000000002F
:101BB0000000000100000300030001000101010119
:101BC00001010101000000030000010001050405FE
:101BD00004050101010003000300010101040504E3
:101BE00005040100010300030000010000050405D5
:101BF00004050100010203000300000000040504C5
:101C000005010100010300030000010000050405B7
:101C100004050101010003000300010101040504A2
:101C20000504010100000003000001000105040596
:101C3000040501010000030003000100010101018E
:101C4000010101010101010100000100000000008B
:101C50000000000000000001010101000000000080
:101C60000000000000000000000000000000000074
:101C70000000000000000000000000000000000064
:101C80000000000000000000000000000000000054
:101C9000000000010101010101010100000000003C
:101CA000000000010404040404040100000000001A
:101CB000000000010000030001000101000000001D
:101CC000000000010003000100030001000000000B
:101CD00000000001010300030003000100000000F8
:101CE00000000000010000020000000100000000F0
:101CF00000000000010101010101010100000000DC
:101D000000000000000000000000000000000000D3
:101D100000000000000000000000000000000000C3
:101D200000000000000000000000000000000000B3
:101D300000000000000000000000000000000000A3
:101D40000000000000000000000000000000000093
:101D50000000000000000000000000000000000083
:101D60000000000000000000000000000000000073
:101D70000000000000000000000000000000000063
:101D80000000000000000000000000000000000053
:101D90000000000000010101010101010101010039
:101DA0000000000101010000000403020000010026
:101DB000000000010000000101030101000001001A
:101DC0000000000100000005000400040001010003
:101DD00000000001010003010103010100010000F6
:101DE00000000000010000000004000000010000ED
:101DF00000000000010101010101010101010000D9
:101E000000000000000000000000000000000000D2
:101E100000000000000000000000000000000000C2
:101E200000000000000000000000000000000000B2
:101E300000000000000000000000000000000000A2
:101E40000000000000000000000000000000000092
:101E50000000000000000000000000000000000082
:101E60000000000000000000000000000000000072
:101E70000000000000000000000000000000000062
:101E80000000000000000000000000000000000052
:101E9000000000000000010101010101000000003C
:101EA0000000000101010104000000010000000029
:101EB0000000000100000303030000010000000017
:101EC0000000000104010104010104010000000000
:101ED00000000001000000030000000100000000FD
:101EE00000000001000003000100010100000000EB
:101EF00000000001010101000000010000000000DD
:101F000000000000000001010101010000000000CC
:101F100000000000000000000000000000000000C1
:101F200000000000000000000000000000000000B1
:101F300000000000000000000000000000000000A1
:101F40000000000000000000000000000000000091
:101F50000000000000000000000000000000000081
:101F60000000000000000000000000000000000071
:101F70000000000000000000000000000000000061
:101F80000000000000000000000000000000000051
:101F90000000000101010101010101010101010134
:101FA000010101010101040100040001010000011F
:101FB000040401010100000000000004000003010E
:101FC0000000010101000000010000040000000306
:101FD00000000101010100000100010101000001F8
:101FE00000000101000300000100030001000000E7
:101FF00000010101000000000100000001000000DC
:1020000000010101000100000100010001000101C7
:1020100000010101000100000000000001000101B9
:1020200000010101000101010000010101000000A7
:10203000000101010001000000000100010000009A
:102040000000010100010003000000000101010186
:102050000000010100000101010001000100000079
:102060000000010102030000000003000100000065
:102070000000010100000000000000000104010157
:102080000000010101010101010101010101010142
:10209000010101000000000000000000000000013C
:1020A000FFC0018020014010012008011FF801102D
:1020B000080110080110880110880110880090881C
:1020C000005048003008001FF8000880000CC000D5
:1020D0000000000000000000000000000000000000
:1020E0000001FF80018040014020012010011FF805
:1020F00001900801300801110801B10801510800E0
:102100009108005208003008001FF8000640000047
:10211000C0000000000000000000000000000000FF
:1021200000000001FF8001804001402001201001DB
:102130001FF8019008019008019248019008015091
:102140000800D248005188007008001FF8000440C1
:10215000000CC000000000000000000000000000B3
:10216000000000000001FF800180400140200120AC
:1021700010011FF801100801500801500801500813
:1021800001500801500800D00800B008001FF800F6
:1021900008400018C000000000000000000000001F
:1021A000003FFE0020830020828020824020822089
:1021B0002082202082202082202082202082202035
:1021C00082202082203FFE201001200800A0040071
:1021D0006003FFE0000000000000000000000000BD
:1021E0000000000000001FFC001FFD001FFD801FFD
:1021F000FDC01FFDC01FFDC01FFDC01FFDC01FFD96
:10220000C01FFDC01FFDC00001C00FFEC007FF4082
:1022100003FF80000000000000000000000000FF3D
:10222000FF0080018080014080012080011080013A
:1022300008800104800104800104800104800104FD
:10224000800104800104800104800104FFFF044038
:10225000008420004410002408001404000C03FF34
:10226000FC010204081020408000000000003E5BDA
:102270004F5B3E3E6B4F6B3E1C3E7C3E1C183C7ED3
:102280003C181C577D571C1C5E7F5E1C00183C18B8
:1022900000FFE7C3E7FF0018241800FFE7DBE7FFB4
:1022A00030483A060E2629792926407F0505074041
:1022B0007F05253F5A3CE73C5A7F3E1C1C08081C02
:1022C0001C3E7F14227F22145F5F005F5F06097F40
:1022D000017F006689956A606060606094A2FFA2D9
:1022E0009408047E040810207E201008082A1C0888
:1022F000081C2A08081E101010100C1E0C1E0C3092
:10230000383E3830060E3E0E060000000000000089
:102310005F00000007000700147F147F14242A7F49
:102320002A12231308646236495620500008070316
:1023300000001C2241000041221C002A1C7F1C2A94
:1023400008083E08080080703000080808080800E7
:102350000060600020100804023E5149453E0042E2
:102360007F400072494949462141494D33181412B2
:102370007F1027454545393C4A49493141211109DA
:10238000073649494936464949291E0000140000CC
:1023900000403400000008142241141414141400E6
:1023A0004122140802015909063E415D594E7C1232
:1023B00011127C7F494949363E414141227F4141CA
:1023C000413E7F494949417F090909013E41415147
:1023D000737F0808087F00417F41002040413F0192
:1023E0007F081422417F404040407F021C027F7FD3
:1023F0000408107F3E4141413E7F090909063E41E4
:1024000051215E7F09192946264949493203017F36
:1024100001033F4040403F1F2040201F3F403840C5
:102420003F631408146303047804036159494D435E
:10243000007F4141410204081020004141417F04D6
:1024400002010204404040404000030708002054BD
:102450005478407F2844443838444444283844441D
:10246000287F385454541800087E090218A4A49CEC
:10247000787F0804047800447D40002040403D00FF
:102480007F1028440000417F40007C047804787C61
:10249000080404783844444438FC182424181824C8
:1024A0002418FC7C08040408485454542404043FB1
:1024B00044243C4040207C1C2040201C3C403040B8
:1024C0003C44281028444C9090907C4464544C44E4
:1024D0000008364100000077000000413608000285
:1024E000010204023C2623263C1EA1A161123A40AF
:1024F00040207A3854545559215555794121545426
:102500007841215554784020545579400C1E527220
:1025100012395555555939545454593955545458FC
:102520000000457C410002457D420001457C40F0B1
:10253000292429F0F0282528F07C54554500205402
:10254000547C547C0A097F4932494949323248480F
:102550004832324A4848303A4141217A3A42402092
:1025600078009DA0A07D39444444393D4040403D21
:102570003C24FF2424487E4943662B2FFC2F2BFF4D
:102580000929F620C0887E090320545479410000AF
:10259000447D413048484A32384040227A007A0A25
:1025A0000A727D0D19317D2629292F2826292929EE
:1025B0002630484D40203808080808080808083820
:1025C0002F10C8ACBA2F102834FA00007B00000886
:1025D000142A142222142A14089500220095AA0015
:1025E0005500AAAA55AA55AA000000FF0010101015
:1025F000FF00141414FF001010FF00FF1010F01063
:10260000F0141414FC001414F700FF0000FF00FF86
:102610001414F404FC141417101F10101F101F14AE
:1026200014141F00101010F0000000001F101010F4
:10263000101F10101010F010000000FF10101010EC
:102640001010101010FF10000000FF140000FF0019
:10265000FF00001F10170000FC04F41414171017DB
:102660001414F404F40000FF00F7141414141414E8
:1026700014F700F7141414171410101F101F14145B
:1026800014F4141010F010F000001F101F000000D0
:102690001F14000000FC140000F010F01010FF10D8
:1026A000FF141414FF141010101F00000000F0108D
:1026B000FFFFFFFFFFF0F0F0F0F0FFFFFF00000072
:1026C0000000FFFF0F0F0F0F0F38444438447C2ADF
:1026D0002A3E147E02020606027E027E02635549ED
:1026E00041633844443C04407E201E2006027E02A2
:1026F0000299A5E7A5991C2A492A1C4C7201724C23
:10270000304A4D4D303048784830BC625A463D3EE4
:10271000494949007E0101017E2A2A2A2A2A444485
:102720005F444440514A444040444A51400000FF05
:102730000103E080FF000008086B6B0836123624A6
:1027400036060F090F0600001818000000101000D0
:102750003040FF0101001F01011E00191D1712006A
:102760003C3C3C3C0000000000AED5F0A83FD3004C
:10277000408D14A1C8DA1281CFD9F1DB40A4A6AFF5
:10278000200021007F220007454550524F4D207701
:10279000726974696E67206572726F7200696E6922
:1027A0007469616C697A652074686520454550528A
:1027B0004F4D00000000000000000000000000007D
:1027C0000000000000000000000000000000000009
:1027D00000000000000000000000000000000000F9
:1027E00000000000000000000000000000000000E9
:1027F00000000000000000000000000000000420B5
:1028000000000000000000000000000002240FB0E3
:102810003FE0000000000000000000E782200A788E
:1028200000C00000000000000000013647FF124811
:10283000010000000000000000000036626404FC9B
:10284000020000000000000000000026227F048437
:1028500002000000000000000000006623A40CFC41
:102860007FF00000000000000000003626240E84E7
:10287000020000000000000000000016623F0DFC96
:10288000020000000000000000000136C2241C8489
:102890000200000000000000000000E7823F14FC7E
:1028A0000200000000000000000000000620048478
:1028B0000E00000600000000000000000000000004
:1028C00000000019818CCF04A2F822510000000002
:1028D0000000001082524904A22022510000000092
:1028E0000000002640924F07A22323D100000000E1
:1028F0000000002641124904AA23225500000000CE
:1029000000000010821249049420224A00000000B6
:102910000000001983CCEF0494203A4A0000000024
:10292000FFC00006000000000000000000000001E1
:1029300000C00000000000000000000000000002D5
:10294000014000000000000000000007FF800004BC
:102950000240000000000000000000061040000FD0
:10296000FC400000000000000000000508200008F6
:102970000440000000000000000000048410000972
:102980002540000000FFFFFFFFFFFFFCFFFBFFF8FB
:10299000057F8000000000000600040444081008C1
:1029A0000540400000000000050002064208080A39
:1029B000054020000000000004800104594804097B
:1029C000E4801000000000000440008458880208E1
:1029D00005800800000000000420004543E80108CD
:1029E00006800400FFFFFFFFFFFFFFFC43EFFFFF38
:1029F000FFFFFE0000000000041800144008004122
:102A000008800100000000000414000A47E80023C9
:102A10000840000000000000041200055F0C0010D8
:102A2000182000000000000004110002C00A000885
:102A30000010000000000000041080017FF9000475
:102A40000008000FFFFFFFFFFFFFFFFFFFFFFFFF7B
:102A5000FFFFFF0000000000041060004000400184
:102A600000020000000000000410500020002000C0
:102A7000800100FFFFFFFFFFFC1048001000100066
:102A80003FF0800000000000021044000800080031
:102A90005FF8400000000000011042000400040044
:102AA0006FFC207FFFFFFFFFFFFFFFFFFFFFFFFF28
:102AB000F001FF0000000000005041800100030011
:102AC00077FE08000000000000304140009E0C80AE
:102AD00077FE0407FFFFFFFFFFF041200041F840B1
:102AE00077FE020000000000000841100020C7200F
:102AF00077FE0100000000000004410800130010F0
:102B000077FE0001FFFFFFFFFFFFFFFFFFFFFFFF5B
:102B1000F7FFFF0000000000000141060004000470
:102B200077FE00000FFFFFFFFFFFC105000200025C
:102B300037FE000000000000000041048001000199
:102B400017FE00000000000000002104400080008B
:102B500087FE00000000000000001104200040007B
:102B60004001000000000000000009041FFFFFFFFB
:102B7000FFFFFF000000000000000504100030000F
:102B8000200080000000000000000304100030005E
:102B900020008000000FFFFFFFFFFF041000300047
:102BA00020008000000000000000008410003000C1
:102BB000200080008A1E11241FBECFEFD8E0DEBFA8
:102BC000CDBF11E0A0E0B1E0E0E8F0E402C0059084
:102BD0000D92AC31B107D9F727E0ACE1B1E001C00B
:102BE0001D92A934B207E1F715E1CBEDD5E104C0A0
:102BF0002197FE010E943320CA3DD107C9F70E94E8
:102C0000E61E0C943E200C9400006F927F928F92EF
:102C10009F92AF92BF92CF92DF92EF92FF920F936B
:102C20001F93CF93DF931092280310922703C09035
:102C30002501E6E2F1E041E080E090E02191319170
:102C40002230310519F02630310511F4C82E04C0A8
:102C50002330310509F440E00196811521E0920707
:102C600069F740932603C0922501D12CC6018497B1
:102C7000909324018093230190932201809321015A
:102C800084E2C80ED11C8091210190912201C816C6
:102C9000D9060CF4F4C02091230130912401A9013C
:102CA000485F5F4F481759075CF4079690932201DD
:102CB00080932101205F3F4F309324012093230113
:102CC000A0902101B0902201F501EE0FFF1FEA5DF7
:102CD000FE4F80809180C091280321E082169104EC
:102CE00079F5E0902703F12C370186E0681A710826
:102CF000D0E04E0126E0821A910820E140E1B301C4
:102D0000C4010E94D81C9701225F3F4FB701665F44
:102D10007F4F00E0AE01CE010E94141DAE01425F64
:102D20005F4F9701B701CE010A960E94141DEE2451
:102D3000E39406E126E14FE152E2B301C40164C02D
:102D4000C4018B7F029779F560912703062F10E06D
:102D5000D0E0B8016250710921E140E1CE01019754
:102D60000E94D81C20910101B80166507109CE0162
:102D70000697EE24E39406E1203F21F426E149E59D
:102D800051E20FC0203121F426E147E151E209C0B0
:102D90002F3F21F426E145ED50E203C026E143E94F
:102DA00050E20E943E1CC091280383E088169104E3
:102DB000C9F480902703912C26E0821A9108D0E074
:102DC0002697E12C06E126E14DED51E2B401CE015A
:102DD0000E943E1CEE24E39426E14BE951E2B4014B
:102DE000CE0112C085E08816910489F46091270312
:102DF00070E0665071098C2F90E0EE24E39406E1B8
:102E000026E14DED51E206970E943E1C21C024E0D0
:102E100082169104E9F4E0902703F12C370180E158
:102E2000680E711CD0E04E0120E1820E911C85E0FD
:102E3000E80EF11C259601E09301A401B701CE0133
:102E40000E94141D9301AE01B701C4010E94141D1C
:102E500080912803815F893718F48093280307C085
:102E60001092280380912703815F809327032FEF1F
:102E7000A21AB20AB0922201A092210104CFDF91DE
:102E8000CF911F910F91FF90EF90DF90CF90BF9067
:102E9000AF909F908F907F906F9008950C94032037
:102EA000CF93DF931092200110921F0180910001B7
:102EB00090E00197282F30E030931D0180931E0190
:102EC000832F922F20E030E0AA27BB27A81BB90B45
:102ED000BC0161507F4FAD01480F591F681779073A
:102EE00074F0FC01ED56FF4FE491E901CA5DDE4F3D
:102EF000F0E0F983E88301962E5F3F4FECCF90938B
:102F00002201809321015093240140932301DF91FA
:102F1000CF9108950E94B81A0E9405168DE297E09D
:102F20000C94FD1BAF92BF92CF92DF92EF92FF9273
:102F30000F931F93CF93DF9310921C010E94ED1B00
:102F400082FF06C00E9450170E948A170E949217A3
:102F50000E94ED1B83FF85C0C0E6D0E008E010E0D2
:102F600080E1E82EF12C98E2C92ED12C20E3A22E8C
:102F7000B12C0E94ED1B83FF6CC00E94B81A0E9406
:102F8000051620E848E260E070E088E590E00E94E5
:102F9000D81CD0933907C093380710933B07009390
:102FA0003A078FE690E00E94CB1AD0933907C0937E
:102FB0003807F0923B07E0923A076091000170E019
:102FC00080E090E04AE00E94EC1A8DE690E00E94DA
:102FD000CB1A4AE060E270E080E090E00E94EC1AD8
:102FE000D0933907C0933807D0923B07C0923A0775
:102FF00088E690E00E94CB1AD0933907C093380737
:10300000B0923B07A0923A0780911F019091200156
:103010000E942D1B0E94ED1B87FF09C080910001BB
:10302000803218F48F5F809300010E9450170E9435
:10303000ED1B84FF09C080910001823018F081509F
:10304000809300010E9450178DE297E00E94FD1BC3
:1030500090CF0E94B81A0E9405168DE297E00E9458
:10306000FD1B0E94ED1B87FF12C080EF80930101C2
:10307000E0912501F0E0EE0FFF1FEA5FFE4F808137
:103080009181009791F581E080931C0133C00E94EB
:10309000ED1B982F907184FF0AC090930101E0917D
:1030A0002501F0E0EE0FFF1FEA5BFE4FE8CF0E9424
:1030B000ED1B85FF0BC08FEF80930101E09125018F
:1030C000F0E0EE0FFF1FEC5DFE4FD9CF0E94ED1B2D
:1030D00086FF10C081E080930101E0912501F0E0BE
:1030E000EE0FFF1FE85DFE4FCACF0397049758F21B
:1030F0000E948A1780911C01882309F4DBC0E091AB
:103100002501F0E0DF01AA0FBB1FAA5DBE4F4D9164
:103110005C9111974230510509F04EC02091010198
:10312000022E000C330BE20FF31FEF01CC0FDD1F5B
:10313000CA5DDE4F688179816115710591F1643056
:10314000710539F486E090E0998388831D921C9282
:10315000A0C065307105A9F4E20FF31FEE0FFF1F49
:10316000EA5DFE4F80819181009729F483E090E031
:1031700091838083E7CF049709F094C071836083C3
:10318000E1CF6330710509F08DC0E20FF31FEE0F40
:10319000FF1FEA5DFE4F80819181009729F47183C2
:1031A000608359834883D2CF049709F07BC085E0C0
:1031B00090E091838083F5CF4630510509F072C0CD
:1031C00080910101082E000C990BE80FF91FEF0107
:1031D000CC0FDD1FCA5DDE4F2881398121153105F5
:1031E00009F443C02430310529F4598348832D93D1
:1031F0003C934FC02530310549F5E80FF91FEE0F1C
:10320000FF1FEA5DFE4F6081718180911F019091E7
:1032100020016115710559F423E030E031832083EA
:103220005983488324E030E02D933C9309C06430F7
:10323000710579F531832083598348836D937C939D
:1032400001969093200180931F0123C02330310504
:1032500049F5E80FF91FEE0FFF1FEA5DFE4F808171
:103260009181009749F43183208382E090E0998333
:10327000888384E090E00BC08430910599F425E0C8
:1032800030E03183208322E030E0398328838D933E
:103290009C9380911F0190912001019690932001B1
:1032A00080931F010E948A1762E370E080E090E043
:1032B0000E94631B80912603882309F4D1C0C0912A
:1032C0000001D0E02696CE010E94FB1F60911F01F5
:1032D00070912001282F30E0621773070CF4BBC0F7
:1032E000882309F4B8C010E00E94B81AEDE2F3E0B8
:1032F0009CE79E0F9E1721F0808180618193FACF19
:10330000EDEAF6E09CE79E0F9E1721F08081806831
:103310008193FACFC4E0D0E021E0AE0164E070E038
:103320008DE297E00E94201C2196C034D105A1F7C0
:10333000C4E0D0E021E0AE016FE770E08DE297E0FD
:103340000E94201C2196C034D105A1F700E024E0A2
:1033500030E04CE450E064E070E08CE290E00E94E9
:10336000141D84E390E090933907809338071092FE
:103370003B0710923A078FE890E00E94CB1AC0E218
:10338000D0E0D0933907C093380780E190E0909364
:103390003B0780933A0789E890E00E94CB1A80911E
:1033A0001F01909120010E942D1BD0933907C093DB
:1033B000380788E190E090933B0780933A0780E8D4
:1033C00090E00E94CB1A8091000190E006960E9446
:1033D000FB1F682F70E080E090E04AE00E94EC1A4A
:1033E000112371F0D0933907C093380788E290E039
:1033F00090933B0780933A0785E790E00E94CB1AB1
:103400008DE297E00E94FD1B0E94ED1B83FFFCCF25
:1034100080910001803210F48F5F01C081E08093C1
:1034200000010E9450170E94B81A0E9405168DE2F2
:1034300097E00E94FD1B62E370E080E090E0DF9186
:10344000CF911F910F91FF90EF90DF90CF90BF90A1
:10345000AF900C94631BCE010E944E1711E044CF35
:10346000DF91CF911F910F91FF90EF90DF90CF9060
:10347000BF90AF900895CF92DF92EF92FF920F939B
:103480001F93CF93DF936C017A018B01C0E0D0E0F2
:10349000CE15DF0589F0D8016D918D01D601ED9132
:1034A000FC910190F081E02DC6010995892B11F462
:1034B0007E0102C02196ECCFC701DF91CF911F9111
:1034C0000F91FF90EF90DF90CF9008953FB7F89461
:1034D0008091450790914607A0914707B091480712
:1034E00026B5A89B05C02F3F19F00196A11DB11D5F
:1034F0003FBFBA2FA92F982F8827820F911DA11D9A
:10350000B11DBC01CD0142E0660F771F881F991FD6
:103510004A95D1F708958093BB0084E88093BC005E
:103520008091BC0087FFFCCF089584EA8093BC00A3
:103530008091BC0087FFFCCF88E70C948B1A08951C
:10354000089580E090E00895009769F0FC010190F3
:103550000020E9F73197AF01481B590BBC0189E204
:1035600097E00C943B1A80E090E008950E94392087
:1035700080E0E9E2F3E081118FEF002481938193F1
:10358000819381930394D1F7E9E2F7E0128A118ADB
:10359000108A178608950F931F93CF93DF938C01A2
:1035A000C0E0D0E0F801EC0FFD1F6491662371F0DC
:1035B000E0912907F0912A070190F081E02D89E23E
:1035C00097E00995892B11F02196ECCFCE01DF9180
:1035D000CF911F910F9108958F929F92AF92BF92BA
:1035E0000F931F93CF93DF93CDB7DEB7A1970FB69D
:1035F000F894DEBF0FBECDBF19A2423008F44AE0F6
:103600008E010F5D1F4F842E912CA12CB12CA50192
:1036100094010E941120E62FB901CA01015011093D
:10362000EA3014F4E05D01C0E95CD801EC93232B8F
:10363000242B252B61F7C8010E94A41AA1960FB66E
:10364000F894DEBF0FBECDBFDF91CF911F910F91D8
:10365000BF90AF909F908F900895CF92DF92EF929E
:10366000FF92CF93DF936C01990FEE08FF08F7FEEE
:103670001FC0E0912907F0912A070190F081E02D09
:103680006DE289E297E00995EC0166277727CB0187
:103690006C197D098E099F094AE00E94EC1A8C0F73
:1036A0009D1FDF91CF91FF90EF90DF90CF90089515
:1036B0004AE0C701B601DF91CF91FF90EF90DF9014
:1036C000CF900C94EC1A8F929F92AF92BF92CF92B0
:1036D000DF92EF92FF926B017C010E94661A4B0110
:1036E0005C01C114D104E104F104F1F00E94661AF6
:1036F000DC01CB0188199909AA09BB09883E9340CE
:10370000A105B10570F321E0C21AD108E108F10862
:1037100088EE880E83E0981EA11CB11CC114D10450
:10372000E104F10419F7DDCFFF90EF90DF90CF9027
:10373000BF90AF909F908F90089568EE73E080E007
:1037400090E00C94631B1F920F920FB60F921124FE
:103750002F933F938F939F93AF93BF938091410794
:1037600090914207A0914307B091440730914007E0
:1037700023E0230F2D3720F40196A11DB11D05C0B4
:1037800026E8230F0296A11DB11D209340078093C8
:10379000410790934207A0934307B0934407809159
:1037A000450790914607A0914707B09148070196B9
:1037B000A11DB11D8093450790934607A09347072D
:1037C000B0934807BF91AF919F918F913F912F91F7
:1037D0000F900FBE0F901F901895339902C080E88C
:1037E00001C080E04A9B8061319B80624B9B80647A
:1037F0004C9B8860329B846008950E94951A80E4F7
:103800008093BB0084E88093BC00E9E2F3E09091F0
:10381000BC0097FFFCCF91919093BB008093BC00BC
:1038200097E0E932F90799F78091BC0087FFFCCF58
:1038300084E98093BC008091BC0084FDFCCF089596
:1038400060387105D0F440345105B8F4E1E6F2E295
:1038500080E1849FD001A0781124A60F4770E40F67
:10386000F11D8491A75DBC4F222319F06C91862B2A
:1038700003C080956C9186238C9308952F923F927C
:103880004F925F926F927F928F929F92AF92BF9270
:10389000CF92DF92EF92FF920F931F93CF93DF931C
:1038A00000D000D01F92CDB7DEB7C22ED12C9C0124
:1038B0002C0D3D1D37FD64C0803891050CF060C0B3
:1038C00010E09B01200F311F37FD5AC06034710595
:1038D0000CF056C03E2D3A012B011C01C601079683
:1038E000AC0193E0559547959A95E1F75A83498342
:1038F000A12CB12CE12CF12CE016F1060CF040C00B
:103900001D821C824701840C951C4C815D814C15E5
:103910005D0574F5EC81FD8183E0F595E7958A9569
:10392000E1F7EA0DFB1DE60DF71DE491F0E08C8157
:103930009D818770992740E850E002C055954795D2
:103940008A95E2F7E423F523EF2B61F0232FA401FE
:103950006C817D81620D731D8DE297E03B830E9437
:10396000201C3B818C819D8101969D838C83CDCFD2
:103970005FEFE51AF50A89819A81A80EB91EBCCFBE
:103980000F900F900F900F900F90DF91CF911F919C
:103990000F91FF90EF90DF90CF90BF90AF909F90EE
:1039A0008F907F906F905F904F903F902F900895F1
:1039B000AF92BF92CF92DF92EF92FF920F931F933D
:1039C000CF93DF937B01EC015C01A40EB11C6B0172
:1039D000C20ED11CCA15DB05E4F48701F7FE0FC047
:1039E00000E010E00CC0081719078CF420E0A801D3
:1039F000BE018DE297E00E94201C0F5F1F4FC601A1
:103A000021E4C216D1047CF380E490E0ECCF21964F
:103A1000E1CFDF91CF911F910F91FF90EF90DF9059
:103A2000CF90BF90AF9008954F925F926F927F9228
:103A30008F929F92AF92BF92CF92DF92EF92FF92BE
:103A40000F931F93CF93DF93EC017B016A01C901B0
:103A5000A901461B570B57FF03C0519541955109CA
:103A600096012C1B3D0B37FF03C031952195310981
:103A700011E02417350714F010E00AC03C2D2D2D5D
:103A80006C01832F922F3C2F2D2FE701E32EF22E76
:103A9000CC16DD0654F43E2D2F2D7C01832F922F62
:103AA0003C2F2D2FE601C32ED22E26014C1A5D0A83
:103AB0004C018E189F0897FE03C091948194910841
:103AC000520157FE03C02FEFA21AB20AB594A79471
:103AD000E816F90614F08FEF01C081E0682E880F18
:103AE0007708CC16DD06B4F0202F112319F0AE01B3
:103AF000B70102C0A701BE018DE297E00E94201C21
:103B0000A818B908B7FE04C0E60CF71CA40CB51C35
:103B10002196E7CFDF91CF911F910F91FF90EF900A
:103B2000DF90CF90BF90AF909F908F907F906F90DD
:103B30005F904F9008952F923F924F925F926F92B5
:103B40007F928F929F92AF92BF92CF92DF92EF922D
:103B5000FF920F931F93CF93DF93CDB7DEB72997D3
:103B60000FB6F894DEBF0FBECDBFFC016A3069F41A
:103B700025898189928938E0239F800D911D112428
:103B8000928B818B108A1786AAC06D3009F4A7C06A
:103B900099878887F58834882388618872880785A3
:103BA000108900381105C4F0A885B98555962C9167
:103BB0005597422F50E01F968D919C915097B6E0FB
:103BC0002B9F800D911D1124E885F985908B8787A7
:103BD000268921116EC083C0F0E46F16710424F7AA
:103BE000C80125E0F29E800D911D112418161906BA
:103BF000DCF68F2D90E09C838B83C301A8E0FA9EB6
:103C0000800D911D11241816190674F6B5E06B9FEE
:103C1000B0011124FB01E759FD4DFA83E98330E03F
:103C20008885998504969E838D83E981FA81E49045
:103C3000353009F4E12C430188E0482EE0FC02C055
:103C4000532C01C0522C51100BC0321009C0E69405
:103C50004A948B819C81880E991E4110EFCF1BC026
:103C600068018C2D801B8F1590F754018A2D8819BF
:103C70008F1568F4252DA501B6018D819E813F83A6
:103C80000E94201C9FEFA91AB90A3F81EFCFAFEF26
:103C9000CA1ADA0AE6CF3F5FEB81FC810E0F1F1FC5
:103CA00089819A8101969A838983363009F0BDCF44
:103CB0007BCF6AEF64039001659F300D112420587B
:103CC0003F4F281739075CF4A885B985ED91FC9121
:103CD00011970190F081E02D6AE0CD01099581E016
:103CE00090E029960FB6F894DEBF0FBECDBFDF91EE
:103CF000CF911F910F91FF90EF90DF90CF90BF90E9
:103D0000AF909F908F907F906F905F904F903F907B
:103D10002F900895E9E2F7E013821282118612864D
:103D200080E1838710861782158686E091E0918373
:103D3000808384E191E095838483108A1786128AB8
:103D4000118A81E0838B148A858B168A08950F93DC
:103D50001F93CF93DF93EC0181E090E00E94FB1F63
:103D600080FF2CC08AE090E00E94FB1F9FEF980F1D
:103D70009E3F20F522E330E0388B2F8728E330E0A8
:103D80003A8B298B0BE010E0E881F9810190F081FA
:103D9000E02D682FCE010995C8010E94FB1F0F5F1F
:103DA0001F4F0131110581F7CE0104960E94FD1BC2
:103DB000DF91CF911F910F910C949D1BDF91CF91BB
:103DC0001F910F91089504970C94A71E789484B5C1
:103DD000826084BD84B5816084BD85B5826085BD07
:103DE00085B5816085BD80916E00816080936E0095
:103DF0001092810080918100826080938100809187
:103E00008100816080938100809180008160809337
:103E100080008091B10084608093B1008091B000F7
:103E200081608093B00080917A00846080937A00F2
:103E300080917A00826080937A0080917A0081601C
:103E400080937A0080917A00806880937A00109243
:103E5000C10081EC80937C0088B18E6088B987B105
:103E60008E6087B98BB18C618BB98AB18C6F8AB93E
:103E70008BB1806E8BB91092B90088E48093B80042
:103E80000E94951A80E00E948B1AC9E6D7E21C2F87
:103E9000115EFE0184910E948B1A21961C13F9CFAA
:103EA00084E98093BC008091BC0084FDFCCF81E05C
:103EB0008093B800EE24E39400E420E843EB57E25B
:103EC00060E070E080E090E00E943E1C8DE297E0B0
:103ED0000E94FD1BC0E000E010E0C8010E94FB1F33
:103EE000C80F0F5F1F4F07301105B9F7CD3E09F41A
:103EF0006FC00E94B81A8DE997E20E94CB1A86E142
:103F000091E00E94A41A6C2F70E080E090E04AE0FB
:103F10000E94EC1A89E191E00E94A41A4AE06DEE39
:103F200070E080E090E00E94EC1A86E191E00E944F
:103F3000A41A8DE297E00E94FD1BC0E0D0E060E093
:103F4000CE010E944E172196C11584E0D807B9F71B
:103F500063E780E090E00E944E176FE681E090E01A
:103F60000E944E176BE682E090E00E944E176FE6CB
:103F700083E090E00E944E1762E684E090E00E94A9
:103F80004E1761E685E090E00E944E176EE686E0EF
:103F900090E00E944E1710E0C0E0D0E0CE010E94F9
:103FA000FB1F180F2196C730D105C1F7112321F04F
:103FB000E0E0F0E0099508C088E897E20E94CB1A9B
:103FC00086E191E00E94A41A8DE297E00E94FD1B19
:103FD0006CED75E080E090E00E94631B0E9450173A
:103FE0000E948A17C0E0D0E00E9492172097E1F368
:103FF0000E940000F9CFF999FECF92BD81BDF89AD9
:10400000992780B50895262FF999FECF1FBA92BD42
:1040100081BD20BD0FB6F894FA9AF99A0FBE0196A9
:104020000895A1E21A2EAA1BBB1BFD010DC0AA1FF9
:10403000BB1FEE1FFF1FA217B307E407F50720F011
:10404000A21BB30BE40BF50B661F771F881F991F8C
:104050001A9469F760957095809590959B01AC01D5
:10406000BD01CF010895EE0FFF1F0590F491E02DE3
:10407000099481E090E0F8940C943E20F894FFCFEE
:1040800001F0000000009B1D3B1AA11AA01AA71EF8
:0C409000FCFF0000E31E0D0A00213D00B3
:107E0000112484B714BE81FFF0D085E080938100F7
:107E100082E08093C00088E18093C10086E0809377
:107E2000C20080E18093C4008EE0C9D0259A86E02C
:107E300020E33CEF91E0309385002093840096BBD3
:107E4000B09BFECF1D9AA8958150A9F7CC24DD24C4
:107E500088248394B5E0AB2EA1E19A2EF3E0BF2EE7
:107E6000A2D0813461F49FD0082FAFD0023811F036
:107E7000013811F484E001C083E08DD089C08234E0
:107E800011F484E103C0853419F485E0A6D080C0E4
:107E9000853579F488D0E82EFF2485D0082F10E0AE
:107EA000102F00270E291F29000F111F8ED06801E7
:107EB0006FC0863521F484E090D080E0DECF843638
:107EC00009F040C070D06FD0082F6DD080E0C81688
:107ED00080E7D80618F4F601B7BEE895C0E0D1E017
:107EE00062D089930C17E1F7F0E0CF16F0E7DF06D8
:107EF00018F0F601B7BEE89568D007B600FCFDCFD4
:107F0000A601A0E0B1E02C9130E011968C91119780
:107F100090E0982F8827822B932B1296FA010C0160
:107F200087BEE89511244E5F5F4FF1E0A038BF0790
:107F300051F7F601A7BEE89507B600FCFDCF97BE46
:107F4000E89526C08437B1F42ED02DD0F82E2BD052
:107F50003CD0F601EF2C8F010F5F1F4F84911BD097
:107F6000EA94F801C1F70894C11CD11CFA94CF0C13
:107F7000D11C0EC0853739F428D08EE10CD085E9AC
:107F80000AD08FE07ACF813511F488E018D01DD067
:107F900080E101D065CF982F8091C00085FFFCCF94
:107FA0009093C60008958091C00087FFFCCF809118
:107FB000C00084FD01C0A8958091C6000895E0E648
:107FC000F0E098E1908380830895EDDF803219F02E
:107FD00088E0F5DFFFCF84E1DECF1F93182FE3DFCA
:107FE0001150E9F7F2DF1F91089580E0E8DFEE27F6
:047FF000FF270994CA
:027FFE00040479
:0400000300007E007B
:00000001FF
