:100000000C9423160C944B160C944B160C944B1614
:100010000C944B160C944B160C944B160C944B16DC
:100020000C944B160C944B160C94661F0C94D81F12
:100030000C944B160C944B160C944B160C944B16BC
:100040000C944B160C944B160C944B160C944B16AC
:100050000C944B160C944B160C944B160C944F1A94
:100060000C944B160C944B160C944B160C944B168C
:100070000C944B160C944B160C944B160C944B167C
:100080000C944B160C944B160C944B160C944B166C
:100090000C944B160C944B160C944B160C944B165C
:1000A0000C944B160C944B160C944B16000000004D
:1000B0000000044006C00FE0010001001FF0010035
:1000C0000280046018100000000000000000000022
:1000D0000100010001F001003FF8010001C0012012
:1000E000010001000000000000000000000000000E
:1000F0000000000000000000000000000000000000
:1001000000000000000000000000000000000101ED
:1001100001000000000000000000000000000104D9
:1001200001000000000000000000000000000100CD
:1001300001010101000000000000000001010103B5
:10014000000304010000000000000000010400039F
:100150000201010100000000000000000101010196
:10016000030100000000000000000000000000018A
:100170000401000000000000000000000000000179
:10018000010100000000000000000000000000006D
:10019000000000000000000000000000000000005F
:1001A000000000000000000000000000000000004F
:1001B000000000000000000000000000000000003F
:1001C000000000000000000000000000000000002F
:1001D000000000000000000000000000000000001F
:1001E000000000000000000000000000010101010B
:1001F00001000000000000000000000001000000FD
:1002000001000000000000000000000001000300E9
:1002100001000101010000000000000001000302D4
:1002200001000104010000000000000001010103C1
:1002300001010104010000000000000000010100B4
:1002400000000004010000000000000000010000A8
:10025000000100000100000000000000000100009B
:100260000001010101000000000000000001010187
:10027000010100000000000000000000000000007C
:10028000000000000000000000000000000000006E
:10029000000000000000000000000000000000005E
:1002A000000000000000000000000000000000004E
:1002B000000000000000000000000000000000003E
:1002C000000000000000000000000000000000002E
:1002D000000000000000000000000000000000001E
:1002E000000000000000000000000000000101010B
:1002F00001010101000000000000000000010000F9
:1003000000000001010100000000000001010301E4
:1003100001010000000100000000000001000002D7
:1003200003000003000100000000000001000404BD
:1003300001000300010100000000000001010404AD
:1003400001000000010000000000000000010101A8
:100350000101010101000000000000000000000098
:10036000000000000000000000000000000000008D
:10037000000000000000000000000000000000007D
:10038000000000000000000000000000000000006D
:10039000000000000000000000000000000000005D
:1003A000000000000000000000000000000000004D
:1003B000000000000000000000000000000000003D
:1003C000000000000000000000000000000000002D
:1003D000000000000000000000000000000000001D
:1003E000000000000000000000000000000101010A
:1003F00001000000000000000000000001010000FA
:1004000001000000000000000000000001000003E7
:1004100001000000000000000000000001010000D9
:1004200001010000000000000000000001010302C3
:1004300000010000000000000000000001040303B0
:10044000000100000000000000000000010404059D
:100450000401000000000000000000000101010193
:10046000010100000000000000000000000000008A
:10047000000000000000000000000000000000007C
:10048000000000000000000000000000000000006C
:10049000000000000000000000000000000000005C
:1004A000000000000000000000000000000000004C
:1004B000000000000000000000000000000000003C
:1004C000000000000000000000000000000000002C
:1004D000000000000000000000000000000000001C
:1004E0000000000000000000000000000001010109
:1004F00001010000000000000000000000010002F7
:1005000001010100000000000000000000010003E4
:1005100000000100000000000000000001010100D7
:1005200001000101000000000000000001040100C2
:1005300001000001000000000000000001040300B1
:1005400000010001000000000000000001040000A4
:100550000003000100000000000000000101010193
:100560000101010100000000000000000000000087
:10057000000000000000000000000000000000007B
:10058000000000000000000000000000000000006B
:10059000000000000000000000000000000000005B
:1005A000000000000000000000000000000000004B
:1005B000000000000000000000000000000000003B
:1005C000000000000000000000000000000000002B
:1005D000000000000000000000000000000000001B
:1005E000000000000000000000000000000000010A
:1005F00001010101010100000000000001010101F1
:1006000000000000000100000000000001000000E8
:1006100004010101000100000000000001000100D0
:1006200001000000000101000000000001000100C5
:1006300003000301040001000000000001000100AC
:10064000000500000100010000000000010004019D
:100650000300030001000100000000000101000090
:100660000000010001000101010000000001000183
:100670000101040000000002010000000001000070
:100680000000000101000000010000000001010164
:100690000101010101010101010000000000000051
:1006A000000000000000000000000000000000004A
:1006B000000000000000000000000000000000003A
:1006C000000000000000000000000000000000002A
:1006D000000000000000000000000000000000001A
:1006E000000000000000000000000000000000000A
:1006F00000000000000000000000000000000000FA
:1007000000000000000000000000000000000000E9
:1007100000000000000000000000000000000000D9
:1007200000000000000000000000000000000000C9
:1007300000000000000000000000000000000000B9
:1007400000000000000000000000000000000000A9
:100750000000000000000000000000000000000099
:100760000000000000000000000000000000000188
:100770000101010101010000000000000000010171
:100780000000010002010000000000000000010064
:100790000000010300010000000000000000010350
:1007A0000000030000010000000000000000010044
:1007B0000301010000010000000000000101010030
:1007C0000300010001010000000000000104040416
:1007D000040400000100000000000000010101010C
:1007E0000101010101000000000000000000000103
:1007F00001010101010000000000000000010101F1
:1008000000000000010000000000000001010400E1
:1008100003010100010100000000000001040403C5
:1008200000030000020100000000000001040400B9
:1008300003000300010100000000000001010101AC
:1008400001010000010000000000000000000000A5
:100850000001010101000000000000000000000094
:100860000000000000000000000000000000000088
:100870000000000000000000000000000000000078
:100880000000000000000000000000000000000068
:100890000000000000000000000000000000000058
:1008A0000000000000000000000000000000000048
:1008B0000000000000000000000000000000000038
:1008C0000000000000000000000000000000000028
:1008D0000000000000000000000000000000000018
:1008E0000000000000000000000000000001010105
:1008F00001010101010100000000000000010000F1
:1009000001010000000100000000000000010000E3
:1009100000030000000100000000000000010300CF
:1009200001010100030100000000000000010001BE
:1009300004040401000100000000000001010001A6
:100940000404040100010100000000000100030094
:10095000000300000300010000000000010000008F
:10096000000001000002010000000000010101017F
:100970000101010101010100000000000000000070
:100980000000000000000000000000000000000067
:100990000000000000000000000000000000000057
:1009A0000000000000000000000000000000000047
:1009B0000000000000000000000000000000000037
:1009C0000000000000000000000000000000000027
:1009D0000000000000000000000000000000000017
:1009E0000000000000000000000000000000010105
:1009F00001010101000000000000000000000100F2
:100A000000000001000000000000000001010103DF
:100A100003030001000000000000000001020003C9
:100A200004040001000000000000000001000304B5
:100A300004040101000000000000000001010101A8
:100A400000000100000000000000000000000001A4
:100A50000101010000000000000000000000000093
:100A60000000000000000000000000000000000086
:100A70000000000000000000000000000000000076
:100A80000000000000000000000000000000000066
:100A90000000000000000000000000000000000056
:100AA0000000000000000000000000000000000046
:100AB0000000000000000000000000000000000036
:100AC0000000000000000000000000000000000026
:100AD0000000000000000000000000000000000016
:100AE0000000000000000000000000000001010103
:100AF00001000001010101010000000001010000EE
:100B000001000001000000010000000001000300DE
:100B100001010101030000010000000001000003C9
:100B200004040404000300010000000001010000AF
:100B300000000100020001010000000000010101AD
:100B4000010101010101010000000000000000009E
:100B50000000000000000000000000000000000095
:100B60000000000000000000000000000000000085
:100B70000000000000000000000000000000000075
:100B80000000000000000000000000000000000065
:100B90000000000000000000000000000000000055
:100BA0000000000000000000000000000000000045
:100BB0000000000000000000000000000000000035
:100BC0000000000000000000000000000000000025
:100BD0000000000000000000000000000000000015
:100BE0000000000000000000000000000000010103
:100BF00001010100000000000000000001010100EF
:100C000000020100000000000000000001000003DD
:100C100004000101000000000000000001000004C9
:100C200003040001000000000000000001010100B9
:100C300005030001000000000000000000000100AA
:100C400000000101000000000000000000000101A0
:100C50000101010000000000000000000000000091
:100C60000000000000000000000000000000000084
:100C70000000000000000000000000000000000074
:100C80000000000000000000000000000000000064
:100C90000000000000000000000000000000000054
:100CA0000000000000000000000000000000000044
:100CB0000000000000000000000000000000000034
:100CC0000000000000000000000000000000000024
:100CD0000000000000000000000000000000000014
:100CE0000000000000000000000000000000010102
:100CF00001010000000000000000000000000104ED
:100D000004010000000000000000000000010100DC
:100D100004010100000000000000000000010000CC
:100D200003040100000000000000000001010003B6
:100D300000000101000000000000000001000001AF
:100D40000303000100000000000000000100000299
:100D5000000000010000000000000000010101018E
:100D6000010101010000000000000000000000007F
:100D70000000000000000000000000000000000073
:100D80000000000000000000000000000000000063
:100D90000000000000000000000000000000000053
:100DA0000000000000000000000000000000000043
:100DB0000000000000000000000000000000000033
:100DC0000000000000000000000000000000000023
:100DD0000000000000000000000000000000000013
:100DE00000000000000000000000000001010101FF
:100DF00001010101000000000000000001000001ED
:100E000000000001000000000000000001000304D9
:100E100004030001000000000000000001020304C0
:100E200005000101000000000000000001000304B3
:100E300004030001000000000000000001000001A8
:100E4000000000010000000000000000010101019D
:100E5000010101010000000000000000000000008E
:100E60000000000000000000000000000000000082
:100E70000000000000000000000000000000000072
:100E80000000000000000000000000000000000062
:100E90000000000000000000000000000000000052
:100EA0000000000000000000000000000000000042
:100EB0000000000000000000000000000000000032
:100EC0000000000000000000000000000000000022
:100ED0000000000000000000000000000000000012
:100EE00000000000000000000000000000010101FF
:100EF00001010100000000000000000001010000ED
:100F000000000101000000000000000001000300DB
:100F100003030001000000000000000001040404BD
:100F200004040401000000000000000001000303AD
:100F300000030001000000000000000001010100AA
:100F4000020101010000000000000000000001019A
:100F5000010100000000000000000000000000008F
:100F60000000000000000000000000000000000081
:100F70000000000000000000000000000000000071
:100F80000000000000000000000000000000000061
:100F90000000000000000000000000000000000051
:100FA0000000000000000000000000000000000041
:100FB0000000000000000000000000000000000031
:100FC0000000000000000000000000000000000021
:100FD0000000000000000000000000000000000011
:100FE00000000000000000000000000000000101FF
:100FF00001010101010100000000000000000100EA
:1010000000000001010100000000000000000100DC
:1010100003000000000100000000000001010100C9
:1010200003000101000100000000000001040404AD
:10103000000300000001000000000000010404049F
:101040000301030001010000000000000101010193
:10105000000100030001000000000000000000018A
:10106000000000020001000000000000000000017C
:10107000010101010101000000000000000000006A
:101080000000000000000000000000000000000060
:101090000000000000000000000000000000000050
:1010A0000000000000000000000000000000000040
:1010B0000000000000000000000000000000000030
:1010C0000000000000000000000000000000000020
:1010D0000000000000000000000000000000000010
:1010E00000000000000000000000000001010101FC
:1010F00001010000000000000000000001000000ED
:1011000000010000000000000000000001000303D7
:1011100003010100000000000000000001000001C8
:1011200004040101010000000000000001010000B2
:1011300004040300010000000000000000010000A2
:101140000200000001000000000000000001010199
:10115000010101010100000000000000000000008A
:10116000000000000000000000000000000000007F
:10117000000000000000000000000000000000006F
:10118000000000000000000000000000000000005F
:10119000000000000000000000000000000000004F
:1011A000000000000000000000000000000000003F
:1011B000000000000000000000000000000000002F
:1011C000000000000000000000000000000000001F
:1011D000000000000000000000000000000000000F
:1011E00000000000000000000000000000000101FD
:1011F00001010101010100000000000000000100E8
:1012000000000104000100000000000000010100D6
:1012100000030404040100000000000000010000BD
:1012200003000105040100000000000001010001AD
:1012300001030100010100000000000001000000A6
:101240000300000300010000000000000100000096
:101250000100000000010000000000000101010188
:101260000101010200010000000000000000000078
:10127000000001010101000000000000000000006A
:10128000000000000000000000000000000000005E
:10129000000000000000000000000000000000004E
:1012A000000000000000000000000000000000003E
:1012B000000000000000000000000000000000002E
:1012C000000000000000000000000000000000001E
:1012D000000000000000000000000000000000000E
:1012E00000000000000000000000000000010101FB
:1012F00001010101000000000000000000010502E2
:1013000004040001000000000000000001010104CD
:1013100004040301010100000000000001000300BB
:1013200001030003000100000000000001000300B1
:1013300000000103000100000000000001000000A7
:101340000001000000010000000000000101010197
:101350000000000101010000000000000000000189
:101360000101010100000000000000000000000079
:10137000000000000000000000000000000000006D
:10138000000000000000000000000000000000005D
:10139000000000000000000000000000000000004D
:1013A000000000000000000000000000000000003D
:1013B000000000000000000000000000000000002D
:1013C000000000000000000000000000000000001D
:1013D000000000000000000000000000000000000D
:1013E00000000000000000000000000001010101F9
:1013F00001010100000000000000000001040403DE
:1014000004040100000000000000000001040401C9
:1014100004040100000000000000000001000303BC
:1014200003000100000000000000000001000003B4
:1014300000000100000000000000000001000303A4
:101440000300010000000000000000000100000196
:101450000200010000000000000000000101010185
:101460000101010000000000000000000000000079
:10147000000000000000000000000000000000006C
:10148000000000000000000000000000000000005C
:10149000000000000000000000000000000000004C
:1014A000000000000000000000000000000000003C
:1014B000000000000000000000000000000000002C
:1014C000000000000000000000000000000000001C
:1014D000000000000000000000000000000000000C
:1014E00000000000000000000000000000000001FB
:1014F00001010101010000000000000000000001E6
:1015000000040404010000000000000001010101CA
:1015100004040404010000000000000001000001B8
:1015200001010300010101000000000001000300AF
:10153000030000030300010000000000010200039B
:101540000003000000000100000000000100000096
:101550000101010000000100000000000101010183
:101560000100010101010100000000000000000075
:10157000000000000000000000000000000000006B
:10158000000000000000000000000000000000005B
:10159000000000000000000000000000000000004B
:1015A000000000000000000000000000000000003B
:1015B000000000000000000000000000000000002B
:1015C000000000000000000000000000000000001B
:1015D000000000000000000000000000000000000B
:1015E00000000000000000000000000001010101F7
:1015F00001010101000000000000000001000000E6
:1016000000000001000000000000000001000103D4
:1016100003000001000000000000000001000404BD
:1016200004010001000000000000000001010404AA
:10163000040300010100000000000000000100019F
:101640000100030001000000000000000001030091
:101650000003000001000000000000000001000085
:101660000100000201000000000000000001010173
:101670000101010101000000000000000000000065
:10168000000000000000000000000000000000005A
:10169000000000000000000000000000000000004A
:1016A000000000000000000000000000000000003A
:1016B000000000000000000000000000000000002A
:1016C000000000000000000000000000000000001A
:1016D000000000000000000000000000000000000A
:1016E00000000000000000000000000000000101F8
:1016F00001010100000000000000000001010100E4
:1017000000000101010100000000000001000000D4
:1017100003000003000100000000000001000300BE
:1017200002030000000100000000000001010103AD
:1017300003010101010100000000000000000100A0
:10174000000404010000000000000000000001048B
:10175000040404010000000000000000000001017A
:101760000101010100000000000000000000000075
:101770000000000000000000000000000000000069
:101780000000000000000000000000000000000059
:101790000000000000000000000000000000000049
:1017A0000000000000000000000000000000000039
:1017B0000000000000000000000000000000000029
:1017C0000000000000000000000000000000000019
:1017D0000000000000000000000000000000000009
:1017E00000000000000000000000000001010101F5
:1017F00001010000000101010101000001000000E1
:1018000000010101000100000401000001000003CB
:1018100000030001000104040401000001000100B4
:1018200000030001010100000401000001000003A9
:101830000303000000030002040100000101010095
:10184000000300000301000004010000000001008B
:101850000003010300010404040100000000010171
:101860000000000000010000040100000000000171
:10187000010101010101010101010000000000005E
:101880000000000000000000000000000000000058
:101890000000000000000000000000000000000048
:1018A0000000000000000000000000000000000038
:1018B0000000000000000000000000000000000028
:1018C0000000000000000000000000000000000018
:1018D0000000000000000000000000000000000008
:1018E00000000000000000000000000000010101F5
:1018F00001010101010100000000000000010000E1
:1019000000010100000101010100000000010003CD
:1019100000000000000000000100000000010103C1
:1019200001010100010100000100000000010000B0
:101930000101000500010001010000000001000399
:10194000040404040404000100000000010100017B
:10195000010100040001000100000000010000007E
:10196000000003010101030100000000010000006C
:10197000010000000003020100000000010101015C
:10198000010301000101010100000000000000004E
:101990000100000001000000000000000000000045
:1019A0000101010101000000000000000000000032
:1019B0000000000000000000000000000000000027
:1019C0000000000000000000000000000000000017
:1019D0000000000000000000000000000000000007
:1019E00000000000000000000000000001000000F6
:1019F00000010001000100000001000001000000E2
:101A000000010001000100000001000001000000D1
:101A100000010101000100010001000001000000BF
:101A200000010001000100010001000001010101AD
:101A300000010001000001000100000100000000A1
:101A40000000000000000000000000000000000096
:101A5000000101010101010001010100000101017A
:101A60000100000000000100000001000001000072
:101A70000100000101000100000100000001000060
:101A80000300000000000100010000000001000050
:101A9000010000010001010000000000010101003F
:101AA0000101030100000101000101010100030027
:101AB0000000000303000101000100010100010317
:101AC000010000010000010100010001010200000D
:101AD00001010101010101010001000101010101F8
:101AE00001000000000000010001010100000000F1
:101AF00000000000000000000000000000000000E6
:101B000000000000000000000000000000000000D5
:101B100000000000000000000000000000000000C5
:101B200000000000000000000000000000000000B5
:101B3000000001010101010101010100000000009C
:101B40000000010000000000000001000000000093
:101B50000000010001000100010001000000000080
:101B60000000010000030003010001000101010168
:101B70000101010000000300000001000104040154
:101B80000000010100030003010001000104040042
:101B90000000010100030003000001000104040132
:101BA0000000010100010101010101000104040123
:101BB0000001000300030001000000000104040014
:101BC000000000000300000100000000010000010F
:101BD00001010200000101010000000001010101FA
:101BE00000010101010100000000000000000000F0
:101BF00001010101000000000000000001010101DD
:101C000001000001000000000000000001000003CE
:101C100000030001000101010101010101000000B8
:101C20000300000100010504050405010101000392
:101C30000003000101010405040504010001030083
:101C40000300000100000504050405010001020372
:101C50000003000000000405040501010001030069
:101C60000300000100000504050405010101000353
:101C70000003000101010405040504010100000046
:101C80000300000100010504050405010100000333
:101C90000003000100010101010101010101010135
:101CA0000100000100000000000000000000000032
:101CB0000101010100000000000000000000000020
:101CC0000000000000000000000000000000000014
:101CD0000000000000000000000000000000000004
:101CE00000000000000000000000000001010101F0
:101CF00001010101000000000000000001040404D3
:101D000004040401000000000000000001000003C2
:101D100000010001010000000000000001000300BC
:101D200001000300010000000000000001010300A9
:101D3000030003000100000000000000000100009B
:101D4000020000000100000000000000000101018D
:101D5000010101010100000000000000000000007E
:101D60000000000000000000000000000000000073
:101D70000000000000000000000000000000000063
:101D80000000000000000000000000000000000053
:101D90000000000000000000000000000000000043
:101DA0000000000000000000000000000000000033
:101DB0000000000000000000000000000000000023
:101DC0000000000000000000000000000000000013
:101DD0000000000000000000000000000000000003
:101DE00000000000000000000000000000000101F1
:101DF00001010101010101010000000001010100D8
:101E000000000403020000010000000001000000C7
:101E100001010301010000010000000001000000B9
:101E2000050004000400010100000000010100039E
:101E30000101030101000100000000000001000099
:101E4000000004000000010000000000000101018A
:101E5000010101010101010000000000000000007B
:101E60000000000000000000000000000000000072
:101E70000000000000000000000000000000000062
:101E80000000000000000000000000000000000052
:101E90000000000000000000000000000000000042
:101EA0000000000000000000000000000000000032
:101EB0000000000000000000000000000000000022
:101EC0000000000000000000000000000000000012
:101ED0000000000000000000000000000000000002
:101EE00000000000000000000000000000000001F1
:101EF00001010101010000000000000001010101D9
:101F000004000000010000000000000001000003C8
:101F100003030000010000000000000001040101B3
:101F200004010104010000000000000001000000A5
:101F30000300000001000000000000000100000399
:101F4000000100010100000000000000010101018A
:101F5000000000010000000000000000000000017F
:101F6000010101010000000000000000000000006D
:101F70000000000000000000000000000000000061
:101F80000000000000000000000000000000000051
:101F90000000000000000000000000000000000041
:101FA0000000000000000000000000000000000031
:101FB0000000000000000000000000000000000021
:101FC0000000000000000000000000000000000011
:101FD0000000000000000000000000000000000001
:101FE00000000000000000000000000001010101ED
:101FF00001010101010101010101010101010104CE
:1020000001000400010100000104040101010000BD
:1020100000000000040000030100000101010000B5
:1020200000010000040000000300000101010100A4
:102030000001000101010000010000010100030096
:102040000001000300010000000001010100000088
:10205000000100000001000000000101010001007A
:102060000001000100010001010001010100010067
:102070000000000000010001010001010100010158
:102080000100000101010000000001010100010048
:10209000000000010001000000000001010001003B
:1020A0000300000000010101010000010100000126
:1020B0000101000100010000000000010102030015
:1020C000000000030001000000000001010000000A
:1020D00000000000000104010100000101010101F4
:1020E00001010101010101010101010100000000E4
:1020F000000000000000000001FFC001802001403E
:1021000010012008011FF8011008011008011088B3
:1021100001108801108800908800504800300800A5
:102120001FF8000880000CC0000000000000000044
:102130000000000000000000000001FF800180405E
:10214000014020012010011FF80190080130080112
:10215000110801B10801510800910800520800302F
:1021600008001FF80006400000C00000000000004A
:1021700000000000000000000000000001FF8001DE
:102180008040014020012010011FF80190080190BB
:102190000801924801900801500800D24800518877
:1021A000007008001FF8000440000CC00000000090
:1021B000000000000000000000000000000001FF1F
:1021C00080018040014020012010011FF80110080B
:1021D0000150080150080150080150080150080042
:1021E000D00800B008001FF80008400018C0000028
:1021F000000000000000000000003FFE00208300FF
:102200002082802082402082202082202082202064
:1022100082202082202082202082202082203FFED7
:10222000201001200800A004006003FFE00000006F
:102230000000000000000000000000000000001F7F
:10224000FC001FFD001FFD801FFDC01FFDC01FFD06
:10225000C01FFDC01FFDC01FFDC01FFDC01FFDC072
:102260000001C00FFEC007FF4003FF800000000018
:102270000000000000000000FFFF008001808001DE
:102280004080012080011080010880010480010449
:102290008001048001048001048001048001048025
:1022A0000104800104FFFF0440008420004410006A
:1022B0002408001404000C03FFFC01020408102091
:1022C000408000000000003E5B4F5B3E3E6B4F6B6A
:1022D0003E1C3E7C3E1C183C7E3C181C577D571C07
:1022E0001C5E7F5E1C00183C1800FFE7C3E7FF0080
:1022F00018241800FFE7DBE7FF30483A060E2629CE
:10230000792926407F050507407F05253F5A3CE790
:102310003C5A7F3E1C1C08081C1C3E7F14227F2256
:10232000145F5F005F5F06097F017F006689956A21
:10233000606060606094A2FFA29408047E040810AC
:10234000207E201008082A1C08081C2A08081E10D5
:102350001010100C1E0C1E0C30383E3830060E3E8D
:102360000E06000000000000005F000000070007EC
:1023700000147F147F14242A7F2A12231308646216
:1023800036495620500008070300001C2241000077
:1023900041221C002A1C7F1C2A08083E08080080D5
:1023A000703000080808080800006060002010086D
:1023B00004023E5149453E00427F4000724949496E
:1023C000462141494D331814127F102745454539A0
:1023D0003C4A4949314121110907364949493646A4
:1023E0004949291E00001400000040340000000884
:1023F0001422411414141414004122140802015927
:1024000009063E415D594E7C1211127C7F494949B3
:10241000363E414141227F4141413E7F4949494148
:102420007F090909013E414151737F0808087F0077
:10243000417F41002040413F017F081422417F40FD
:102440004040407F021C027F7F0408107F3E4141D4
:10245000413E7F090909063E4151215E7F09192944
:1024600046264949493203017F01033F4040403F2E
:102470001F2040201F3F4038403F6314081463036F
:10248000047804036159494D43007F4141410204EE
:10249000081020004141417F0402010204404040F5
:1024A0004040000307080020545478407F284444EB
:1024B000383844444428384444287F385454541805
:1024C00000087E090218A4A49C787F080404780000
:1024D000447D40002040403D007F102844000041E2
:1024E0007F40007C047804787C08040478384444F5
:1024F0004438FC1824241818242418FC7C080404EC
:1025000008485454542404043F44243C4040207C54
:102510001C2040201C3C4030403C44281028444CA7
:102520009090907C4464544C440008364100000074
:10253000770000004136080002010204023C262315
:10254000263C1EA1A161123A4040207A38545455CD
:102550005921555579412154547841215554784099
:1025600020545579400C1E5272123955555559391F
:102570005454545939555454580000457C41000274
:10258000457D420001457C40F0292429F0F02825B2
:1025900028F07C545545002054547C547C0A097F13
:1025A0004932494949323248484832324A4848302B
:1025B0003A4141217A3A42402078009DA0A07D39DD
:1025C000444444393D4040403D3C24FF2424487E5F
:1025D0004943662B2FFC2F2BFF0929F620C0887E4C
:1025E000090320545479410000447D413048484A51
:1025F00032384040227A007A0A0A727D0D19317D04
:102600002629292F28262929292630484D402038D7
:102610000808080808080808382F10C8ACBA2F1096
:102620002834FA00007B000008142A142222142AFD
:1026300014089500220095AA005500AAAA55AA558B
:10264000AA000000FF00101010FF00141414FF0077
:102650001010FF00FF1010F010F0141414FC001400
:1026600014F700FF0000FF00FF1414F404FC14141E
:1026700017101F10101F101F1414141F001010101B
:10268000F0000000001F101010101F10101010F0AC
:1026900010000000FF101010101010101010FF108C
:1026A000000000FF140000FF00FF00001F101700D3
:1026B00000FC04F414141710171414F404F40000AC
:1026C000FF00F714141414141414F700F71414145E
:1026D000171410101F101F141414F4141010F010FD
:1026E000F000001F101F0000001F14000000FC1469
:1026F0000000F010F01010FF10FF141414FF14105D
:1027000010101F00000000F010FFFFFFFFFFF0F0AF
:10271000F0F0F0FFFFFF0000000000FFFF0F0F0FC1
:102720000F0F38444438447C2A2A3E147E020206A5
:1027300006027E027E0263554941633844443C04EC
:10274000407E201E2006027E020299A5E7A5991C64
:102750002A492A1C4C7201724C304A4D4D30304887
:10276000784830BC625A463D3E494949007E0101E5
:10277000017E2A2A2A2A2A44445F444440514A447A
:102780004040444A51400000FF0103E080FF000048
:1027900008086B6B083612362436060F090F060040
:1027A0000018180000001010003040FF0101001F49
:1027B00001011E00191D1712003C3C3C3C000000AA
:1027C0000000D5F08D14A1C881CFD9F1AF20000051
:1027D00000000000000000000000000000000000F9
:1027E00000000000000000000000000000000000E9
:1027F00000000000000000000000000000000000D9
:1028000000000000000000000000000000000000C8
:102810000000000000000000000004200000000094
:10282000000000000000000002240FB03FE00000A4
:1028300000000000000000E782200A7800C00000CD
:10284000000000000000013647FF124801000000B0
:102850000000000000000036626404FC020000007A
:102860000000000000000026227F04840200000017
:10287000000000000000006623A40CFC7FF00000B4
:10288000000000000000003626240E840200000034
:102890000000000000000016623F0DFC0200000076
:1028A0000000000000000136C2241C840200000069
:1028B00000000000000000E7823F14FC020000005E
:1028C0000000000000000000062004840E00000646
:1028D00000000000000000000000000000000019DF
:1028E000818CCF04A2F822510000000000000010EB
:1028F00082524904A220225100000000000000265C
:1029000040924F07A22323D10000000000000026C0
:1029100041124904AA2322550000000000000010C3
:10292000821249049420224A00000000000000198D
:1029300083CCEF0494203A4A00000000FFC0000658
:1029400000000000000000000000000100C00000C6
:102950000000000000000000000000020140000034
:102960000000000000000007FF800004024000009B
:1029700000000000000000061040000FFC400000B6
:1029800000000000000000050820000804400000CE
:102990000000000000000004841000092540000031
:1029A00000FFFFFFFFFFFFFCFFFBFFF8057F80003C
:1029B0000000000006000404440810080540400020
:1029C00000000000050002064208080A0540200039
:1029D000000000000480010459480409E48010004C
:1029E00000000000044000845888020805800800A8
:1029F000000000000420004543E8010806800400B0
:102A0000FFFFFFFFFFFFFFFC43EFFFFFFFFFFE00A5
:102A10000000000004180014400800410880010074
:102A2000000000000414000A47E8002308400000EA
:102A300000000000041200055F0C001018200000C8
:102A40000000000004110002C00A0008001000008D
:102A500000000000041080017FF900040008000F4E
:102A6000FFFFFFFFFFFFFFFFFFFFFFFFFFFFFF0075
:102A7000000000000410600040004001000200005F
:102A8000000000000410500020002000800100FF22
:102A9000FFFFFFFFFC104800100010003FF0800017
:102AA0000000000002104400080008005FF8400029
:102AB0000000000001104200040004006FFC207FB1
:102AC000FFFFFFFFFFFFFFFFFFFFFFFFF001FF0022
:102AD00000000000005041800100030077FE080064
:102AE0000000000000304140009E0C8077FE04078B
:102AF000FFFFFFFFFFF041200041F84077FE02009A
:102B000000000000000841100020C72077FE0100EF
:102B100000000000000441080013001077FE0001CF
:102B2000FFFFFFFFFFFFFFFFFFFFFFFFF7FFFF00BC
:102B300000000000000141060004000477FE0000D0
:102B40000FFFFFFFFFFFC1050002000237FE00007C
:102B500000000000000041048001000117FE000099
:102B600000000000000021044000800087FE0000FB
:102B7000000000000000110420004000400100009F
:102B800000000000000009041FFFFFFFFFFFFF001F
:102B9000000000000000050410003000200080004C
:102BA000000000000000030410003000200080003E
:102BB000000FFFFFFFFFFF04100030002000800027
:102BC0000000000000000084100030002000800899
:102BD0000B000202020100090400000102020000D1
:102BE0000524001001052401010104240206052426
:102BF0000600010705810310004009040100020AD4
:102C000000000007050202400000070583024000A3
:102C1000000403090412010002EF020140412336BF
:102C20008000010102030141726475696E6F204CDE
:102C30004C430041726475696E6F204C656F6E6124
:102C400072646F004A2311241FBECFEFDAE0DEBFAB
:102C5000CDBF11E0A0E0B1E0ECE6F7E402C00590E2
:102C60000D92A634B107D9F728E0A6E4B1E001C07F
:102C70001D92A631B207E1F716E1C3E2D6E104C026
:102C80002197FE010E94A923C232D107C9F70E94F1
:102C90004C220C94B4230C940000CF92DF92EF925C
:102CA000FF920F931F93CF93DF936C017A018B01F7
:102CB000C0E0D0E0CE15DF0589F0D8016D918D011F
:102CC000D601ED91FC910190F081E02DC6010995AE
:102CD000892B11F47E0102C02196ECCFC701DF9150
:102CE000CF911F910F91FF90EF90DF90CF900895BB
:102CF0003FB7F89480918E0390918F03A091900339
:102D0000B091910326B5A89B05C02F3F19F00196FD
:102D1000A11DB11D3FBFBA2FA92F982F8827820F61
:102D2000911DA11DB11DBC01CD0142E0660F771FB1
:102D3000881F991F4A95D1F708958FB12CB193B18F
:102D400030E02095309520743327A90123E0559574
:102D500047952A95E1F7292F30E02095309520718D
:102D600033273595279535952795242B8095807F9A
:102D7000822B08950895089580E090E008952091B1
:102D80004D01EEE4F1E031E080E090E041915191BD
:102D90004230510519F04630510511F4282F04C076
:102DA0004330510509F430E00196811541E0940764
:102DB00069F720934D0130934E0330E0C9014397EA
:102DC000AC01AFE4B3E02D5D3F4F28173907A4F005
:102DD000BA016A5F7F4F681779071CF40996405F54
:102DE0005F4FFC01EE0FFF1FE25BFE4F60817181C0
:102DF0006D937D930196E9CF50934C0140934B0125
:102E000090934A01809349010895CF93DF93809175
:102E1000000190E00197282F30E030934701809324
:102E20004801832F922F20E030E0AA27BB27A81B60
:102E3000B90BBC0161507F4FAD01480F591F681796
:102E4000790774F0FC01E451FF4FE491E901C25BA2
:102E5000DE4FF0E0F983E88301962E5F3F4FECCF21
:102E600050934C0140934B0190934A018093490148
:102E7000DF91CF9108950E94AF238F929F92AF92DE
:102E8000BF92CF92DF92EF92FF920F931F93CF9357
:102E9000DF9310928803109287038FE4C82E83E09B
:102EA000D82EF601A190B1906F01C0918803F1E096
:102EB000AF16B10489F5E0908703F12C470186E055
:102EC000881A9108D0E05E01E6E0AE1AB10820E170
:102ED00040E1B401C5010E942B1E8091880390E05F
:102EE0009701225F3F4FB701665F7F4F00E0AC0163
:102EF0000E94671EAE01425F5F4F9701B701CE018E
:102F00000A960E94671EEE24E39406E126E148E754
:102F100052E2B401C50164C0C5018B7F029779F507
:102F200060918703062F10E0D0E0B801625071096C
:102F300021E140E1CE0101970E942B1E2091010169
:102F4000B80166507109CE010697EE24E39406E1BC
:102F5000203F21F426E142EB51E20FC0203121F461
:102F600026E140E751E209C02F3F21F426E14EE27D
:102F700051E203C026E14CEE50E20E94911DC09147
:102F80008803F3E0AF16B104C9F4A0908703B12C15
:102F900086E0A81AB108D0E02697E12C06E126E1E8
:102FA00046E352E2B501CE010E94911DEE24E39466
:102FB00026E144EF51E2B501CE0112C0E5E0AE16C4
:102FC000B10489F46091870370E0665071098C2F19
:102FD00090E0EE24E39406E126E146E352E2069710
:102FE0000E94911D21C0F4E0AF16B104E9F4A09055
:102FF0008703B12C750180E1E80EF11CD0E04E0191
:10300000E0E18E0E911CF5E0AF0EB11C259601E0BB
:103010009701A401B501CE010E94671E9701AE0180
:10302000B501C4010E94671E80918803815F8B35C2
:1030300018F48093880307C0109288038091870357
:10304000815F8093870387E8C81683E0D80609F07C
:1030500028CFDF91CF911F910F91FF90EF90DF90DC
:10306000CF90BF90AF909F908F900895EF920F9365
:103070001F93CF93DF930E94531FEE24E39400E24B
:1030800020E14CEA50E060E070E080E790E00E94D0
:10309000911DCBE9D7E002E710E01F8B0E8B82E297
:1030A00090E0998F888F6091000170E080E090E05F
:1030B0004AE00E94121F85E790E09F8B8E8B8DE285
:1030C00090E0998F888F8BE391E00E94001F1F8B07
:1030D0000E8B86E390E0998F888F4AE060E270E083
:1030E00080E090E00E94121F0E943D17DF91CF9177
:1030F0001F910F91EF900C94EE1E4091940350910C
:103100009503209192033091930342175307B4F42F
:103110009091E8009570E1F39091E80092FD19C05C
:103120008093F100809194039091950301968F73A1
:103130009927892B19F48EEF8093E80080919403EE
:10314000909195030196909395038093940381E069
:10315000089580E00895615030F02091F100FC0165
:1031600020830196F8CF289884E6809399030895E8
:103170008F929F92AF92BF92CF92DF92EF92FF9287
:103180006B017C010E9478164B015C01C114D104D3
:10319000E104F104F1F00E947816DC01CB018819FA
:1031A0009909AA09BB09883E9340A105B10570F3AE
:1031B00021E0C21AD108E108F10888EE880E83E008
:1031C000981EA11CB11CC114D104E104F10419F72B
:1031D000DDCFFF90EF90DF90CF90BF90AF909F90AA
:1031E0008F900895BC0180E090E00C94B818CF93C4
:1031F000DF93109246010E949D1683FF1AC00E9421
:103200009D1687FF09C080910001803218F48F5FFE
:10321000809300010E94471A0E949D1684FF09C0F6
:1032200080910001823018F08150809300010E944B
:10323000471A0E949D1682FF08C00E9405170E942F
:10324000BF160E9436180E94F7180E949D1687FF2D
:1032500012C080EF80930101E0914D01F0E0EE0F8C
:10326000FF1FE25DFE4F80819181009791F581E023
:103270008093460133C00E949D16982F907184FF61
:103280000AC090930101E0914D01F0E0EE0FFF1FA5
:10329000E259FE4FE8CF0E949D1685FF0BC08FEFCD
:1032A00080930101E0914D01F0E0EE0FFF1FE45B20
:1032B000FE4FD9CF0E949D1686FF10C081E08093FB
:1032C0000101E0914D01F0E0EE0FFF1FE05BFE4FCA
:1032D000CACF0397049758F20E943618809146018E
:1032E000882309F49CC0E0914D01F0E0DF01AA0FB2
:1032F000BB1FA25BBE4F4D915C91119742305105AF
:1033000009F04DC080910101082E000C990BE80FC7
:10331000F91FEF01CC0FDD1FC25BDE4F2881398121
:1033200021153105C9F12430310539F486E090E0EA
:10333000998388831D921C9268C025303105A9F4B9
:10334000E80FF91FEE0FFF1FE25BFE4F80819181B6
:10335000009729F483E090E091838083E7CF04977E
:1033600009F053C031832083E1CF2330310509F0C8
:103370004CC0E80FF91FEE0FFF1FE25BFE4F80818C
:103380009181009719F43183208306C00497E9F5F1
:1033900085E090E09183808359834883CBCF46308A
:1033A000510599F520910101022E000C330BE20F1B
:1033B000F31FEF01CC0FDD1FC25BDE4F88819981C7
:1033C000009789F084309105E1F0E20FF31FEE0FD2
:1033D000FF1FE25BFE4F80819181009759F483E0EB
:1033E00090E09183808382E090E09983888384E0F9
:1033F00090E009C08430910541F425E030E031834C
:103400002083598348838D939C930E94BF160E940A
:10341000361862E370E080E090E00E94B818809176
:103420004E03882389F10E94531F0E943D172EE10D
:1034300046E56CE070E083E090E00E942B1E8BE09C
:1034400090E09093B2078093B10788E190E0909369
:10345000B4078093B3078DE391E00E94001F0E94A0
:10346000EE1E68EE73E080E090E00E94B818809154
:103470000001803210F48F5F01C081E08093000171
:10348000DF91CF910C94471ADF91CF9108950E945C
:1034900005170E94BF160E9436180C94F7181F9249
:1034A0000F920FB60F9211242F933F938F939F93F8
:1034B000AF93BF9380918A0390918B03A0918C036B
:1034C000B0918D033091890323E0230F2D3720F431
:1034D0000196A11DB11D05C026E8230F0296A11D6E
:1034E000B11D2093890380938A0390938B03A0934B
:1034F0008C03B0938D0380918E0390918F03A091E4
:103500009003B09191030196A11DB11D80938E038C
:1035100090938F03A0939003B0939103BF91AF91C9
:103520009F918F913F912F910F900FBE0F901F9001
:10353000189560387105D0F440345105B8F4EAEBC1
:10354000F2E280E1849FD001A0781124A60F477099
:10355000E40FF11D8491A556BC4F222319F06C9104
:10356000862B03C080956C9186238C9308952F92AF
:103570003F924F925F926F927F928F929F92AF9203
:10358000BF92CF92DF92EF92FF920F931F93CF9350
:10359000DF93CDB7DEB729970FB6F894DEBF0FBE25
:1035A000CDBFFC016A3069F4248D808D918D38E0A7
:1035B000239F800D911D1124918F808F178A168A69
:1035C000AAC06D3009F4A7C099878887F48C338C22
:1035D000228C608C718C0689178900381105C4F023
:1035E000A885B9855C962C915C97422F50E0569641
:1035F0008D919C915797B6E02B9F800D911D1124C2
:10360000E885F985978B868B258D21116EC083C047
:10361000F0E46F16710424F7C80125E0F29E800DD6
:10362000911D112418161906DCF68F2D90E09C834D
:103630008B83C301A8E0FA9E800D911D11241816FA
:10364000190674F6B5E06B9FB0011124FB01EE532F
:10365000FD4DFA83E98330E08885998504969E8341
:103660008D83E981FA81E490353009F4E12C43013E
:1036700088E0482EE0FC02C0532C01C0522C5110AF
:103680000BC0321009C0E6944A948B819C81880E4D
:10369000991E4110EFCF1BC068018C2D801B8F1528
:1036A00090F754018A2D88198F1568F4252DA501EE
:1036B000B6018D819E813F830E94991A9FEFA91ABE
:1036C000B90A3F81EFCFAFEFCA1ADA0AE6CF3F5F00
:1036D000EB81FC810E0F1F1F89819A8101969A83CD
:1036E0008983363009F0BDCF7BCF6AEF6403900148
:1036F000659F300D112420583F4F281739075CF47F
:10370000A885B985ED91FC9111970190F081E02D8C
:103710006AE0CD01099581E090E029960FB6F89412
:10372000DEBF0FBECDBFDF91CF911F910F91FF90F4
:10373000EF90DF90CF90BF90AF909F908F907F9051
:103740006F905F904F903F902F900895FC01809173
:103750009A03811103C08FEF9FEF08959FB7F894EC
:1037600082E08093E9002091F20030E01216130607
:1037700014F421E030E02115310559F0289884E651
:10378000809399038091F10080838091F2008823D7
:1037900019F09FBFC90108958BE68093E800F9CF27
:1037A0002FB7F89483E08093E9009091E800892F87
:1037B000807295FF04C09091F20080E4891B2FBFB6
:1037C00008958091BE0781110DC082E08093BA07F1
:1037D00084E08093BB071092BD071092BC0781E084
:1037E0008093BE078AEB97E00895CF93DF931F92F3
:1037F000CDB7DEB76983DC01ED91FC910280F381E6
:10380000E02D41E050E0BE016F5F7F4F09950F90C2
:10381000DF91CF91089583E08093E9008091F200D9
:10382000882319F08AE38093E80008950E94D01B52
:1038300090E00895CF93DF931F92CDB7DEB7FC01E0
:103840008485958597FD05C02FEF3FEF3587248749
:103850000BC0CE0101960E94A61B019719F4898125
:1038600090E002C08FEF9FEF0F90DF91CF9108950E
:103870000F931F93CF93DF931F92CDB7DEB78C01C9
:10388000FC018485958597FF0EC0CE0101960E94AC
:10389000A61B019719F4298130E002C02FEF3FEFFA
:1038A000F80135872487F801848595850F90DF918D
:1038B000CF911F910F910895FC018485958597FD07
:1038C0000BC09FB7F89482E08093E9008091F200EA
:1038D0009FBF90E0019608959FB7F89482E080938F
:1038E000E9008091F2009FBF90E008958F929F922F
:1038F000AF92BF92CF92DF92EF92FF920F931F93FE
:10390000CF93DF935C016B017A0180910D018823D5
:1039100009F45BC080919A03882309F456C0809112
:10392000980380FF05C08091E00082608093E000F2
:10393000E70110E00AEF83E0882E9AE3992E2097A2
:10394000D9F10E94D01B81110AC0015009F43DC079
:1039500061E070E080E090E00E94B818F0CF282F7E
:1039600030E0C217D3070CF48C2F4FB7F894809235
:10397000E9009091E80095FF1DC0282F30E0C21BA0
:10398000D30BF601982F915020F081918093F10094
:10399000FACFC20ED31E112319F09092E80009C08D
:1039A0008091E80085FD06C09092E80011E0209724
:1039B00009F010E04FBFC3CF1111C3CF5D9884E66B
:1039C0008093B9071E141F0444F081E090E0F501D4
:1039D0009383828380E090E001C0C701DF91CF91A3
:1039E0001F910F91FF90EF90DF90CF90BF90AF901D
:1039F0009F908F900895CF92DF92EF92FF920F9356
:103A00001F93CF93DF931F92CDB7DEB7182F062FEA
:103A1000E42E862F880F8E5F99830E947D1883E0A5
:103A20000E947D18F12EC12E9981D92E8C2D8F19CF
:103A3000801798F4F601E7FE02C0849101C08081EE
:103A40000E947D18182F80E00E947D188123FFEFCF
:103A5000CF1ADF0A8111EACF01C081E00F90DF9118
:103A6000CF911F910F91FF90EF90DF90CF9008952D
:103A7000DF92EF92FF920F931F93CF93DF93D82E95
:103A80008A017B01E40EF51EEB01CE15DF0571F016
:103A9000D7FE03C0FE01849101C088810E947D1879
:103AA00021968111F2CF8FEF9FEF01C0C801DF9106
:103AB000CF911F910F91FF90EF90DF9008950F939A
:103AC0001F93CF93DF931F92CDB7DEB782E0898338
:103AD00042E450E06FEC7BE280E80E94381D0E94D7
:103AE000E11BDC0112960D911C9113970115110534
:103AF00069F0D801ED91FC910280F381E02DBE01C7
:103B00006F5F7F4FC801099597FF07C089810F90AC
:103B1000DF91CF911F910F910895F80100851185D4
:103B2000E5CF2F923F924F925F926F927F928F924A
:103B30009F92AF92BF92CF92DF92EF92FF920F933C
:103B40001F93CF93DF9300D000D01F92CDB7DEB785
:103B5000C22ED12C9C012C0D3D1D37FD64C0803838
:103B600091050CF060C010E09B01200F311F37FD64
:103B70005AC0603471050CF056C03E2D3A012B013D
:103B80001C01C6010796AC0193E0559547959A959F
:103B9000E1F75A834983A12CB12CE12CF12CE016DA
:103BA000F1060CF040C01D821C824701840C951C5C
:103BB0004C815D814C155D0574F5EC81FD8183E0E0
:103BC000F595E7958A95E1F7EA0DFB1DE60DF71DE2
:103BD000E491F0E08C819D818770992740E850E066
:103BE00002C0559547958A95E2F7E423F523EF2B1C
:103BF00061F0232FA4016C817D81620D731D8FE91B
:103C000097E03B830E94991A3B818C819D810196AC
:103C10009D838C83CDCF5FEFE51AF50A89819A8168
:103C2000A80EB91EBCCF0F900F900F900F900F9061
:103C3000DF91CF911F910F91FF90EF90DF90CF9088
:103C4000BF90AF909F908F907F906F905F904F90BC
:103C50003F902F900895AF92BF92CF92DF92EF9254
:103C6000FF920F931F93CF93DF937B01EC015C01D5
:103C7000A40EB11C6B01C20ED11CCA15DB05E4F405
:103C80008701F7FE0FC000E010E00CC0081719070D
:103C90008CF420E0A801BE018FE997E00E94991AF8
:103CA0000F5F1F4FC60121E4C216D1047CF380E4EC
:103CB00090E0ECCF2196E1CFDF91CF911F910F9152
:103CC000FF90EF90DF90CF90BF90AF9008954F920C
:103CD0005F926F927F928F929F92AF92BF92CF929C
:103CE000DF92EF92FF920F931F93CF93DF93EC013C
:103CF0007B016A01C901A901461B570B57FF03C08D
:103D000051954195510996012C1B3D0B37FF03C07E
:103D100031952195310911E02417350714F010E091
:103D20000AC03C2D2D2D6C01832F922F3C2F2D2F5F
:103D3000E701E32EF22ECC16DD0654F43E2D2F2D96
:103D40007C01832F922F3C2F2D2FE601C32ED22EE4
:103D500026014C1A5D0A4C018E189F0897FE03C07D
:103D6000919481949108520157FE03C02FEFA21A3B
:103D7000B20AB594A794E816F90614F08FEF01C0C3
:103D800081E0682E880F7708CC16DD06B4F0202F6E
:103D9000112319F0AE01B70102C0A701BE018FE9DE
:103DA00097E00E94991AA818B908B7FE04C0E60C5B
:103DB000F71CA40CB51C2196E7CFDF91CF911F9182
:103DC0000F91FF90EF90DF90CF90BF90AF909F90BA
:103DD0008F907F906F905F904F90089580919B039C
:103DE0008EBDECE9F3E081910DB407FEFDCF8EBDF1
:103DF00087E0EB39F807B9F70DB407FEFDCF08955A
:103E0000009769F0FC0101900020E9F73197AF01BC
:103E1000481B590BBC018BE997E00C944D1680E0D0
:103E200090E008958F929F92AF92BF920F931F934D
:103E3000CF93DF93CDB7DEB7A1970FB6F894DEBF6F
:103E40000FBECDBF19A2423008F44AE08E010F5DCB
:103E50001F4F842E912CA12CB12CA50194010E94FE
:103E60008723E62FB901CA0101501109EA3014F481
:103E7000E05D01C0E95CD801EC93232B242B252BBA
:103E800061F7C8010E94001FA1960FB6F894DEBF2B
:103E90000FBECDBFDF91CF911F910F91BF90AF901B
:103EA0009F908F90089580E0EBE9F3E081118FEF10
:103EB000002481938193819381930394D1F7EBE95B
:103EC000F7E0118E108E178A168A08951F920F92AE
:103ED0000FB60F9211248F939F938091E1009091E0
:103EE000E100937F9093E10083FF0FC01092E900FF
:103EF00091E09093EB001092EC0092E39093ED0030
:103F000010929A0398E09093F00082FF20C093E013
:103F10009093E9009091F200992319F09AE390931D
:103F2000E8009091B907992339F09091B907915021
:103F30009093B907992389F190919903992339F0C6
:103F400090919903915090939903992341F184FFA3
:103F500010C08091E2008E7E81608093E2008091AB
:103F6000E1008F7E8093E100809198038E7E8061D6
:103F700011C080FF16C08091E2008E7E8061809328
:103F8000E2008091E1008E7E8093E10080919803B1
:103F90008E7E81608093980304C05D9ACDCF289A6D
:103FA000D6CF9F918F910F900FBE0F901F901895B5
:103FB0001F920F920FB60F921124CF92DF92EF92C1
:103FC000FF920F931F932F933F934F935F936F93A2
:103FD0007F938F939F93AF93BF93EF93FF93CF9371
:103FE000DF93CDB7DEB76C97DEBFCDBF1092E9008F
:103FF0008091E80083FFEDC168E0CE0145960E9404
:10400000AB1882EF8093E8008D8987FF05C09091FF
:10401000E80090FFFCCF03C09EEF9093E800982F3C
:10402000907609F0C6C09E892F89188D91110CC019
:10403000803829F4809197038093F10002C0109298
:10404000F1001092F10048C1422F50E0512B913005
:1040500051F4811141C14130510509F03DC18091B8
:1040600097038D7F0BC0933061F4811135C14130CE
:10407000510509F031C180919703826080939703C5
:104080002BC1953041F48091E80080FFFCCF20687F
:104090002093E30021C1963009F05FC0EB8CFC8CCB
:1040A0001092E9001092950310929403123091F54A
:1040B00010929303109292030E945F1D99E0BE013B
:1040C0006F5F7F4FDB01E92F1D92EA95E9F7998336
:1040D0001A8391E09E8390EA98879AEF99872091BE
:1040E000940330919503275F3F4F3C832B838D834F
:1040F0001092E9001092950310929403F0929303AA
:10410000E092920349E050E080E00E94381D0E9456
:104110005F1DE2C0F0929303E09292030E94E11BC4
:10412000DC011296ED90FC901397E114F10409F470
:10413000C0C0D701ED91FC910480F581E02DBE0156
:104140006B5E7F4FC7010995009719F00CF0C4C052
:10415000C7C0F701E084F184E8CF973009F4C0C00C
:10416000983021F481E08093F100B6C0993009F0D5
:10417000B3C0837009F0B4C0EFE0F1E081E021E06A
:1041800036E39081992361F08093E9002093EB005E
:1041900091919093EC003093ED008F5F873089F719
:1041A0008EE78093EA001092EA008F8980939A0349
:1041B00093C08B8D9C8D1092E90010929503109204
:1041C00094039093930380939203898D811156C039
:1041D0008E899D89913A59F4813209F081C047E076
:1041E00050E066E071E080E00E94381D75C09132B9
:1041F00009F076C0833289F4888D90E0982F882763
:104200002F89822BA0E0B0E08093020190930301FC
:10421000A0930401B09305015FC0803269F48091DE
:10422000E80082FFFCCF67E086E091E00E94AB18D7
:104230008BEF8093E80006C0823209F04DC08F8971
:1042400080930D0180919603882319F0EEEFFAE038
:1042500002C0E0E0F8E08091060190910701A09192
:104260000801B0910901803B9440A105B10509F016
:104270007BC080910D0180FF93C076C00E94E11B3E
:10428000DC0112960D911C9113970115110541F156
:10429000D801ED91FC910190F081E02DBE016B5EA3
:1042A0007F4FC8010995811117C0F801008511855C
:1042B000ECCF113009F44EC0133091F48F8988236C
:1042C00009F445C0823081F440E860E183E39CE278
:1042D0000E94FB1C882321F08EEF8093E80079C0B8
:1042E00081E28093EB0075C0813029F440E86BE0F7
:1042F00087E29CE2EDCF833099F70E94E11BDC015D
:104300001296ED90FC9013978E010F5F1F4F68017E
:10431000E114F10479F0D701ED91FC910680F78169
:10432000E02DB801C7010995080F111DF701E084C0
:10433000F184EECFD8011C92F60101900020E9F73C
:104340003197BF016C197D0940E0C601C1CF61E121
:104350007CE202C065E17CE26115710509F2FB01B6
:10436000449150E080E840CF0FB6F894A895809132
:104370006000886180936000109260000FBEA89575
:10438000EE3F2AE0F20739F08091FE0A9091FF0A91
:1043900091838083A1CF1092FF0A1092FE0A9CCFD6
:1043A000EE3F8AE0F80731F0808191819093FF0A17
:1043B0008093FE0A87E797E7918380839BE088E1FB
:1043C0000FB6F894A895809360000FBE909360009C
:1043D00083CF6C960FB6F894DEBF0FBECDBFDF91D2
:1043E000CF91FF91EF91BF91AF919F918F917F916D
:1043F0006F915F914F913F912F911F910F91FF907E
:10440000EF90DF90CF900F900FBE0F901F901895F8
:104410000F931F93CF93DF938C0181E090E00E9474
:104420007F2380FF31C08AE090E00E947F239FEFCE
:10443000980F9E3F48F522E330E0D80157963C9311
:104440002E93569728E330E059963C932E93589735
:10445000CBE0D0E0D801ED91FC910190F081E02D0E
:10446000682FC8010995CE010E947F232196C13192
:10447000D10581F70E94EE1E88EE93E0DF91CF9187
:104480001F910F910C94F218DF91CF911F910F9112
:10449000089504970C940822789484B5826084BDB2
:1044A00084B5816084BD85B5826085BD85B5816038
:1044B00085BD80916E00816080936E0010928100B6
:1044C0008091810082608093810080918100816071
:1044D0008093810080918000816080938000809132
:1044E000910082608093910080919100816080931F
:1044F0009100809190008160809390008091C10034
:1045000084608093C1008091C10082608093C1006B
:104510008091C10081608093C1008091C30081605F
:104520008093C3008091C00082608093C00080911E
:10453000C20081608093C20080917A008460809381
:104540007A0080917A00826080937A0080917A006C
:10455000816080937A0080917A00806880937A00ED
:1045600010929A0310929703109298038091D700AB
:1045700081608093D70080EA8093D80089B58061FC
:1045800089BD89B5826089BD09B400FEFDCF61E0B7
:1045900070E080E090E00E94B8188091D8008F7C95
:1045A00080618093D8008091E000807F8093E0005C
:1045B0008091E1008E7E8093E1008DE08093E200A7
:1045C000559A209AEEEFFFE7859194918B3F9C4D91
:1045D00019F481E08093960381EC80937C0085B18F
:1045E000806F85B9249884B1866E84B95E9A5F988D
:1045F0008AB1806D8AB9769A6E9881B3806F81BBDB
:10460000899880B38D7080BB80E58CBD81E08DBDC5
:1046100085E090E00E94F2185F9A85E090E00E94A9
:10462000F2185E985C98E2ECF7E28DE08E0F9491C0
:104630009EBD00000DB407FEFDCF31968E13F7CF5F
:104640005C9A81E88093640081E080936500EE24A9
:10465000E39400E420E84FEC57E260E070E080E093
:1046600090E00E94911D0E94EE1E6CED75E080E0CE
:1046700090E00E94B8180E9405170E94BF160E9481
:104680003618C0E0D0E00E94F7182097E1F30E94AE
:104690000000F9CFE6ECF7E01382128288EE93E097
:1046A000A0E0B0E084839583A683B78389E191E09D
:1046B000918380838FEF9FEF95878487EBE9F7E005
:1046C000138212821186128620E1238790878783C6
:1046D000108A118A128A138A148A8BE291E09183DC
:1046E000808389E391E095838483178A168A118EEB
:1046F000108E81E0828F138E848F158E0895F99924
:10470000FECF92BD81BDF89A992780B50895A1E2A8
:104710001A2EAA1BBB1BFD010DC0AA1FBB1FEE1F3B
:10472000FF1FA217B307E407F50720F0A21BB30B86
:10473000E40BF50B661F771F881F991F1A9469F702
:1047400060957095809590959B01AC01BD01CF015E
:104750000895EE0FFF1F0590F491E02D099481E07C
:0C47600090E0F8940C94B423F894FFCF80
:10476C0001F0FFFFFFFF00E100000000000000C1AE
:10477C00808100000000000000F51B761C161C0B4D
:10478C001C5C1C1A1C381C00000000B71A4D16BC0F
:10479C0016BB160822FCFF000049227E00596F75DB
:0647AC002057696E0000B9
:00000001FF
