:100000000C94E21A0C940A1B0C940A1B0C940A1B05
:100010000C940A1B0C940A1B0C940A1B0C940A1BCC
:100020000C940A1B0C940A1B0C940A1B0C940A1BBC
:100030000C940A1B0C940A1B0C940A1B0C940A1BAC
:100040000C94241E0C940A1B0C940A1B0C940A1B7F
:100050000C940A1B0C940A1B0C940A1B0C940A1B8C
:100060000C940A1B0C940A1B000000000000000006
:100070000000000000000000000000000000000080
:10008000000000000000000000000101010000006D
:10009000000000000000000000000104010000005A
:1000A000000000000000000000000100010101014B
:1000B0000000000000000000010101030003040132
:1000C0000000000000000000010400030201010123
:1000D0000000000000000000010101010301000018
:1000E000000000000000000000000001040100000A
:1000F00000000000000000000000000101010000FD
:1001000000000000000000000000000000000000EF
:1001100000000000000000000000000000000000DF
:1001200000000000000000000000000000000000CF
:1001300000000000000000000000000000000000BF
:1001400000000000000000000000000000000000AF
:10015000000000000000000000000000000000009F
:10016000000000000000000001010101010000008A
:10017000000000000000000001000000010000007D
:100180000000000000000000010003000100010168
:100190000100000000000000010003020100010452
:1001A0000100000000000000010101030101010441
:1001B0000100000000000000000101000000000438
:1001C000010000000000000000010000000100002C
:1001D000010000000000000000010000000101011A
:1001E0000100000000000000000101010101000009
:1001F00000000000000000000000000000000000FF
:1002000000000000000000000000000000000000EE
:1002100000000000000000000000000000000000DE
:1002200000000000000000000000000000000000CE
:1002300000000000000000000000000000000000BE
:1002400000000000000000000000000000000000AE
:10025000000000000000000000000000000000009E
:100260000000000000000000000101010101010187
:10027000000000000000000000010000000000017C
:100280000101000000000000010103010101000064
:100290000001000000000000010000020300000354
:1002A0000001000000000000010004040100030040
:1002B0000101000000000000010104040100000031
:1002C0000100000000000000000101010101010126
:1002D000010000000000000000000000000000001D
:1002E000000000000000000000000000000000000E
:1002F00000000000000000000000000000000000FE
:1003000000000000000000000000000000000000ED
:1003100000000000000000000000000000000000DD
:1003200000000000000000000000000000000000CD
:1003300000000000000000000000000000000000BD
:1003400000000000000000000000000000000000AD
:10035000000000000000000000000000000000009D
:100360000000000000000000000101010100000089
:10037000000000000000000001010000010000007A
:100380000000000000000000010000030100000068
:100390000000000000000000010100000101000059
:1003A0000000000000000000010103020001000045
:1003B0000000000000000000010403030001000031
:1003C000000000000000000001040405040100001A
:1003D0000000000000000000010101010101000017
:1003E000000000000000000000000000000000000D
:1003F00000000000000000000000000000000000FD
:1004000000000000000000000000000000000000EC
:1004100000000000000000000000000000000000DC
:1004200000000000000000000000000000000000CC
:1004300000000000000000000000000000000000BC
:1004400000000000000000000000000000000000AC
:10045000000000000000000000000000000000009C
:100460000000000000000000000101010101000087
:100470000000000000000000000100020101010076
:100480000000000000000000000100030000010067
:100490000000000000000000010101000100010156
:1004A0000000000000000000010401000100000144
:1004B0000000000000000000010403000001000132
:1004C0000000000000000000010400000003000123
:1004D0000000000000000000010101010101010114
:1004E000000000000000000000000000000000000C
:1004F00000000000000000000000000000000000FC
:1005000000000000000000000000000000000000EB
:1005100000000000000000000000000000000000DB
:1005200000000000000000000000000000000000CB
:1005300000000000000000000000000000000000BB
:1005400000000000000000000000000000000000AB
:10055000000000000000000000000000000000009B
:100560000000000000000000000000010101010186
:100570000101000000000000010101010000000075
:100580000001000000000000010000000401010162
:100590000001000000000000010001000100000057
:1005A0000001010000000000010001000300030140
:1005B000040001000000000001000100000500002F
:1005C000010001000000000001000401030003001D
:1005D0000100010000000000010100000000010016
:1005E00001000101010000000001000101010400FF
:1005F00000000002010000000001000000000001F6
:1006000001000000010000000001010101010101E1
:1006100001010101010000000000000000000000D5
:1006200000000000000000000000000000000000CA
:1006300000000000000000000000000000000000BA
:1006400000000000000000000000000000000000AA
:10065000000000000000000000000000000000009A
:10066000000000000000000000000000000000008A
:10067000000000000000000000000000000000007A
:10068000000000000000000000000000000000006A
:10069000000000000000000000000000000000005A
:1006A000000000000000000000000000000000004A
:1006B000000000000000000000000000000000003A
:1006C000000000000000000000000000000000002A
:1006D000000000000000000000000000000000001A
:1006E0000000000000000000000000010101010105
:1006F00001010000000000000000010100000100F5
:1007000002010000000000000000010000000103E1
:1007100000010000000000000000010300000300D1
:1007200000010000000000000000010003010100C2
:1007300000010000000000000101010003000100B1
:100740000101000000000000010404040404000092
:100750000100000000000000010101010101010190
:100760000100000000000000000000010101010183
:100770000100000000000000000101010000000075
:10078000010000000000000001010400030101005D
:100790000101000000000000010404030003000048
:1007A0000201000000000000010404000300030037
:1007B0000101000000000000010101010101000031
:1007C0000100000000000000000000000001010125
:1007D0000100000000000000000000000000000018
:1007E0000000000000000000000000000000000009
:1007F00000000000000000000000000000000000F9
:1008000000000000000000000000000000000000E8
:1008100000000000000000000000000000000000D8
:1008200000000000000000000000000000000000C8
:1008300000000000000000000000000000000000B8
:1008400000000000000000000000000000000000A8
:100850000000000000000000000000000000000098
:100860000000000000000000000101010101010181
:100870000101000000000000000100000101000073
:100880000001000000000000000100000003000063
:100890000001000000000000000103000101010050
:1008A0000301000000000000000100010404040135
:1008B0000001000000000000010100010404040127
:1008C000000101000000000001000300000300001F
:1008D0000300010000000000010000000000010012
:1008E00000020100000000000101010101010101FD
:1008F00001010100000000000000000000000000F5
:1009000000000000000000000000000000000000E7
:1009100000000000000000000000000000000000D7
:1009200000000000000000000000000000000000C7
:1009300000000000000000000000000000000000B7
:1009400000000000000000000000000000000000A7
:100950000000000000000000000000000000000097
:100960000000000000000000000001010101010181
:100970000000000000000000000001000000000175
:10098000000000000000000001010103030300015A
:100990000000000000000000010200030404000148
:1009A0000000000000000000010003040404010135
:1009B0000000000000000000010101010000010032
:1009C0000000000000000000000000010101010023
:1009D0000000000000000000000000000000000017
:1009E0000000000000000000000000000000000007
:1009F00000000000000000000000000000000000F7
:100A000000000000000000000000000000000000E6
:100A100000000000000000000000000000000000D6
:100A200000000000000000000000000000000000C6
:100A300000000000000000000000000000000000B6
:100A400000000000000000000000000000000000A6
:100A50000000000000000000000000000000000096
:100A60000000000000000000000101010100000181
:100A7000010101010000000001010000010000016E
:100A8000000000010000000001000300010101015D
:100A9000030000010000000001000003040404043E
:100AA000000300010000000001010000000001003F
:100AB000020001010000000000010101010101012B
:100AC0000101010000000000000000000000000023
:100AD0000000000000000000000000000000000016
:100AE0000000000000000000000000000000000006
:100AF00000000000000000000000000000000000F6
:100B000000000000000000000000000000000000E5
:100B100000000000000000000000000000000000D5
:100B200000000000000000000000000000000000C5
:100B300000000000000000000000000000000000B5
:100B400000000000000000000000000000000000A5
:100B50000000000000000000000000000000000095
:100B60000000000000000000000001010101010080
:100B7000000000000000000001010100000201006F
:100B8000000000000000000001000003040001015B
:100B90000000000000000000010000040304000148
:100BA0000000000000000000010101000503000139
:100BB0000000000000000000000001000000010132
:100BC0000000000000000000000001010101010020
:100BD0000000000000000000000000000000000015
:100BE0000000000000000000000000000000000005
:100BF00000000000000000000000000000000000F5
:100C000000000000000000000000000000000000E4
:100C100000000000000000000000000000000000D4
:100C200000000000000000000000000000000000C4
:100C300000000000000000000000000000000000B4
:100C400000000000000000000000000000000000A4
:100C50000000000000000000000000000000000094
:100C60000000000000000000000001010101000080
:100C7000000000000000000000000104040100006A
:100C8000000000000000000000010100040101005C
:100C9000000000000000000000010000030401004B
:100CA000000000000000000001010003000001013D
:100CB000000000000000000001000001030300012B
:100CC0000000000000000000010000020000000120
:100CD000000000000000000001010101010101010C
:100CE0000000000000000000000000000000000004
:100CF00000000000000000000000000000000000F4
:100D000000000000000000000000000000000000E3
:100D100000000000000000000000000000000000D3
:100D200000000000000000000000000000000000C3
:100D300000000000000000000000000000000000B3
:100D400000000000000000000000000000000000A3
:100D50000000000000000000000000000000000093
:100D6000000000000000000001010101010101017B
:100D70000000000000000000010000010000000170
:100D80000000000000000000010003040403000153
:100D90000000000000000000010203040500010142
:100DA0000000000000000000010003040403000133
:100DB0000000000000000000010000010000000130
:100DC000000000000000000001010101010101011B
:100DD0000000000000000000000000000000000013
:100DE0000000000000000000000000000000000003
:100DF00000000000000000000000000000000000F3
:100E000000000000000000000000000000000000E2
:100E100000000000000000000000000000000000D2
:100E200000000000000000000000000000000000C2
:100E300000000000000000000000000000000000B2
:100E400000000000000000000000000000000000A2
:100E50000000000000000000000000000000000092
:100E6000000000000000000000010101010101007C
:100E7000000000000000000001010000000001016E
:100E80000000000000000000010003000303000157
:100E90000000000000000000010404040404040138
:100EA0000000000000000000010003030003000137
:100EB000000000000000000001010100020101012A
:100EC000000000000000000000000101010100001E
:100ED0000000000000000000000000000000000012
:100EE0000000000000000000000000000000000002
:100EF00000000000000000000000000000000000F2
:100F000000000000000000000000000000000000E1
:100F100000000000000000000000000000000000D1
:100F200000000000000000000000000000000000C1
:100F300000000000000000000000000000000000B1
:100F400000000000000000000000000000000000A1
:100F50000000000000000000000000000000000091
:100F6000000000000000000000000101010101017B
:100F7000010100000000000000000100000000016D
:100F8000010100000000000000000100030000005B
:100F90000001000000000000010101000300010148
:100FA0000001000000000000010404040003000030
:100FB000000100000000000001040404030103001C
:100FC0000101000000000000010101010001000317
:100FD000000100000000000000000001000000020D
:100FE00000010000000000000000000101010101FB
:100FF00001010000000000000000000000000000EF
:1010000000000000000000000000000000000000E0
:1010100000000000000000000000000000000000D0
:1010200000000000000000000000000000000000C0
:1010300000000000000000000000000000000000B0
:1010400000000000000000000000000000000000A0
:101050000000000000000000000000000000000090
:10106000000000000000000001010101010100007A
:10107000000000000000000001000000000100006E
:101080000000000000000000010003030301010054
:101090000000000000000000010000010404010144
:1010A0000100000000000000010100000404030032
:1010B000010000000000000000010000020000002C
:1010C0000100000000000000000101010101010118
:1010D000010000000000000000000000000000000F
:1010E0000000000000000000000000000000000000
:1010F00000000000000000000000000000000000F0
:1011000000000000000000000000000000000000DF
:1011100000000000000000000000000000000000CF
:1011200000000000000000000000000000000000BF
:1011300000000000000000000000000000000000AF
:10114000000000000000000000000000000000009F
:10115000000000000000000000000000000000008F
:101160000000000000000000000001010101010179
:101170000101000000000000000001000000010467
:101180000001000000000000000101000003040451
:101190000401000000000000000100000300010540
:1011A0000401000000000000010100010103010032
:1011B0000101000000000000010000000300000326
:1011C000000100000000000001000000010000001C
:1011D0000001000000000000010101010101010205
:1011E00000010000000000000000000000000101FC
:1011F00001010000000000000000000000000000ED
:1012000000000000000000000000000000000000DE
:1012100000000000000000000000000000000000CE
:1012200000000000000000000000000000000000BE
:1012300000000000000000000000000000000000AE
:10124000000000000000000000000000000000009E
:10125000000000000000000000000000000000008E
:101260000000000000000000000101010101010177
:10127000000000000000000000010502040400015D
:10128000000000000000000001010104040403014B
:101290000101000000000000010003000103000341
:1012A0000001000000000000010003000000010335
:1012B000000100000000000001000000000100002B
:1012C0000001000000000000010101010000000118
:1012D0000101000000000000000000010101010107
:1012E00000000000000000000000000000000000FE
:1012F00000000000000000000000000000000000EE
:1013000000000000000000000000000000000000DD
:1013100000000000000000000000000000000000CD
:1013200000000000000000000000000000000000BD
:1013300000000000000000000000000000000000AD
:10134000000000000000000000000000000000009D
:10135000000000000000000000000000000000008D
:101360000000000000000000010101010101010076
:101370000000000000000000010404030404010058
:10138000000000000000000001040401040401004A
:101390000000000000000000010003030300010042
:1013A0000000000000000000010000030000010038
:1013B0000000000000000000010003030300010022
:1013C0000000000000000000010000010200010018
:1013D0000000000000000000010101010101010006
:1013E00000000000000000000000000000000000FD
:1013F00000000000000000000000000000000000ED
:1014000000000000000000000000000000000000DC
:1014100000000000000000000000000000000000CC
:1014200000000000000000000000000000000000BC
:1014300000000000000000000000000000000000AC
:10144000000000000000000000000000000000009C
:10145000000000000000000000000000000000008C
:101460000000000000000000000000010101010177
:10147000010000000000000000000001000404045E
:101480000100000000000000010101010404040447
:101490000100000000000000010000010101030044
:1014A000010101000000000001000300030000032F
:1014B000030001000000000001020003000300001F
:1014C0000000010000000000010000000101010017
:1014D0000000010000000000010101010100010104
:1014E00001010100000000000000000000000000F9
:1014F00000000000000000000000000000000000EC
:1015000000000000000000000000000000000000DB
:1015100000000000000000000000000000000000CB
:1015200000000000000000000000000000000000BB
:1015300000000000000000000000000000000000AB
:10154000000000000000000000000000000000009B
:10155000000000000000000000000000000000008B
:101560000000000000000000010101010101010173
:101570000000000000000000010000000000000169
:101580000000000000000000010001030300000152
:10159000000000000000000001000404040100013C
:1015A0000000000000000000010104040403000129
:1015B0000100000000000000000100010100030024
:1015C0000100000000000000000103000003000013
:1015D0000100000000000000000100000100000206
:1015E00001000000000000000001010101010101F3
:1015F00001000000000000000000000000000000EA
:1016000000000000000000000000000000000000DA
:1016100000000000000000000000000000000000CA
:1016200000000000000000000000000000000000BA
:1016300000000000000000000000000000000000AA
:10164000000000000000000000000000000000009A
:10165000000000000000000000000000000000008A
:101660000000000000000000000001010101010075
:101670000000000000000000010101000000010165
:101680000101000000000000010000000300000351
:101690000001000000000000010003000203000040
:1016A000000100000000000001010103030101012D
:1016B000010100000000000000000100000404011E
:1016C0000000000000000000000001040404040108
:1016D0000000000000000000000001010101010104
:1016E00000000000000000000000000000000000FA
:1016F00000000000000000000000000000000000EA
:1017000000000000000000000000000000000000D9
:1017100000000000000000000000000000000000C9
:1017200000000000000000000000000000000000B9
:1017300000000000000000000000000000000000A9
:101740000000000000000000000000000000000099
:101750000000000000000000000000000000000089
:101760000000000000000000010101010101000073
:101770000001010101010000010000000001010160
:10178000000100000401000001000003000300014B
:101790000001040404010000010001000003000135
:1017A0000101000004010000010000030303000028
:1017B0000003000204010000010101000003000019
:1017C0000301000004010000000001000003010308
:1017D00000010404040100000000010100000000F9
:1017E00000010000040100000000000101010101EE
:1017F00001010101010100000000000000000000E3
:1018000000000000000000000000000000000000D8
:1018100000000000000000000000000000000000C8
:1018200000000000000000000000000000000000B8
:1018300000000000000000000000000000000000A8
:101840000000000000000000000000000000000098
:101850000000000000000000000000000000000088
:101860000000000000000000000101010101010171
:101870000101000000000000000100000001010063
:101880000001010101000000000100030000000050
:10189000000000000100000000010103010101003F
:1018A000010100000100000000010000010100052D
:1018B0000001000101000000000100030404040411
:1018C0000404000100000000010100010101000406
:1018D0000001000100000000010000000000030101
:1018E00001010301000000000100000001000000F0
:1018F00000030201000000000101010101030100D9
:1019000001010101000000000000000001000000D2
:1019100001000000000000000000000001010101C2
:1019200001000000000000000000000000000000B6
:1019300000000000000000000000000000000000A7
:101940000000000000000000000000000000000097
:101950000000000000000000000000000000000087
:101960000000000000000000010000000001000174
:101970000001000000010000010000000001000162
:101980000001000000010000010000000001010151
:101990000001000100010000010000000001000141
:1019A000000100010001000001010101000100012E
:1019B0000000010001000001000000000000000024
:1019C0000000000000000000000000000001010114
:1019D00001010100010101000001010101000000FD
:1019E00000000100000001000001000001000001F2
:1019F00001000100000100000001000003000000E0
:101A000000000100010000000001000001000001D1
:101A100000010100000000000101010001010301BB
:101A200000000101000101010100030000000003AA
:101A30000300010100010001010001030100000198
:101A4000000001010001000101020000010101018B
:101A5000010101010001000101010101010000007B
:101A60000000000100010101000000000000000072
:101A70000000000000000000000000000000000066
:101A80000000000000000000000000000000000056
:101A90000000000000000000000000000000000046
:101AA0000000000000000000000000000000010134
:101AB000010101010101010000000000000001001E
:101AC0000000000000000100000000000000010014
:101AD0000100010001000100000000000000010001
:101AE00000030003010001000101010101010100E7
:101AF00000000300000001000104040100000101D6
:101B000000030003010001000104040000000101C2
:101B100000030003000001000104040100000101B2
:101B200000010101010101000104040100010003A1
:101B30000003000100000000010404000000000098
:101B4000030000010000000001000001010102008B
:101B5000000101010000000001010101000101017B
:101B6000010100000000000000000000010101016F
:101B7000000000000000000001010101010000015F
:101B8000000000000000000001000003000300014D
:101B90000001010101010101010000000300000139
:101BA0000001050405040501010100030003000113
:101BB0000101040504050401000103000300000104
:101BC00000000504050405010001020300030000F4
:101BD00000000405040501010001030003000001E9
:101BE00000000504050405010101000300030001D4
:101BF00001010405040504010100000003000001C7
:101C000000010504050405010100000300030001B3
:101C100000010101010101010101010101000001B7
:101C200000000000000000000000000001010101B0
:101C300000000000000000000000000000000000A4
:101C40000000000000000000000000000000000094
:101C50000000000000000000000000000000000084
:101C6000000000000000000001010101010101016C
:101C7000000000000000000001040404040404014A
:101C8000000000000000000001000003000100014E
:101C9000010000000000000001000300010003003B
:101CA0000100000000000000010103000300030028
:101CB0000100000000000000000100000200000020
:101CC000010000000000000000010101010101010C
:101CD0000100000000000000000000000000000003
:101CE00000000000000000000000000000000000F4
:101CF00000000000000000000000000000000000E4
:101D000000000000000000000000000000000000D3
:101D100000000000000000000000000000000000C3
:101D200000000000000000000000000000000000B3
:101D300000000000000000000000000000000000A3
:101D40000000000000000000000000000000000093
:101D50000000000000000000000000000000000083
:101D6000000000000000000000000101010101016D
:101D70000101010100000000010101000000040355
:101D80000200000100000000010000000101030149
:101D90000100000100000000010000000500040037
:101DA0000400010100000000010100030101030122
:101DB000010001000000000000010000000004001C
:101DC000000001000000000000010101010101010B
:101DD0000101010000000000000000000000000000
:101DE00000000000000000000000000000000000F3
:101DF00000000000000000000000000000000000E3
:101E000000000000000000000000000000000000D2
:101E100000000000000000000000000000000000C2
:101E200000000000000000000000000000000000B2
:101E300000000000000000000000000000000000A2
:101E40000000000000000000000000000000000092
:101E50000000000000000000000000000000000082
:101E6000000000000000000000000001010101016D
:101E70000100000000000000010101010400000059
:101E80000100000000000000010000030303000047
:101E90000100000000000000010401010401010430
:101EA000010000000000000001000000030000002D
:101EB000010000000000000001000003000100011B
:101EC000010000000000000001010101000000010C
:101ED00000000000000000000000000101010101FD
:101EE00000000000000000000000000000000000F2
:101EF00000000000000000000000000000000000E2
:101F000000000000000000000000000000000000D1
:101F100000000000000000000000000000000000C1
:101F200000000000000000000000000000000000B1
:101F300000000000000000000000000000000000A1
:101F40000000000000000000000000000000000091
:101F50000000000000000000000000000000000081
:101F6000000000000000000000010101010101006B
:101F70000000000000000000000104000404010053
:101F80000000000000000000000104000304010044
:101F90000000000000000000010101000003010139
:101FA0000000000000000000010003000003000129
:101FB0000000000000000000010001030101000119
:101FC000000000000000000001000000020000010D
:101FD00000000000000000000101010101010101F9
:101FE00000000000000000000000000000000000F1
:101FF00000000000000000000000000000000000E1
:1020000000000000000000000000000000000000D0
:1020100000000000000000000000000000000000C0
:1020200000000000000000000000000000000000B0
:1020300000000000000000000000000000000000A0
:102040000000000000000000000000000000000090
:102050000000000000000000000000000000000080
:102060000000000000000000000000000000000070
:102070000000000000000000000000000000000060
:102080000000000000000000000000000000000050
:102090000000000000000000000000000000000040
:1020A000000000000000000000000000010101012C
:1020B000010100000000000000000101010000001B
:1020C0000001010100000000000001000000010308
:1020D00000000001010100000000010000000300F9
:1020E00000000303000100000000010003030001E1
:1020F00003000000000100000000010100000003D7
:1021000000000003000100000101010101010001C4
:1021100003010101010100000104040200010300A8
:10212000000100000000000001040104040000039D
:102130000101000000000000010404040403010088
:10214000010000000000000001040404040000007D
:102150000100000000000000010101010101010176
:102160000100000000000000010101010101010166
:102170000101010101010100010000000000000156
:102180000000000000000100010003000103000145
:102190000003010103000100010001000003000130
:1021A0000000000000000100010000000101030127
:1021B0000301010303000100010001000100040408
:1021C0000400010000000100010003000004000100
:1021D00000040300000001000100030102030404E5
:1021E00004010001000001000100000000040001E2
:1021F00000040000030001000100010104030101CB
:1022000001030400010001000100010003040404B3
:1022100004040001010001000100000000000000B2
:1022200000000000000001000101010101010101A5
:102230000101010101010100000000000000000097
:10224000000000000000000000000000000000008E
:10225000000000000000000000000000000000007E
:102260000000000000000000010101010101010166
:10227000010000000000000001000000010100005A
:102280000100000000000000010001000300030045
:102290000100000000000000010000050401000032
:1022A000010000000000000001010001040204011F
:1022B000010000000000000001010301010105010F
:1022C000010100000000000001000000000000000B
:1022D00000010000000000000100000001010001F9
:1022E00000010000000000000101010101010000E7
:1022F00000010000000000000000000000010101DA
:1023000001010000000000000000000000000000CB
:1023100000000000000000000000000000000000BD
:1023200000000000000000000000000000000000AD
:10233000000000000000000000000000000000009D
:10234000000000000000000000000000000000008D
:10235000000000000000000000000000000000007D
:102360000000000000000000010101010101010165
:10237000000000000000000001000000000000015B
:102380000000000000000000010003030000000145
:10239000010100000000000001000003000303032E
:1023A000000101010101000001010001010004041C
:1023B000040000000001010000010001020104040A
:1023C00004010101030001000001000100030404F5
:1023D00004000000000001000101000100030404EA
:1023E00004030001000101000100000001010101DE
:1023F00000010101000100000100000000000003D5
:1024000000000003000100000101010101010101C0
:1024100001010100000100000000000000000000B8
:1024200000000101010100000000000000000000A8
:10243000000000000000000000000000000000009C
:10244000000000000000000000000000000000008C
:10245000000000000000000000000000000000007C
:102460000000000000000000000000000101010168
:102470000100000000000000000000000100020058
:102480000100000000000000000000000103030341
:102490000100000000000000000101010100000037
:1024A0000100000000000000000100000004000323
:1024B000010101000000000000010003040304000A
:1024C00004010100000000000001000001040104FB
:1024D00001010000000000000001010101010101F3
:1024E00001000000000000000000000000000000EB
:1024F00000000000000000000000000000000000DC
:1025000000000000000000000000000000000000CB
:1025100000000000000000000000000000000000BB
:1025200000000000000000000000000000000000AB
:10253000000000000000000000000000000000009B
:10254000000000000000000000000000000000008B
:10255000000000000000000000000000000000007B
:102560000000000000000000000001010101010165
:102570000101010101010000000001040404000147
:102580000000000000010000000001040400000140
:10259000000101000001000000000104040000002F
:1025A000000001000001000000000104040000011F
:1025B0000003010100010000000001040404000107
:1025C00003000300000100000000010101010101FE
:1025D00000000303000100000000000101000003EF
:1025E00000030300000100000000000102000303DB
:1025F00003000001000100000000000101000300D1
:1026000001000000000100000000000001000000C7
:1026100000000000000100000000000001010101B5
:1026200001010101010100000000000000000000A4
:10263000000000000000000000000000000000009A
:10264000000000000000000000000000000000008A
:10265000000000000000000000000000000000007A
:102660000000000000000000010101010101010162
:102670000100000000000000010000000000000058
:10268000010000000000000001000003000300033F
:102690000100000000000000010100010301010031
:1026A0000100000000000000000100040400040418
:1026B0000101000000000000000101040400040406
:1026C0000001000000000000000001000101030102
:1026D00000010100000000000000010300030003EE
:1026E00000000100000000000000010000000000E8
:1026F00000020100000000000000010101010101D1
:1027000001010100000000000000000000000000C6
:1027100000000000000000000000000000000000B9
:1027200000000000000000000000000000000000A9
:102730000000000000000000000000000000000099
:102740000000000000000000000000000000000089
:102750000000000000000000000000000000000079
:102760000000000000000000010101010101010161
:102770000101010101010101010101040100040045
:10278000010100000104040101010000000000003B
:10279000040000030100000101010000000100002D
:1027A000040000000300000101010100000100011C
:1027B000010100000100000101000300000100030D
:1027C0000001000000000101010000000001000004
:1027D00000010000000001010100010000010001F2
:1027E00000010001010001010100010000000000E2
:1027F00000010001010001010100010101000001CF
:1028000001010000000001010100010000000001C1
:1028100000010000000000010100010003000000B1
:10282000000101010100000101000001010100019E
:10283000000100000000000101020300000000038D
:102840000001000000000001010000000000000085
:102850000001040101000001010101010101010168
:102860000101010101010101000000000000000060
:102870000000000000000000000000000000010156
:102880000101010000000000000001010101010040
:10289000000001000000000000000100000400032F
:1028A000010001000000000000000100010405001B
:1028B0000000010000000000000101000504010308
:1028C00000010100000000000001000300000300FF
:1028D00000010000000000000001000000010100F4
:1028E00002010000000000000001010101010101DE
:1028F00001010000000000000000000000000000D6
:1029000000000000000000000000000000000000C7
:1029100000000000000000000000000000000000B7
:1029200000000000000000000000000000000000A7
:102930000000000000000000000000000000000097
:102940000000000000000000000000000000000087
:102950000000000000000000000000000000000077
:102960000000000000000000000000000000000067
:102970000000000000000000000101010101000151
:10298000010101010101000000010000000101013D
:102990000000010000010000000100000300000031
:1029A0000003000200010000000101000103010119
:1029B0000401010000010000000001000004040403
:1029C00005040003000100000000010003010001F4
:1029D00004010001000100000000010100000000EE
:1029E00003000000000100000000000100000101E0
:1029F00001010101010100000000000101010100CD
:102A000000000000000000000000000000000000C6
:102A100000000000000000000000000000000000B6
:102A200000000000000000000000000000000000A6
:102A30000000000000000000000000000000000096
:102A40000000000000000000000000000000000086
:102A50000000000000000000000000000000000076
:102A600000000000000000000000000000003FFE29
:102A7000002083002082802082402082202082202B
:102A8000208220208220208220208220208220205C
:102A900082203FFE201001200800A004006003FFF8
:102AA000E000000000000000000000000000000046
:102AB0000000001FFC001FFD001FFD801FFDC01F48
:102AC000FDC01FFDC01FFDC01FFDC01FFDC01FFDBD
:102AD000C01FFDC00001C00FFEC007FF4003FF8004
:102AE000000000000000000000000000FFFF008068
:102AF0000180800140800120800110800108800158
:102B00000480010480010480010480010480010428
:102B1000800104800104800104FFFF044000842040
:102B2000004410002408001404000C03FFFC000003
:102B30000000000000000000000001FFC001802034
:102B4000014010012008011FF801100801100801C0
:102B500010880110880110880090880050480030CB
:102B600008001FF8000880000CC0000000000000F2
:102B700000000000000000000000000001FF8001D4
:102B80008040014020012010011FF8019008013011
:102B90000801110801B1080151080091080052080C
:102BA000003008001FF80006400000C000000000D0
:102BB000000000000000000000000000000001FF15
:102BC00080018040014020012010011FF801900881
:102BD00001900801924801900801500800D2480075
:102BE0005188007008001FF8000440000CC000006D
:102BF00000000000000000000000000000000000D5
:102C000001FF80018040014020012010011FF801D8
:102C100010080150080150080150080150080150E7
:102C20000800D00800B008001FF80008400018C0D5
:102C30000000000000000102040810204080000095
:102C40000000003E5B4F5B3E3E6B4F6B3E1C3E7C8C
:102C50003E1C183C7E3C181C577D571C1C5E7F5E3A
:102C60001C00183C1800FFE7C3E7FF0018241800F9
:102C7000FFE7DBE7FF30483A060E26297929264090
:102C80007F050507407F05253F5A3CE73C5A7F3EBC
:102C90001C1C08081C1C3E7F14227F22145F5F004E
:102CA0005F5F06097F017F006689956A60606060EA
:102CB0006094A2FFA29408047E040810207E2010D5
:102CC00008082A1C08081C2A08081E101010100CDE
:102CD0001E0C1E0C30383E3830060E3E0E0600002C
:102CE00000000000005F00000007000700147F14D0
:102CF0007F14242A7F2A122313086462364956203F
:102D0000500008070300001C2241000041221C0063
:102D10002A1C7F1C2A08083E080800807030000822
:102D200008080808000060600020100804023E51F6
:102D300049453E00427F4000724949494621414988
:102D40004D331814127F1027454545393C4A4949EF
:102D50003141211109073649494936464949291E59
:102D60000000140000004034000000081422411448
:102D700014141414004122140802015909063E419A
:102D80005D594E7C1211127C7F494949363E4141C2
:102D900041227F4141413E7F494949417F0909091B
:102DA000013E414151737F0808087F00417F410087
:102DB0002040413F017F081422417F404040407F36
:102DC000021C027F7F0408107F3E4141413E7F0983
:102DD0000909063E4151215E7F09192946264949C4
:102DE000493203017F01033F4040403F1F20402004
:102DF0001F3F4038403F6314081463030478040302
:102E00006159494D43007F414141020408102000AF
:102E10004141417F04020102044040404040000320
:102E200007080020545478407F28444438384444EC
:102E30004428384444287F385454541800087E09E4
:102E40000218A4A49C787F0804047800447D400004
:102E50002040403D007F1028440000417F40007C1E
:102E6000047804787C080404783844444438FC1816
:102E700024241818242418FC7C08040408485454FA
:102E8000542404043F44243C4040207C1C20402027
:102E90001C3C4030403C44281028444C9090907C8E
:102EA0004464544C440008364100000077000000A0
:102EB0004136080002010204023C2623263C1EA1E2
:102EC000A161123A4040207A385454555921555541
:102ED00079412154547841215554784020545579F2
:102EE000400C1E5272123955555559395454545983
:102EF00039555454580000457C410002457D42003C
:102F000001457C40F0292429F0F0282528F07C5444
:102F10005545002054547C547C0A097F4932494964
:102F200049323248484832324A4848303A414121D1
:102F30007A3A42402078009DA0A07D39444444392B
:102F40003D4040403D3C24FF2424487E4943662BBD
:102F50002FFC2F2BFF0929F620C0887E090320545F
:102F60005479410000447D413048484A323840405D
:102F7000227A007A0A0A727D0D19317D2629292FBD
:102F800028262929292630484D40203808080808D5
:102F900008080808382F10C8ACBA2F102834FA00D7
:102FA000007B000008142A142222142A1408950019
:102FB000220095AA005500AAAA55AA55AA00000009
:102FC000FF00101010FF00141414FF001010FF0079
:102FD000FF1010F010F0141414FC001414F700FF8C
:102FE0000000FF00FF1414F404FC141417101F1049
:102FF000101F101F1414141F00101010F0000000F8
:10300000001F101010101F10101010F01000000002
:10301000FF101010101010101010FF10000000FF13
:10302000140000FF00FF00001F10170000FC04F454
:1030300014141710171414F404F40000FF00F7140C
:10304000141414141414F700F71414141714101093
:103050001F101F141414F4141010F010F000001FAF
:10306000101F0000001F14000000FC140000F010EE
:10307000F01010FF10FF141414FF141010101F0094
:10308000000000F010FFFFFFFFFFF0F0F0F0F0FF96
:10309000FFFF0000000000FFFF0F0F0F0F0F38446D
:1030A0004438447C2A2A3E147E02020606027E022E
:1030B0007E0263554941633844443C04407E201EEF
:1030C0002006027E020299A5E7A5991C2A492A1C1E
:1030D0004C7201724C304A4D4D303048784830BC0B
:1030E000625A463D3E494949007E0101017E2A2A35
:1030F0002A2A2A44445F444440514A444040444AB6
:1031000051400000FF0103E080FF000008086B6BE6
:10311000083612362436060F090F0600001818006C
:1031200000001010003040FF0101001F01011E00CF
:10313000191D1712003C3C3C3C0000000000AED5BD
:10314000F0A83FD300408D14A1C8DA1281CFD9F185
:10315000DB40A4A6AF200021007F22000745455098
:10316000524F4D2077726974696E67206572726F75
:103170007200696E697469616C697A65207468654A
:1031800020454550524F4D00536F6B6F62616E0A80
:103190004259204C48570000000000000000000089
:1031A00000000882800000AAAAAAAAAAAAAAAAAA1B
:1031B000AAAAB2144AAAAA04040404040404040433
:1031C000040420A2208444AAAAAAAAAAAAAAAAAA53
:1031D000AAAACA9A8A0AAA000000000000000000F9
:1031E0000000800028A810AAAAAAAAABEAA0AAAA4E
:1031F000AAAB222224204A40404040000000006048
:1032000000420000000224AAAAA000A880A808008A
:1032100000ACA8A8A8A90A00000000000000000057
:10322000003800000000A0AAA802222222222222A6
:103230002232222222260A0601000000000000009D
:1032400000200000000224AAA08888888888888836
:1032500088CA8A8A8A880B000000000000000000EB
:10326000008000000000A2AA822222222222222222
:1032700023222222222246600000000000000000DB
:103280000200000000001CAA08A8A8A8A8A8A8A8D6
:10329000AFFFFFFFFFFFFA0000000000000000008A
:1032A00004000000000010AA222222222222222250
:1032B00026E222223B66BA06000000000000000061
:1032C000052990001A4D94A888888888888888885D
:1032D0008FEFAA8A8BAE9A00000000000000000069
:1032E00004000000000010A8222222222222222212
:1032F0002632222222223A60000000000000000054
:1033000004000000000014A0A8A8A8A8A8A8A8A8C5
:10331000ACA8A8A8A8A8BA000000000000000000FF
:1033200004000000000010A22222222222222222D7
:103330002622222222223A00000000000000000083
:1033400004000000000014A48888883888888088D9
:103350008E8A8A8A8A8A9A00000000EE000030E095
:10336000040000000000108222222381A22200001B
:103370002622222222223A000000060060000000DD
:103380000400000000001480A8A83800700088889D
:103390000CA8A8A8A8A8BA000000E00390000000AC
:1033A0000C000000000010822221800610000000A6
:1033B0000EFFFFFFFFFFFB0000016038D0000000A0
:1033C0000700000300001680888930C35088888871
:1033D0008E88888AAAAABE0000010B8450000000D3
:1033E0000400000400001882222304395000000069
:1033F00004202027FFFFFA40000104C15000000014
:103400000800000800001488A8A9058158080808C9
:103410001888889AAAAABA00000105215000000065
:103420003FFFFFE000001082222335205000000003
:103430006AAAAAEA2A2A3A000001252050000000C0
:10344000C44669E00000148888896500588080813E
:10345000A928E5AAAAAABA0000014507500000035E
:103460001286CF60000010822221453C50000006E9
:10347000A86B56AAAAAABA60000145205000000C09
:1034800055063C6000001480A8014500D808FFFFE5
:10349000FFBD72AAAAAABB000001450710002000C8
:1034A0000042A920000012A22201453810001AAAE9
:1034B000AABFE6AA2A2A3E000000C5C030000C447C
:1034C0004455896000001C808808E400C8888EAAE2
:1034D000AAAB6AAFFFFFFA0000005C0F800003FF99
:1034E000FFFF51600000108222004C39000002AA48
:1034F000AAACAAAAAAAABA0000804EE10000020063
:103500000005556000001488A8084B8988080AAA9D
:10351000AAAEAAAAAAAABA000000A80180000200C6
:103520000005112000001082220008038000022AFA
:103530002A2EAAAA2A2A3A0000000C000000020043
:10354000000555600000148888081C8080808AAAC5
:10355000AAAEAAAAAAAABA000000000000000200AF
:10356000000551600000108222000000000002AA45
:10357000AAAEAAAAAAAABA4000000000000002004F
:103580000005556000001488A880888888088AAAE9
:10359000AAAEAAAAAAAABA53746570007E004C65A6
:1035A00076656C004E4557205245434F52440048C3
:1035B0006973746F727920005374657020005749E5
:1035C0004E00FF2511241FBECFEFD8E0DEBFCDBFD8
:1035D00011E0A0E0B1E0E2ECFCE402C005900D9245
:1035E000AE31B107D9F727E0AEE1B1E001C01D92DD
:1035F000AC34B207E1F71AE1C2EEDAE104C0219778
:10360000FE010E945426C13ED107C9F70E94DD2168
:103610000C945F260C940000CF92DF92EF92FF9201
:103620000F931F93CF93DF936C017A018B01C0E05E
:10363000D0E0CE15DF0589F0D8016D918D01D6015E
:10364000ED91FC910190F081E02DC6010995892B47
:1036500011F47E0102C02196ECCFC701DF91CF911A
:103660001F910F91FF90EF90DF90CF9008953FB79B
:10367000F8948091270190912801A0912901B0919F
:103680002A0126B5A89B05C02F3F19F00196A11D60
:10369000B11D3FBFBA2FA92F982F8827820F911DE8
:1036A000A11DB11DBC01CD0142E0660F771F881F2F
:1036B000991F4A95D1F70895339902C080E801C057
:1036C00080E04A9B8061319B80624B9B80644C9B75
:1036D0008860329B8460089584E98093BC00809167
:1036E000BC0084FDFCCF08958093BB0084E88093E8
:1036F000BC008091BC0087FFFCCF089584EA8093D2
:10370000BC008091BC0087FFFCCF88E70C94741B41
:10371000CF93811102C0C6EA01C0C7EA0E947E1B96
:1037200080E00E94741B8C2F0E94741BCF910C941C
:103730006C1B0E947E1B80E48093BB0084E8809316
:10374000BC00E5E3F3E09091BC0097FFFCCF9191C2
:103750009093BB008093BC0097E0E533F90799F79D
:103760008091BC0087FFFCCF0C946C1B08950895DA
:1037700080E090E00895EF92FF920F931F93CF9314
:10378000DF9310922D0110922C01CEE2D1E0209116
:10379000010130E0322F222760E070E0A0E0B0E0CD
:1037A00040E050E0CB01820F931F9A95FC01E40F9B
:1037B000F51FE859FF4FE4918E010A0F1B1FEE2EF3
:1037C000F12CF801F182E0824F5F5F4F909640311B
:1037D000510561F7605F7F4F22966115F1E07F0729
:1037E000E9F6DF91CF911F910F91FF90EF9008952F
:1037F00081E08093340380912E0390912F03E09118
:103800003203F0913303E90FF11D94E0EE0FFF1F37
:103810009A95E1F7E80FF11D809130039091310303
:10382000E80FF91FEE0FFF1FE25DFE4F80819181CF
:103830000197029710F4109234030895AF92BF924B
:10384000CF92DF92EF92FF920F93CF93DF93C091CD
:103850002101D0E06E0180E1C80ED11CE090200172
:10386000F12C570180E1A80EB11C259685E0E80EE9
:10387000F11C01E09601A501BE01C7010E94542080
:103880009601A701BE01C5010E945420DF91CF918E
:103890000F91FF90EF90DF90CF90BF90AF90089581
:1038A000EF92FF920F93CF93DF9360912101E62E69
:1038B000F12C80912001C82FD0E0B701625071092E
:1038C00000E021E140E1CE0101970E941520209106
:1038D0000201B70166507109CE010697EE24E39408
:1038E00006E1211104C026E144EF5BE20FC0213064
:1038F00021F426E142EB5BE209C0223021F426E10B
:1039000040E75BE203C026E14EE25BE20E947B1FE0
:10391000DF91CF910F91FF90EF9008954F925F92BA
:103920006F927F928F929F92AF92BF92CF92DF92CF
:10393000EF92FF920F931F93CF93DF93CDB7DEB734
:1039400028970FB6F894DEBF0FBECDBF20912F038E
:1039500080912E036EE271E0A1E030E040E050E0A3
:1039600090E0FB01E40FF51F0190F081E02DE330C2
:10397000F10531F0E630F10529F0329729F402C063
:10398000A0E002C0832F292F9F5F405E5F4F9031E0
:1039900041F73F5F6E5F7F4F303101F7A0932B01FE
:1039A00020932F0380932E0330E0A9014450510946
:1039B0005A8349832B5F3F4F3C832B8390E09C01CC
:1039C000225031093E832D83039698878F8357FFBA
:1039D00007C081EF489F402D112440931F0102C072
:1039E00010921F0137FF07C081EF289F202D11245F
:1039F00020931E0102C010921E0140901F014092B0
:103A0000200180911E0180932101FE0131969E01CB
:103A1000275F3F4F4FE050E08081918197FF03C0C7
:103A20001182108204C0409714F051834083329673
:103A3000E217F30789F71D81A12EB12C8F8198859C
:103A40008A159B050CF4A3C05980852D90E02B812D
:103A50003C81281739070CF491C0FC0184E0EE0F7B
:103A6000FF1F8A95E1F7EA0DFB1DEE0FFF1FE25DD8
:103A7000FE4F808191818330910509F445C03CF46B
:103A80008130910581F0029709F46FC070C08530D4
:103A9000910509F45BC00CF456C0069709F067C0A5
:103AA0000E941E1C62C0C0902101D12C360186E00C
:103AB000681A7108E0902001F12C470186E0881A0D
:103AC000910800E020E140E1B301C4010E9415200B
:103AD0009601225F3F4FB601665F7F4FA701C70186
:103AE0000E945420A701425F5F4F9601B601C701B3
:103AF0000A960E945420EE24E39406E126E14CEE5F
:103B00005AE2B301C4011CC0C0902101D12C86E04F
:103B1000C81AD1088091200190E0E12C06E126E14D
:103B20004AEA5AE2B60106970E947B1F8091200163
:103B300090E0EE24E39426E148E65AE2B6010697C7
:103B40000E947B1F14C00E941E1C11C060912101A5
:103B500070E0665071098091200190E0EE24E394BA
:103B600006E126E14AEA5AE2EACF0E94501C80911F
:103B70002001815F80932001539467CF4092200100
:103B800080912101815F809321011F5F55CF28968D
:103B90000FB6F894DEBF0FBECDBFDF91CF911F915E
:103BA0000F91FF90EF90DF90CF90BF90AF909F90DC
:103BB0008F907F906F905F904F9008950E94DB20D0
:103BC0000E948E1C89E397E00C94991B0E945A2650
:103BD0000C9424268F929F92AF92BF92CF92DF9245
:103BE000EF92FF926B017C010E94371B4B015C013D
:103BF000C114D104E104F104F1F00E94371BDC018F
:103C0000CB0188199909AA09BB09883E9340A105EF
:103C1000B10570F321E0C21AD108E108F10888EE7D
:103C2000880E83E0981EA11CB11CC114D104E104CC
:103C3000F10419F7DDCFFF90EF90DF90CF90BF90A8
:103C4000AF909F908F9008951F920F920FB60F9292
:103C500011242F933F938F939F93AF93BF938091A2
:103C6000230190912401A0912501B091260130916A
:103C7000220123E0230F2D3720F40196A11DB11D51
:103C800005C026E8230F0296A11DB11D2093220135
:103C90008093230190932401A0932501B0932601E2
:103CA0008091270190912801A0912901B0912A01CA
:103CB0000196A11DB11D8093270190932801A09327
:103CC0002901B0932A01BF91AF919F918F913F91AC
:103CD0002F910F900FBE0F901F90189560387105AF
:103CE000D0F440345105B8F4E6E3FCE280E1849F6F
:103CF000D001A0781124A60F4770E40FF11D849124
:103D0000AB5CBC4F222319F06C91862B03C08095CD
:103D10006C9186238C9308952F923F924F925F92DD
:103D20006F927F928F929F92AF92BF92CF92DF92CB
:103D3000EF92FF920F931F93CF93DF93CDB7DEB730
:103D400029970FB6F894DEBF0FBECDBFFC016A30D5
:103D500069F425898189928938E0239F800D911D1E
:103D60001124928B818B108A1786AAC06D3009F4BA
:103D7000A7C099878887F5883488238861887288E6
:103D80000785108900381105C4F0A885B9855596B6
:103D90002C915597422F50E01F968D919C915097F2
:103DA000B6E02B9F800D911D1124E885F985908B3D
:103DB0008787268921116EC083C0F0E46F167104D5
:103DC00024F7C80125E0F29E800D911D11241816DC
:103DD0001906DCF68F2D90E09C838B83C301A8E04D
:103DE000FA9E800D911D11241816190674F6B5E07F
:103DF0006B9FB0011124FB01E25CF34DFA83E98370
:103E000030E08885998504969E838D83E981FA81C7
:103E1000E490353009F4E12C430188E0482EE0FCC1
:103E200002C0532C01C0522C51100BC0321009C0DB
:103E3000E6944A948B819C81880E991E4110EFCFA5
:103E40001BC068018C2D801B8F1590F754018A2DA3
:103E500088198F1568F4252DA501B6018D819E81E5
:103E60003F830E946E1E9FEFA91AB90A3F81EFCFD0
:103E7000AFEFCA1ADA0AE6CF3F5FEB81FC810E0F83
:103E80001F1F89819A8101969A838983363009F0B0
:103E9000BDCF7BCF6AEF64039001659F300D112485
:103EA00020583F4F281739075CF4A885B985ED9154
:103EB000FC9111970190F081E02D6AE0CD01099508
:103EC00081E090E029960FB6F894DEBF0FBECDBF1B
:103ED000DF91CF911F910F91FF90EF90DF90CF90E6
:103EE000BF90AF909F908F907F906F905F904F901A
:103EF0003F902F9008952F923F924F925F926F9232
:103F00007F928F929F92AF92BF92CF92DF92EF9269
:103F1000FF920F931F93CF93DF9300D000D01F9297
:103F2000CDB7DEB7C22ED12C9C012C0D3D1D37FD27
:103F300064C0803891050CF060C010E09B01200F38
:103F4000311F37FD5AC0603471050CF056C03E2D4C
:103F50003A012B011C01C6010796AC0193E055956F
:103F600047959A95E1F75A834983A12CB12CE12C0E
:103F7000F12CE016F1060CF040C01D821C824701B6
:103F8000840C951C4C815D814C155D0574F5EC81AC
:103F9000FD8183E0F595E7958A95E1F7EA0DFB1D34
:103FA000E60DF71DE491F0E08C819D8187709927E3
:103FB00040E850E002C0559547958A95E2F7E42322
:103FC000F523EF2B61F0232FA4016C817D81620D1D
:103FD000731D89E397E03B830E946E1E3B818C81B9
:103FE0009D8101969D838C83CDCF5FEFE51AF50A05
:103FF00089819A81A80EB91EBCCF0F900F900F90A7
:104000000F900F90DF91CF911F910F91FF90EF9044
:10401000DF90CF90BF90AF909F908F907F906F90E8
:104020005F904F903F902F9008958F929F92AF9204
:10403000BF92CF92DF92EF92FF920F93CF93DF93D5
:104040006B01EC014C01840E911C5B01A20EB11CB2
:10405000C815D905ECF47601D7FE10C0E12CF12C7F
:104060000DC0E816F90694F4202FA701BE0189E3DC
:1040700097E00E946E1E2FEFE21AF20AC50121E4BA
:10408000A216B10474F380E490E0EBCF2196E0CF68
:10409000DF91CF910F91FF90EF90DF90CF90BF9085
:1040A000AF909F908F9008954F925F926F927F9202
:1040B0008F929F92AF92BF92CF92DF92EF92FF9238
:1040C0000F931F93CF93DF93EC017B016A01C9012A
:1040D000A901461B570B57FF03C051954195510944
:1040E00096012C1B3D0B37FF03C0319521953109FB
:1040F00011E02417350714F010E00AC03C2D2D2DD7
:104100006C01832F922F3C2F2D2FE701E32EF22EEF
:10411000CC16DD0654F43E2D2F2D7C01832F922FDB
:104120003C2F2D2FE601C32ED22E26014C1A5D0AFC
:104130004C018E189F0897FE03C0919481949108BA
:10414000520157FE03C02FEFA21AB20AB594A794EA
:10415000E816F90614F08FEF01C081E0682E880F91
:104160007708CC16DD06B4F0202F112319F0AE012C
:10417000B70102C0A701BE0189E397E00E946E1E4D
:10418000A818B908B7FE04C0E60CF71CA40CB51CAF
:104190002196E7CFDF91CF911F910F91FF90EF9084
:1041A000DF90CF90BF90AF909F908F907F906F9057
:1041B0005F904F90089580E0E5E3F3E081118FEF89
:1041C000002481938193819381930394D1F7E5E354
:1041D000F7E0128A118A108A17860895009769F00D
:1041E000FC0101900020E9F73197AF01481B590B02
:1041F000BC0185E397E00C940C1B80E090E00895EF
:104200000F931F93CF93DF938C01C0E0D0E0F801B0
:10421000EC0FFD1F6491662371F0E0913507F0917A
:1042200036070190F081E02D85E397E00995892B11
:1042300011F02196ECCFCE01DF91CF911F910F911C
:1042400008958F929F92AF92BF920F931F93CF9337
:10425000DF93CDB7DEB7A1970FB6F894DEBF0FBEE0
:10426000CDBF19A2423008F44AE08E010F5D1F4F06
:10427000842E912CA12CB12CA50194010E943226F0
:10428000E62FB901CA0101501109EA3014F4E05DCA
:1042900001C0E95CD801EC93232B242B252B61F77B
:1042A000C8010E94EE20A1960FB6F894DEBF0FBEA3
:1042B000CDBFDF91CF911F910F91BF90AF909F9095
:1042C0008F900895CF92DF92EF92FF92CF93DF937A
:1042D0006C01990FEE08FF08F7FE1FC0E09135074B
:1042E000F09136070190F081E02D6DE285E397E0D3
:1042F0000995EC0166277727CB016C197D098E099A
:104300009F094AE00E9421218C0F9D1FDF91CF91D0
:10431000FF90EF90DF90CF9008954AE0C701B6017B
:10432000DF91CF91FF90EF90DF90CF900C942121FF
:1043300068EE73E080E090E00C94EA1D0F931F9309
:10434000CF93DF93EC0181E090E00E941C2680FF78
:104350002CC08AE090E00E941C269FEF980F9E3FA1
:1043600020F522E330E0388B2F8728E330E03A8BCA
:10437000298B0BE010E0E881F9810190F081E02DBC
:10438000682FCE010995C8010E941C260F5F1F4FA0
:104390000131110581F7CE0104960E94991BDF912E
:1043A000CF911F910F910C949821DF91CF911F9184
:1043B0000F91089504970C949E21789484B582609F
:1043C00084BD84B5816084BD85B5826085BD85B5B9
:1043D000816085BD80916E00816080936E00109237
:1043E00081008091810082608093810080918100B2
:1043F0008160809381008091800081608093800043
:104400008091B10084608093B1008091B0008160A0
:104410008093B00080917A00846080937A008091CC
:104420007A00826080937A0080917A008160809324
:104430007A0080917A00806880937A001092C1009F
:1044400081EC80937C0088B18E6088B987B1817FD0
:1044500087B98BB18C618BB98AB1837E8AB98AB1F5
:10446000806E8AB98BB18F718BB91092B90088E4D4
:104470008093B8000E947E1B80E00E94741BCEE3F4
:10448000D1E31C2F115EFE0184910E94741B2196C2
:104490001C13F9CF0E946C1B81E08093B8008091BF
:1044A00000010E94881BEE24E39400E420E847E921
:1044B00051E360E070E080E090E00E947B1F82E0CA
:1044C00090E090934507809344079093470780932B
:1044D000460788E891E30E94002189E397E00E9463
:1044E000991BC0E000E010E0C8010E941C26C80F24
:1044F0000F5F1F4F07301105B9F7CD3E09F46FC0AC
:104500000E94DB2082E791E30E94002187E191E095
:104510000E94EE206C2F70E080E090E04AE00E9464
:1045200021218AE191E00E94EE204AE06DEE70E0E8
:1045300080E090E00E94212187E191E00E94EE203E
:1045400089E397E00E94991BC0E0D0E060E0CE01D3
:104550000E94E81D2196C11544E0D407B9F763E72E
:1045600080E090E00E94E81D6FE681E090E00E940C
:10457000E81D6BE682E090E00E94E81D6FE683E0B4
:1045800090E00E94E81D62E684E090E00E94E81D51
:1045900061E685E090E00E94E81D6EE686E090E02E
:1045A0000E94E81D10E0C0E0D0E0CE010E941C2671
:1045B000180F2196C730D105C1F7112321F0E0E093
:1045C000F0E0099508C08DE591E30E94002187E1A4
:1045D00091E00E94EE2089E397E00E94991B6CED28
:1045E00075E080E090E00E94EA1D0E94BB1B0E94E3
:1045F000DE1D78E2A72EB12C89E393E0E8E77E2E5A
:10460000780EF0E64F2E512CA8E08A2E912CB0E1C6
:10461000EB2EF12C89EB96E068E7662E680E10927F
:1046200034030E945C1B82FF04C00E94BB1B0E94DB
:10463000DE1D0E945C1B83FF97C050E3C52ED12C6A
:104640000E945C1B83FF88C00E94DB200E948E1C9E
:1046500001E020E848E260E070E088E590E00E9438
:1046600015201092480711E0109349075092450712
:104670004092440790924707809246078EE995E35F
:104680000E9400215092450740924407F09247074C
:10469000E09246076091010170E080E090E04AE01E
:1046A0000E9421218CE995E30E9400214AE06AE200
:1046B00070E080E090E00E942121509245074092F6
:1046C0004407B0924707A092460787E995E30E9406
:1046D00000215092450740924407D0924707C0926C
:1046E000460780912C0190912D010E946221109328
:1046F0004807109249070E945C1B87FF09C0809100
:1047000001018A3218F48F5F809301010E94BB1B64
:104710000E945C1B84FF09C080910101823018F067
:104720008150809301010E94BB1B0E945C1B85FF8E
:104730000EC09091000181E08927809300010E94C2
:10474000881B62E370E080E090E00E94EA1D89E34C
:1047500097E00E94991B74CF0E94DB200E948E1C60
:1047600089E397E00E94991B0E945C1B87FF09C0A8
:104770001092020110923303109232038FEF9FEFD9
:104780000DC00E945C1B84FF0EC081E0809302017B
:10479000109233031092320381E090E09093310342
:1047A000809330031BC00E945C1B85FF06C082E023
:1047B000809302018FEF9FEF09C00E945C1B86FF70
:1047C0000FC083E08093020181E090E09093330377
:1047D0008093320310923103109230030E94F81B31
:1047E00080913403882309F438C140912F038091CC
:1047F0002E0390E0242F30E0FC0150E1459FE00DB6
:10480000F11D1124EE0FFF1FE25DFE4F408151812B
:104810004230510509F07CC060913203709133033E
:10482000260F371F0091300310913103EC01C00FA8
:10483000D11FD90184E0AA0FBB1F8A95E1F7AC0F05
:10484000BD1FAA0FBB1FA25DBE4FCD90DC9011977C
:10485000C114D10409F44FC084E0C816D10439F45E
:1048600086E090E08D939C9311821082E5C085E0F4
:10487000C816D10419F5260F371FCE01800F911FDE
:1048800044E0220F331F4A95E1F7820F931F880FF0
:10489000991F825D9E4FEC012881398121153105D8
:1048A00029F423E030E039832883DACF243031053E
:1048B00009F0CBC0EC01D982C882D2CF83E0C81600
:1048C000D10409F0C2C0260F371FCE01800F911FFF
:1048D00014E0220F331F1A95E1F7820F931F880F00
:1048E000991F825D9E4FEC01288139812115310588
:1048F00029F4D982C8824D935C93B6CF2430310518
:1049000009F0A3C025E030E0EC0139832883F3CF20
:104910004630510509F099C060913203709133031C
:10492000260F371F0091300310913103800F911F24
:10493000D901C4E0AA0FBB1FCA95E1F7A80FB91FA0
:10494000AA0FBB1FA25DBE4FCD90DC901197C11482
:10495000D10409F45CC0D4E0CD16D10429F44D9300
:104960005C93D182C08268C0C5E0CC16D104A9F5A1
:10497000260F371F800F911F64E0220F331F6A95A7
:10498000E1F7820F931F880F991F825D9E4FEC0104
:104990006881798120912C0130912D01611571057B
:1049A00059F463E070E0798368834D935C9384E00D
:1049B00090E0918380830AC064307105E9F5EC01D1
:1049C000D982C8824D935C93718360832F5F3F4F80
:1049D00030932D0120932C012FC0D3E0CD16D104AC
:1049E000A1F5260F371F800F911F44E0220F331FC0
:1049F0004A95E1F7280F391F220F331F225D3E4FE2
:104A0000E90188819981009749F4D982C88282E0BE
:104A100090E08D939C9384E090E00CC084309105ED
:104A2000A1F445E050E0E9015983488322E030E0F9
:104A30002D933C939183808380912C0190912D0143
:104A4000019690932D0180932C010E94DE1D62E35C
:104A500070E080E090E00E94EA1D80912B018823A5
:104A600009F4BFC00091010110E00A5F1F4FC801A7
:104A70000E941C2660912C0170912D01282F30E09E
:104A8000621773070CF4B5C0882309F4B2C0D12CA7
:104A90000E94DB20E9E3F3E07E1621F08081806153
:104AA0008193FACFE9EBF6E06E1621F08081886001
:104AB0008193FACF04E010E021E0A80164E070E007
:104AC00089E397E00E946E1E0F5F1F4F0C331105A4
:104AD00099F704E010E021E0A8016BE770E089E3BA
:104AE00097E00E946E1E0F5F1F4F0C33110599F760
:104AF00000E024E030E04CE450E064E070E08CE260
:104B000090E00E94542084E390E0909345078093C6
:104B1000440782E090E090934707809346078EEB2E
:104B200095E30E94002100E210E0109345070093F6
:104B30004407F0924707E092460788EB95E30E940E
:104B4000002180912C0190912D010E9462211093EF
:104B500045070093440788E190E0909347078093CE
:104B600046078FEA95E30E9400218091010190E0C1
:104B700006960E941C26682F70E080E090E04AE0D4
:104B80000E942121DD2061F0109345070093440726
:104B9000B0924707A092460784EA95E30E9400215D
:104BA00089E397E00E94991B0E945C1B83FFFCCF66
:104BB000809101018A3210F48F5F01C081E08093FF
:104BC00001010E94BB1B0E94DB200E948E1C89E316
:104BD00097E00E94991B62E370E080E090E00E9401
:104BE000EA1D80E090E0892B09F419CD0E940000B5
:104BF00011CDC8010E94E81DDD24D39449CFE5E31F
:104C0000F7E0138212821186128680E18387108674
:104C10001782158687E091E09183808385E191E09A
:104C200095838483108A1786128A118A81E0838B88
:104C3000148A858B168A0895F999FECF92BD81BD9D
:104C4000F89A992780B50895262FF999FECF1FBAB3
:104C500092BD81BD20BD0FB6F894FA9AF99A0FBEA5
:104C600001960895A1E21A2EAA1BBB1BFD010DC0DF
:104C7000AA1FBB1FEE1FFF1FA217B307E407F5070C
:104C800020F0A21BB30BE40BF50B661F771F881FE8
:104C9000991F1A9469F760957095809590959B017E
:104CA000AC01BD01CF010895EE0FFF1F0590F491F7
:104CB000E02D099481E090E0F8940C945F26F8943C
:024CC000FFCF24
:104CC200010101000000008C1E0C1BB81BB71B9ECB
:0E4CD20021FCFF0000DA210D0A00213D000048
:00000001FF
